:1000000012C02AC029C028C027C026C025C024C0CD
:1000100023C022C021C020C01FC05CC11DC01CC0A5
:100020001BC01AC019C011241FBECFEDCDBF10E0F8
:10003000A0E6B0E0E4E3F4E002C005900D92AA3639
:10004000B107D9F710E0AAE6B0E001C01D92AB38C5
:10005000B107E1F780D1ECC1D3CF85B7836085BF0D
:100060008BB780688BBF08951ABA8FE087BB8FEF7C
:100070008BBBF3DF10928900C39A78940895FC013A
:10008000613029F1613030F06230F1F1633009F014
:100090007AC057C080916800808384E08287809115
:1000A0008900882351F480916700818380916500E5
:1000B00082838091630083830895809166008183A9
:1000C000809164008283809162008383089580918F
:1000D0006800808384E0828780918900882351F4BE
:1000E00080916600818380916400828380916000AA
:1000F0008383089580916700818380916500828366
:10010000809161008383089580916800818384E0F9
:10011000828780918900882351F4809165008083D3
:10012000809167008283809163008383089580912A
:100130006400808380916600828380916200838363
:10014000089580916800828385E08287809189008C
:10015000882369F4809164008083809166008183A4
:1001600080916700838380916300848308958091E8
:10017000650080838091670081838091660083831E
:100180008091620084830895C39885E38A95F1F78E
:100190000000C39A82E08A95F1F700C0089580FDBF
:1001A00002C0C19A089580319105BCF470E09C01B1
:1001B000992314F42F5F3F4F3595279587E090E002
:1001C000821B930B02C0759567958A95E2F760FFD5
:1001D00002C0C29A03C0C29801C0C29AC1980895D1
:1001E000EF92FF920F931F93CF93DF9310927D00B6
:1001F0008FEC97E00197F1F700C00000C29AC0E0D1
:10020000D0E003E010E00F2EFEE7EF2EF0E0FF2E2F
:10021000F02D80917A0090917B00B801E2D0F70137
:10022000E60FF71F6081CE01BADF92E09A95F1F7F1
:1002300000C02196C032D10561F7C298A5DFC09AEF
:10024000DF91CF911F910F91FF90EF900895FC01E6
:1002500029B380819181880F991F906E30E0A901A8
:1002600002C0559547956A95E2F7BA0161707070C2
:10027000682B792B7183608381E050EF60307507C4
:1002800009F080E00895EF92FF921F93CF93DF93E0
:10029000C0E0D0E010E0EE24FF24E394CE01880F0C
:1002A000991F86599F4F6C2FD2DF882341F0C701D9
:1002B0000C2E02C0880F991F0A94E2F7182B219682
:1002C000C830D10559F7812FDF91CF911F91FF9051
:1002D000EF9008951F920F920FB60F9211242F9353
:1002E0003F934F935F938F939F9381E080937D0023
:1002F00080918A00882349F080917A0090917B0058
:10030000019690937B0080937A00809188002091E1
:100310007A0030917B0090E0AC01440F551F840FB0
:10032000951F2817390734F480917A0090917B004B
:10033000992334F410927B0010927A0010928A0074
:100340009F918F915F914F913F912F910F900FBE91
:100350000F901F90189580E888BD18BC85DEC1E01D
:100360000EE710E080918A00882331F080917D00B3
:100370008823C1F335DFF6CFC09889B384DF80FFCF
:1003800006C0C0938A00C80160E079DE23C081FF07
:1003900006C0C0938A00C8016C2F71DE1BC083FFAA
:1003A00006C0C0938A00C80162E069DE13C084FF02
:1003B00006C0C0938A00C80163E061DE0BC086FFFF
:1003C00009C080918900882319F4C093890002C074
:1003D000109289008FEC97E00197F1F700C00000C0
:1003E000C1CF97FB092E07260AD077FD04D00CD089
:1003F00006D000201AF4709561957F4F0895F6F7A6
:10040000909581959F4F0895AA1BBB1B51E107C092
:10041000AA1FBB1FA617B70710F0A61BB70B881F94
:10042000991F5A95A9F780959095BC01CD01089523
:04043000F894FFCF6E
:0A043400FAFC7B7DFBFDF3F5F700F9
:00000001FF
