:100000000C944C000C9478270C94AA270C9469004B
:100010000C9469000C9469000C9469000C946900BC
:100020000C9469000C9469000C9469000C946900AC
:100030000C9469000C9469000C9469000C9469009C
:100040000C9469000C9469000C9469000C9469008C
:100050000C9469000C94F1270C9469000C946900CD
:100060000C9469000C9469000C9469000C9469006C
:100070000C9469000C9469000C9469000C9469005C
:100080000C9469000C9469000C9469000C9469004C
:100090000C9469000C94690011241FBECFEFD0E1CD
:1000A000DEBFCDBF15E0A0E0B1E0ECE6F1E502C0B7
:1000B00005900D92A038B107D9F71FE0A0E8B5E090
:1000C00001C01D92A53EB107E1F70E941A280C94C9
:1000D000B4280C9400001092CD008CE08093CC00EA
:1000E00082E08093C80088E08093C90086E0809316
:1000F000CA0080E00895E8ECF0E0908195FFFDCF24
:100100008093CE0080E00895CF93DF93EC01888147
:10011000882331F021960E947B0089918823D9F7AA
:1001200080E0DF91CF910895813029F480E091E063
:100130000E9484000895823029F486E391E00E94B1
:1001400084000895833029F489E491E00E948400BA
:100150000895843029F48AE691E00E94840008958D
:10016000853029F484E891E00E9484000895863067
:1001700029F48EE991E00E9484000895873029F4E3
:1001800080EC91E00E9484000895883029F48BEF80
:1001900091E00E9484000895893029F484E292E07D
:1001A0000E94840008958A3029F48BE492E00E9432
:1001B000840008958B3029F483E792E00E94840044
:1001C00008958C3029F489E992E00E948400089512
:1001D0008D3029F487EB92E00E94840008958E30E0
:1001E00029F48CEE92E00E94840008958F3029F467
:1001F0008EE193E00E9484000895803129F481E625
:1002000093E00E9484000895813129F482EA93E00A
:100210000E9484000895823129F48EEC93E00E94BC
:100220008400089581EF93E00E9484000895813056
:1002300029F484E094E00E9484000895823029F437
:100240008DE194E00E9484000895833029F483E3D3
:1002500094E00E9484000895843029F489E594E0B4
:100260000E948400089586E794E00E948400089527
:10027000F8948FEF8EBD0DB407FEFDCF78948EB548
:10028000089582E3809380050E9438010E9438011E
:100290008F3F39F0809180058823C1F780E090E09E
:1002A000089581E090E00895289A0E943801089509
:1002B00028980E944101009729F40E94540180E08F
:1002C00090E0089581E090E0089581E090E0089545
:1002D0000F931F93CF93DF93EC018B0184E1809305
:1002E00081050E9438018F3F39F480918105882370
:1002F000C1F780E090E028C08E3F21F58FEF8EBDE2
:100300000DB407FEFDCF9EB598838EBD0DB407FEDC
:10031000FDCF9EB599838EBD0DB407FEFDCF9EB572
:100320009A838EBD0DB407FEFDCF9EB59B832496A8
:100330000450104021F70E9438010E94380181E0EA
:1003400090E002C080E090E0DF91CF911F910F918B
:1003500008951F93CF93DF93EC01162F0E94410164
:10036000009709F436C0F8941EBD0DB407FEFDCF0A
:1003700078941D3F89F1CE0180509E4FF8942881DA
:100380002EBD0DB407FEFDCF7894F89429812EBDC3
:1003900022960DB407FEFDCF78948C179D0771F758
:1003A000F8948FEF8EBD0DB407FEFDCF7894F894CE
:1003B0008FEF8EBD0DB407FEFDCF78940E943801FB
:1003C0008F7121E030E0853011F020E030E0C9018C
:1003D00005C080E090E002C081E090E0DF91CF9125
:1003E0001F910895CF92DF92EF92FF92CF93C82F83
:1003F0006A017B01882354F487E340E050E0BA01AE
:100400000E94F201823008F04FC0CF770E94540161
:100410000E945801009709F446C0F8948C2F80641C
:100420008EBD0DB407FEFDCF7894F8948F2D9927DB
:10043000AA27BB278EBD0DB407FEFDCF7894F89494
:10044000C701AA27BB278EBD0DB407FEFDCF789448
:10045000F894BB27AF2D9E2D8D2D8EBD0DB407FEBC
:10046000FDCF7894F894CEBC0DB407FEFDCF789400
:10047000CC2321F0C83021F081E003C085E901C020
:1004800087E8F8948EBD0DB407FEFDCF7894CC308C
:1004900011F40E943801CAE00E943801882324F434
:1004A000C150D1F701C08FEFCF91FF90EF90DF9057
:1004B000CF900895CF92DF92EF92FF920F931F9308
:1004C000CF93DF9300D000D0CDB7DEB7882309F0FB
:1004D000A1C080918E0481FF03C080918E049BC0D7
:1004E00085B1806C85B982E58CBD0AE00E94380137
:1004F0000150E1F780E040E050E0BA010E94F201D3
:10050000813009F09BC088EC8093810588E04AEA3D
:1005100051E060E070E00E94F201813009F044C0D7
:100520006E010894C11CD11C0F2EF5E0EF2EFF24A4
:10053000F02DEC0EFD1E86010E943801F80181931A
:100540008F01EE15FF05C1F78B81813009F076C070
:100550008C818A3A09F072C080918105882349F024
:1005600089EA40E050E060E070E40E94F2018823F4
:1005700099F780918105882309F460C08AE340E0FF
:1005800050E0BA010E94F201882309F057C00E948E
:100590003801F60181936F01EE16FF06C1F78981DC
:1005A00086FD46C084E045C089EA40E050E0BA01DB
:1005B0000E94F201823018F412E009EA02C011E050
:1005C00001E080918105882341F0802F40E050E0D8
:1005D000BA010E94F2018823A1F780918105882346
:1005E00069F180E140E052E060E070E00E94F201D9
:1005F000882321F5109382050E945401112339F0BC
:1006000080918E048E7F80938E0480E58CBD8091D6
:100610008E0401C081E00F900F900F900F90DF913A
:10062000CF911F910F91FF90EF90DF90CF900895A1
:100630008CE0809382050E945401E2CF10928205E3
:100640000E945401E4CF882319F480918E04089508
:1006500081E008950F93CF93DF93EB01882309F096
:1006600046C0002309F445C080918E0480FD43C03C
:100670008091820583FD09C0012E19E0220F331FEE
:10068000441F551F1A95D1F7102D013079F481E1DF
:10069000BA01A9010E94F201882311F5CE0160E0A0
:1006A00072E00E9468010097D1F41AC082E1BA0199
:1006B000A9010E94F201882399F4CE0160E072E062
:1006C0000E946801009721F0C050DE4F0150A9F749
:1006D0008CE040E050E0BA010E94F20101C000E06D
:1006E0000E94540181E0002339F480E005C084E0D9
:1006F00003C084E001C083E0DF91CF910F910895A2
:10070000CF92DF92EF92FF920F93CF93DF93EB01A3
:1007100069017A01882309F057C0002309F456C003
:1007200080918E0480FD54C080918E0482FD52C061
:100730008091820590E083FD09C00B2EB9E0CC0CBE
:10074000DD1CEE1CFF1CBA95D1F7B02D013071F401
:1007500088E1B701A6010E94F201882371F5CE015C
:100760006EEF0E94A901009729F527C0867090704E
:10077000009739F0402F50E060E070E087E90E9478
:10078000F20189E1B701A6010E94F2018823A9F4D0
:10079000CE016CEF0E94A901009721F0C050DE4FFE
:1007A0000150B1F780E090E06DEF0E94A901009741
:1007B00019F003C000E001C001E00E94540181E093
:1007C000002349F480E007C084E005C084E003C052
:1007D00083E001C082E0DF91CF910F91FF90EF9015
:1007E000DF90CF900895EF92FF920F931F93CF93D6
:1007F000DF93CDB7DEB760970FB6F894DEBF0FBEBC
:10080000CDBF7A01882309F0C3C16430D1F4FA0165
:100810008081813031F0813030F0823009F0BAC10E
:100820000AC000E0BAC10E94650101E0009709F426
:10083000B4C100E0B2C10E946501F701818300E00C
:10084000ACC180918E0480FDA7C16A3009F42CC12F
:100850006B3058F46130F9F06130A0F0623009F487
:1008600086C0633009F074C189C06C3009F435C1A9
:100870006C3008F41FC16D3009F442C16E3009F0CC
:1008800067C153C10E945801009709F463C10E94D7
:10089000540100E07AC189E040E050E0BA010E94D2
:1008A000F201882309F058C1CE01019660E170E0A1
:1008B0000E946801009709F451C18981829586954B
:1008C000869583708130D1F42A8530E02F5F3F4FC9
:1008D000998580E0820F931FA0E0B0E0072E7AE0B8
:1008E000880F991FAA1FBB1F7A95D1F7702DF701AA
:1008F00080839183A283B38300E047C12985229539
:10090000269526952370888590E0880F991F880F7B
:10091000991F820F911D01962F8130E02370307056
:10092000322F2227330F330F820F931FAC0160E069
:1009300070E09E819F708B85881F8827881F980F85
:100940009E5F8A858370880F890F90E009978A01DE
:100950009B0104C0000F111F221F331F8A95D2F77D
:10096000F701008311832283338300E00EC180E00E
:1009700092E0FA019183808300E007C10091820533
:1009800002FF2DC08DE840E050E0BA010E94F20164
:10099000882309F0E5C00E943801CE01019660E18C
:1009A00070E00E946801009709F4DCC000E30E9437
:1009B00038010150E1F72B8522952F7080E190E0FE
:1009C000A0E0B0E004C0880F991FAA1FBB1F2A95A2
:1009D000D2F7F70180839183A283B383D6C089E0E5
:1009E00040E050E0BA010E94F201882309F0BCC047
:1009F000CE01019660E170E00E946801009709F461
:100A0000B5C001FF25C08C85881F8827881F90E00E
:100A100001962B8530E02F733070220F331F280F83
:100A2000391F8E85829586958695837090E0019713
:100A3000890102C0000F111F8A95E2F7C801A0E0EA
:100A4000B0E0F70180839183A283B38300E09DC06F
:100A50008C85482F50E043705070440F551F440F51
:100A6000551F440F551F829586958770480F511D5D
:100A70004F5F5F4F2B8530E02C7730703595279591
:100A8000359527952F5F3F4F429FC001439F900DA3
:100A9000529F900D1124A0E0B0E0F7018083918374
:100AA000A283B38300E071C080918205FA01808344
:100AB00000E06BC089E040E050E0BA010E94F20122
:100AC000882309F055C0C70160E170E00E94680109
:100AD000009709F04FC001E058C08AE040E050E0C4
:100AE000BA010E94F201882309F046C0C70160E103
:100AF00070E00E946801009709F040C001E045C025
:100B00008AE340E050E0BA010E94F2018823C1F577
:100B100087010C5F1F4F0E943801F70181937F010D
:100B2000E017F107C1F700E030C08DE840E050E089
:100B3000BA010E94F201882329F50E943801C701F9
:100B400060E470E00E9468010097F1F401E01DC0CC
:100B500004E01BC001E019C001E017C001E015C0AE
:100B600001E013C001E011C001E00FC001E00DC0C1
:100B700001E00BC000E009C001E007C000E005C0D3
:100B800001E003C001E001C000E00E94540105C083
:100B900004E003C004E001C003E0802F60960FB6BC
:100BA000F894DEBF0FBECDBFDF91CF911F910F91A3
:100BB000FF90EF90089580918105882319F081506E
:100BC0008093810580918005882319F0815080935E
:100BD00080059091830583B1807380938305981776
:100BE00071F480918E0495FF02C0846001C08B7FF8
:100BF00094FF02C0836001C08D7F80938E040895AE
:100C000060E070E0CB010895CF93DF93EC01CA015F
:100C10008230910500F1FB01DE01219131912D938C
:100C20003D93029782309105C0F79A0122503040DF
:100C3000C90196958795DC011196AA0FBB1FFE018D
:100C4000EA0FFB1FA60FB71F880F991FA901481BAA
:100C5000590BCA0102C0DB01FE01009721F02D9162
:100C600021930197E1F7DF91CF9108954115510547
:100C700031F0E82FF92F619341505040E1F708958A
:100C8000CF93DF93FC01EB01299686859785A08998
:100C9000B1890097A105B10509F442C022893389C1
:100CA000F9014081403299F0D9011196FE0180E0AE
:100CB00090E055EE03C04D91403249F0453009F4C3
:100CC000452F4193EF01019688309105A1F7F90175
:100CD0008085803259F08EE288838085803221F5CC
:100CE000219604C0EC0102C04B832496F901838550
:100CF000FB018087F901848D958DA68DB78DFB0151
:100D000080839183A283B383F901808D918DFB0150
:100D100095838483F90186899789FB01978386836C
:100D20001882DF91CF9108958983CE010296F9014F
:100D300041854032B9F24A83CE0103964285403262
:100D400099F6D0CF009781F0FC012081222371F029
:100D5000268137812617370759F481810E942303A2
:100D600080FF08C083E0089589E0089589E0089530
:100D700089E0089580E008950F93CF93DF93EC010D
:100D80009A01AB01BC016E5C7F4F898101E00E943A
:100D90002A03882359F5FE01E05DFD4F8081918192
:100DA0002AEA8535920721F5FE01E859FF4F808137
:100DB0009181A281B381B070863421E4920724E549
:100DC000A20720E0B207B1F0CC57DF4F488159812C
:100DD0006A817B81707081E0463491E4590794E523
:100DE000690790E0790739F480E005C083E003C02B
:100DF00082E001C080E0DF91CF910F9108952F92A2
:100E00003F924F925F926F927F928F929F92AF929A
:100E1000BF92DF92EF92FF920F931F93CF93DF93D6
:100E2000CDB7DEB760970FB6F894DEBF0FBECDBF6B
:100E3000DC01142FED91FC911197808190E00F2E31
:100E4000F0ED8F2EFFEF9F2EF02D880E991E0AE0F9
:100E50008016910440F481818A3329F432961196E8
:100E6000FC93EE9303C080908805992422E08216BB
:100E7000910408F033C2F401EE0FFF1FEC57FA4F54
:100E8000E080F180DB011196FC92EE92E114F10416
:100E900009F426C2F7018081882361F081810E94D4
:100EA000230380FD07C0112309F41CC282FD1CC26C
:100EB00080E03BC2D7011C9211968C92882D0E9433
:100EC0005A0280FD13C2112311F082FD11C2C70125
:100ED00040E050E0BA010E94BC068130A1F4F70165
:100EE000EC50FE4F8081882309F404C2F701E850DA
:100EF000FE4F80809180A280B380C701B501A4011C
:100F00000E94BC0603C0882499245401833009F44C
:100F1000F3C1882309F0F2C1F70185AD96ADF2E087
:100F200080309F0709F0ECC1F701E85BFF4F80813B
:100F300091812C01662477244114510461047104C9
:100F400039F4F701EA5AFF4F408051806280738084
:100F5000D7015E964D925D926D927C929197F701CA
:100F6000EE5BFF4F4081F7014383842F8150823035
:100F700008F0C8C1D7ACD282DD2009F4C5C18D2DDF
:100F800090E09C012150304082239323009709F088
:100F9000BDC1ED5BFF4F2080318019963C922E92AF
:100FA0001897C1018F709070009709F0B1C1F701D7
:100FB000EB5BFF4F808191818C0120E030E0098361
:100FC0001A832B833C83011511052105310569F432
:100FD00097012E5A3F4FD9018D919D910D90BC9153
:100FE000A02D89839A83AB83BC83F701E05CFF4F1C
:100FF000008111810115110509F48CC1242F30E005
:1010000040E050E0C301B2010E9473286D877E87E3
:101010008F87988B980140E050E029873A874B876B
:101020005C87C101929582958F7089279F7089276F
:10103000A0E0B0E0820F931FA41FB51F0D851E8591
:101040002F853889080F191F2A1F3B1F0D831E8308
:101050002F83388789819A81AB81BC818017910762
:10106000A207B30708F458C1BC01CD01601B710B86
:10107000820B930B2D2D30E040E050E00E9492282F
:1010800089019A01D901C801011511052105310510
:1010900009F444C1063FEFE01E07E0E02E07E0E060
:1010A0003E0718F4DD24D39403C0DD246894D1F8FE
:1010B000863FFFEF9F07F0E0AF07F0E0BF0708F0C3
:1010C0004CC1B901A8014E5F5F4F6F4F7F4FD701F1
:1010D0005A964D935D936D937C935D978D819E8120
:1010E000AF81B885880D991DAA1DBB1DF70182A788
:1010F00093A7A4A7B5A789859A85AB85BC85880DDC
:10110000991DAA1DBB1D82A393A3A4A3B5A3F3E0BD
:10111000DF16C9F42114310409F002C1F701E25AC3
:10112000FF4F80819181A281B381F70186A397A3AC
:10113000A0A7B1A7440F551F661F771F440F551F67
:10114000661F771F2FC02114310409F4EBC00D85F1
:101150001E852F853889800F911FA21FB31FF701AD
:1011600086A397A3A0A7B1A7F2E0DF1629F4440F46
:10117000551F661F771F16C0DB01CA01880F991F14
:10118000AA1FBB1F840F951FA61FB71FB695A79553
:10119000979587954170507060707070480F591F17
:1011A0006A1F7B1FDB01CA0181509E4FAF4FBF4FAB
:1011B000072E79E0B695A795979587957A95D1F7FB
:1011C000702D481659066A067B0608F4ADC08FEFED
:1011D0009FEFDC01F70186879787A08BB18B128682
:1011E000138614861586B3E0DB1609F05AC0158203
:1011F000EE59FF4F80819181A0E0B0E0A5019401FC
:10120000280F391F4A1F5B1FD70152962D933D931C
:101210004D935C935597B7016E5C7F4F11968C91FF
:1012200001E00E942A038823E1F5F701E05DFD4F0C
:1012300080819181BAEA85359B0799F5F70182A9EA
:1012400093A9A4A9B5A98235F2E59F07F1E6AF07F6
:10125000F1E4BF0731F5F701EA5EFD4F808191812E
:10126000A281B381823702E7900701E4A00701E67B
:10127000B007B9F4F701E25EFD4F80819181A28150
:10128000B381F70182879387A487B587E65EFD4F18
:1012900080819181A281B381F70186879787A08B96
:1012A000B18BD701DC928091890590918A050196D6
:1012B00090938A058093890517969C938E93169731
:1012C000F70116A617A610AA11AA148256961D9207
:1012D0001D921D921C92599780E027C08BE025C07B
:1012E0008CE023C080E021C08AE01FC083E01DC0E5
:1012F0008AE01BC08DE019C081E017C08DE015C0E9
:101300008DE013C08DE011C08DE00FC08DE00DC0E9
:101310008DE00BC08DE009C08DE007C08DE005C0F9
:101320008DE003C08DE001C08DE060960FB6F894AB
:10133000DEBF0FBECDBFDF91CF911F910F91FF9008
:10134000EF90DF90BF90AF909F908F907F906F90C5
:101350005F904F903F902F900895B901A8014E5F84
:101360005F4F6F4F7F4FF701428F538F648F758FA1
:101370008D819E81AF81B885880D991DAA1DBB1DE9
:1013800082A793A7A4A7B5A789859A85AB85BC85B5
:10139000880D991DAA1DBB1D82A393A3A4A3B5A369
:1013A0000F2EF3E0DF2EF02DB5CE4F925F926F92AD
:1013B0007F928F929F92AF92BF92CF92DF92EF92E5
:1013C000FF920F93CF935C012A013B01FC01C6A45D
:1013D000D7A4E0A8F1A8C416D506E606F70609F4D6
:1013E00054C084818823D1F10F2EF2E38F2E9924EB
:1013F000F02D8A0C9B1C8181B401A701960101E0AC
:101400000E948003882309F042C0F5011482468DB2
:10141000578D60A171A182A193A1A4A1B5A1840F50
:10142000951FA61FB71FC816D906EA06FB06B0F41B
:10143000C381C23098F0F501868D978DA0A1B1A12E
:10144000C80ED91EEA1EFB1E8181B401A7019601B8
:1014500001E00E948003C150C13069F7411451047A
:1014600061047104B1F0B5016E5C7F4FF5018181BB
:10147000A301920101E00E942A03882361F4F5018F
:1014800046A657A660AA71AA07C080E005C081E001
:1014900003C080E001C081E0CF910F91FF90EF90F9
:1014A000DF90CF90BF90AF909F908F907F906F9084
:1014B0005F904F900895EF92FF920F931F93CF93F9
:1014C0007C0140E050E0BA010E94D509C82F882372
:1014D00009F060C0F7018081833009F052C0858136
:1014E000882309F44EC016A617A610AA11AA8701D0
:1014F0000E5C1F4FC80160E070E040E052E00E94C7
:101500003606F701E05DFD4F85E59AEA9183808319
:1015100082E592E5A1E6B1E4F70182AB93ABA4AB1F
:10152000B5ABEA5EFD4F82E792E7A1E4B1E68083C6
:101530009183A283B3839701265E3D4FF701868591
:101540009785A089B189F90180839183A283B383B0
:101550009701225E3D4FF70182859385A485B5856D
:10156000F90180839183A283B383F70122893389B0
:10157000448955898181B80101E00E948003F70107
:101580001582F701818160E040E050E00E94F303A2
:101590008111C1E08C2FCF911F910F91FF90EF909F
:1015A0000895BF92CF92DF92EF92FF920F931F9315
:1015B000CF93DF93EC016A017B0142305105610555
:1015C000710508F4AAC08A8D9B8DAC8DBD8D48171E
:1015D00059076A077B0708F0A5C08881823009F4A3
:1015E0005CC0833009F476C0813009F0A0C09A0154
:1015F000369527958901040F151FA801452F5527FA
:10160000469560E070E08AA19BA1ACA1BDA1480F06
:10161000591F6A1F7B1FCE010E94D509882309F03C
:101620008AC0F801F170EC0FFD1FB2A80F5F1F4FC9
:10163000A801452F5527469560E070E08AA19BA13F
:10164000ACA1BDA1480F591F6A1F7B1FCE010E948C
:10165000D509882309F073C02B2D30E0F801F17013
:10166000EC0FFD1F92A980E0822B932B21E0C22278
:10167000DD24C114D10451F0929582958F70892791
:101680009F7089278C0120E030E064C08C0120E04D
:1016900030E01F70207030705DC0452F562F672FCF
:1016A00077278AA19BA1ACA1BDA1480F591F6A1F32
:1016B0007B1FCE010E94D509882309F044C0F601A2
:1016C000EE0FFF1FF170CE0FDF1F0AA91BA920E04C
:1016D00030E040C0689416F8769567955795479521
:1016E0001694D1F78AA19BA1ACA1BDA1480F591FA7
:1016F0006A1F7B1FCE010E94D509882341F5F601A0
:10170000EE0FFF1FEE0FFF1FF170CE0FDF1F0AA9B4
:101710001BA92CA93DA93F701DC001E010E020E0ED
:1017200030E018C001E010E020E030E013C00FEF1F
:101730001FEF98010FC00FEF1FEF98010BC00FEFC5
:101740001FEF980107C00FEF1FEF980103C00FEFC5
:101750001FEF9801602F712F822F932FDF91CF9170
:101760001F910F91FF90EF90DF90CF90BF90089561
:101770008F929F92AF92BF92CF92DF92EF92FF92A1
:101780000F931F93CF93DF93EC016A017B01480114
:101790005901423051056105710508F4C8C08A8DB0
:1017A0009B8DAC8DBD8D481759076A077B0708F0E4
:1017B000C0C08881823009F46AC0833009F482C0D5
:1017C000813009F0B0C09A01369527958901040F40
:1017D000151FA801452F5527469560E070E08AA1A6
:1017E0009BA1ACA1BDA1480F591F6A1F7B1FCE0151
:1017F0000E94D509882309F097C0C8019170E1E0E3
:10180000CE22DD24C114D10451F0FE01E80FF91FEE
:1018100022A92F70382D3295307F232B01C0282D1F
:10182000FE01E80FF91F22AB0F5F1F4F81E08C8391
:10183000A801452F5527469560E070E08AA19BA13D
:10184000ACA1BDA1480F591F6A1F7B1FCE010E948A
:10185000D509882309F068C01170C114D10449F07A
:10186000689413F8B694A794979487941694D1F734
:1018700009C0FE01E00FF11F22A9207F992D9F7062
:10188000822E892A0C0F1D1FF80182AA4DC0452FF8
:10189000562F672F77278AA19BA1ACA1BDA1480F26
:1018A000591F6A1F7B1FCE010E94D5098823E1F5CD
:1018B000F601EE0FFF1FF170F296EC0FFD1F918203
:1018C000808232C0689416F876956795579547954B
:1018D0001694D1F78AA19BA1ACA1BDA1480F591FB5
:1018E0006A1F7B1FCE010E94D5098823E9F4960167
:1018F000220F331F220F331F31702E5C3F4FFE012A
:10190000E20FF31F408151816281738140705070FA
:101910006070707F482959296A297B294083518347
:101920006283738301C082E091E09C8303C082E004
:1019300001C082E0DF91CF911F910F91FF90EF9056
:10194000DF90CF90BF90AF909F908F9008952F928F
:101950003F924F925F926F927F928F929F92AF923F
:10196000BF92CF92DF92EF92FF920F931F93CF938C
:10197000DF9300D000D0CDB7DEB71C0149835A8376
:101980006B837C834115510561057105C1F4DC0150
:101990001A968D909D90AD90BC901D9781149104E6
:1019A000A104B10451F15A968D919D910D90BC9175
:1019B000A02D88169906AA06BB0620F527C04981E6
:1019C0005A816B817C810E94D10A8B019C0162301B
:1019D00071058105910508F4A8C0F101828D938DF0
:1019E000A48DB58D081719072A073B0708F4B4C062
:1019F00089809A80AB80BC8009C0882499245401D6
:101A0000839404C08824992454018394750164014B
:101A1000442455243201689441F80894C11CD11C17
:101A2000E11CF11CF101828D938DA48DB58DC8163A
:101A3000D906EA06FB0648F0F2E08F169104A104ED
:101A4000B10408F477C073016201C101B701A601B6
:101A50000E94D10A8B019C016115710581059105D8
:101A6000A9F00F3F8FEF18078FEF28078FEF380788
:101A700009F472C0013011052105310509F46CC06B
:101A8000C814D904EA04FB0441F658C08C2C4D2C30
:101A9000BE2CAF2CC1014C2D5D2D6E2D7F2D0FEF77
:101AA0001FEF2FEF3FE00E94B80B882309F04AC0D8
:101AB00089819A81AB81BC810097A105B10569F04C
:101AC000C10149815A816B817C810C2D1D2D2E2DE8
:101AD0003F2D0E94B80B8823C9F5D1011A968C922C
:101AE0001A971B964C921B971C96BC921C971D969E
:101AF000AC921D971E968D919D910D90BC91A02D3D
:101B00008F3FEFEF9E07EFEFAE07EFEFBE0711F14C
:101B10000197A109B109F10186879787A08BB18B45
:101B200081E085839701860117C001E010E020E085
:101B300030E012C000E010E098010EC000E010E0BC
:101B400098010AC00FEF1FEF980106C00FEF1FEFBB
:101B5000980102C097018601602F712F822F932F69
:101B60000F900F900F900F90DF91CF911F910F91D9
:101B7000FF90EF90DF90CF90BF90AF909F908F90AD
:101B80007F906F905F904F903F902F9008957F923D
:101B90008F929F92AF92BF92CF92DF92EF92FF927D
:101BA0000F931F93CF93DF93EC014A015B01423007
:101BB00051056105710508F455C08A8D9B8DAC8D6A
:101BC000BD8D481759076A077B0708F04DC003C051
:101BD0004601570102C077247394CE01B501A401D8
:101BE0000E94D10A6B017C01611571058105910587
:101BF000E9F191E0C916D104E104F104C9F18FEFD4
:101C0000C8168FEFD8068FEFE8068FEFF80691F130
:101C1000CE01B501A40100E010E098010E94B80BCC
:101C2000882349F54E855F85688979894F3F9FEF05
:101C300059079FEF69079FEF790749F04F5F5F4FA3
:101C40006F4F7F4F4E875F87688B798B7D824A8D80
:101C50005B8D6C8D7D8DC416D506E606F70608F4FF
:101C6000B7CF09C082E007C082E005C080E003C0B2
:101C700082E001C081E0DF91CF911F910F91FF9031
:101C8000EF90DF90CF90BF90AF909F908F907F901C
:101C900008950F931F93CF93DF93EC01DB01CA01EB
:101CA0000297A109B1094A8D5B8D6C8D7D8D4250E3
:101CB00050406040704084179507A607B70798F416
:101CC0002A8130E040E050E0BC01CD010E94732841
:101CD0008B019C018AA59BA5ACA5BDA5080F191F6A
:101CE0002A1F3B1F03C000E010E09801602F712FF6
:101CF000822F932FDF91CF911F910F910895EF9233
:101D0000FF920F931F93CF93DF93EC018B017D83A1
:101D10006C834E815F81688579854130510561050D
:101D2000710509F49FC0E881F981828D938DA48D9E
:101D3000B58D481759076A077B0708F095C041150C
:101D400051056105710569F58081833049F446A12B
:101D500057A160A571A5411551056105710509F5EA
:101D60001A861B861C861D86808591850817190793
:101D700008F07CC0C801929582958F7089279F706A
:101D80008927AC0160E070E086A197A1A0A5B1A56C
:101D9000840F951FA61FB71F8E879F87A88BB98BAF
:101DA0004EC0828190E07C01EE0CFF1CEE0CFF1C0B
:101DB000EE0CFF1CEE0CFF1C0E151F0528F1888190
:101DC00099810E94D10AAB01BC014F3F8FEF5807A8
:101DD0008FEF68078FEF780709F44AC0423051054A
:101DE0006105710508F446C0E881F981828D938D03
:101DF000A48DB58D481759076A077B07E8F50E19BA
:101E00001F090E151F05D8F64A875B876C877D87EB
:101E1000888199810E94490EAB01BC01C80192954D
:101E200082958F7089279F708927A0E0B0E0840F8A
:101E3000951FA61FB71F8E879F87A88BB98B888198
:101E40009981C2960F701070000F111F02951295A4
:101E5000107F1027007F1027800F911F9B8B8A8B8C
:101E600080E00BC082E009C082E007C082E005C0CC
:101E700081E003C082E001C082E0DF91CF911F9139
:101E80000F91FF90EF900895CF93DF93EC016C8159
:101E90007D810E947F0E882391F44E855F8568893D
:101EA0007989888199810E94D509882341F4EA893A
:101EB000FB8995EE9083E881F98191E09483DF912D
:101EC000CF9108958F929F92AF92BF92CF92DF925F
:101ED000EF92FF920F931F93CF93DF938C01EB014F
:101EE000DC011496ED90FC9015970894E11CF11C10
:101EF000E114F10409F409C11E968D919D910D9094
:101F0000BC91A02D0097A105B10509F400C10F2EC9
:101F1000FFE0CF2EDD24F02DCE20DF20C114D10430
:101F200009F0D8C00196A11DB11DF80186879787D9
:101F3000A08BB18B4285538564857585411551050C
:101F40006105710551F40190F081E02D8085918546
:101F5000E816F90608F0DDC0BDC00190F081E02D63
:101F6000828190E001979701329522952F70232767
:101F70003F70232782239323009709F0ABC0CF0142
:101F80000E94D10A4B015C01623071058105910507
:101F900008F4C1C06F3FEFEF7E07EFEF8E07EFEF62
:101FA0009E0709F4BAC0D801ED91FC91828D938D02
:101FB000A48DB58D88169906AA06BB0608F478C0CC
:101FC000209709F4ACC0D8011A964D915D916D919E
:101FD0007C911D97CF010E94A70C4B015C016115FC
:101FE00071058105910509F49CC061307105810579
:101FF000910509F498C06F3FEFEF7E07EFEF8E0772
:10200000EFEF9E0709F491C0D8018D919C9140E0BB
:1020100050E0BA010E94D509882309F088C0F80170
:1020200080819181C29660E070E040E052E00E94C1
:102030003606D801CD91DC91CE01B501A4010E94F4
:10204000490EDC01CB018EA79FA7A8ABB9ABC0E0BE
:10205000D1E01BC0D483F8018081918140E050E041
:10206000BA010E94D509882309F063C0D801ED9117
:10207000FC9186A597A5A0A9B1A90196A11DB11DA6
:1020800086A797A7A0ABB1ABCF5FD801ED91FC912C
:1020900011978281C817F0F286A597A5A0A9B1A9CA
:1020A0008C1B9109A109B10986A797A7A0ABB1AB79
:1020B000F80182869386A486B58680819181B501D8
:1020C000A4010E94490EDC01CB01F80186879787A5
:1020D000A08BB18BD8011596FC92EE9214978D913E
:1020E0009C911197C296CC0CDD1CCC0CDD1CCC0C49
:1020F000DD1CCC0CDD1CCC0CDD1C8C0D9D1D539609
:102100009C938E93529780E015C084E013C084E0C6
:1021100011C084E00FC082E00DC081E00BC084E0FC
:1021200009C087E007C082E005C081E003C081E00C
:1021300001C081E0DF91CF911F910F91FF90EF904F
:10214000DF90CF90BF90AF909F908F9008952F9287
:102150003F924F925F926F927F928F929F92AF9237
:10216000BF92CF92DF92EF92FF920F931F93CF9384
:10217000DF9300D000D000D0CDB7DEB78C014B018B
:10218000DB018C918F3211F08C3549F40894811C5D
:10219000911CF80116821782108611860CC0D80196
:1021A000ED91FC9186899789A08DB18DF801868388
:1021B0009783A087B187D4018C91803250F4C801F5
:1021C00060E070E00E947F0E482FF801138A128AA7
:1021D00046C10F2EFBE06F2E7724F02DAA24BB24DE
:1021E00044245524689443F849825A826B827C8245
:1021F0000F2EF0E92F2EF4E03F2EF02DD80154964B
:10220000ED90FC905597C70160E270E0A3010E9439
:102210003606F40180818E3239F0D401B5016201B5
:1022200030E0BE82AD8229C0EEE2D701EC93D4014A
:1022300011962C9111972E3259F48EE2F701818379
:1022400012962C9112972E3251F083E090E002C04A
:1022500082E090E02F3249F02C3539F002C083E063
:1022600090E0213208F0ECC014C1880E991E80E283
:10227000D7011B968C931B9717C12D916F5F7F4FD2
:10228000213208F448C02F3209F407C12C3509F473
:1022900004C12E3229F0ED81FE81EC15FD058CF094
:1022A000F8E0CF16D10409F0CDC02E3209F0CCC031
:1022B000330F330F89818D839A819E83CB80DC809D
:1022C000DCCF22230CF4C2C0422F50E04232510531
:1022D00009F4BEC0F1018191882331F090E04817E4
:1022E0005907C9F746E0BBC0822F81548A3110F4E8
:1022F000326006C0822F81568A3110F4316020523C
:10230000ED81FE81EE0DFF1D20838D819E81019662
:102310009E838D83B2CFED81FE81860E971E832F23
:1023200044E0309709F496C0D7019C91953E11F492
:10233000E5E0EC93F8E0CF16D10419F4382F330F11
:10234000330F832F90E09C012370307021303105D2
:1023500009F440618C7090708430910509F44860F4
:10236000D7011B964C931B979FC0F8014685578554
:1023700060897189808191810E94D509882341F506
:10238000D80152964D915C915397FA01908199230F
:1023900009F49AC0938593FD13C054966D917C9176
:1023A00055979A01255F3F4FDB017A01482F04C002
:1023B000E217F30709F481C091918D919817C1F349
:1023C000C801B5010E94620F882379F2482F01C02D
:1023D000482FD8015496ED91FC9155978385443050
:1023E000F1F585FF0BC0F801168217821086118661
:1023F000138A128A82FF02CF40E031C082FF2CC0D4
:1024000044E02DC0D7011B968C911B9784FF26C0FA
:1024100054968D919C915597A0E0B0E0BC01552752
:102420004427F701828D938DA0E0B0E0842B952B9B
:10243000A62BB72BF80186839783A087B187DECEC2
:1024400046E00DC046E00BC046E009C046E007C0CC
:1024500046E005C046E003C045E001C045E0842FEA
:1024600026960FB6F894DEBF0FBECDBFDF91CF9199
:102470001F910F91FF90EF90DF90CF90BF90AF90A2
:102480009F908F907F906F905F904F903F902F9094
:102490000895880E991E84E2EBCEED81FE81860EB2
:1024A000971E832F40E03DCFC801B5010E947F0EEB
:1024B000482F882309F459CF8CCFDB011B968C91D0
:1024C0001B9782FF9FCFCBCFD8015496ED91FC9103
:1024D0005597838586CFEF92FF920F931F93CF93EB
:1024E0008C0160E070E00E947F0EC82F8823D9F530
:1024F000D8011E964D915D916D917C9151978D9172
:102500009C910E94D509C82F882369F5D80152965D
:10251000ED91FC9153978081853E61F1882351F1C3
:10252000C80161E070E00E94620FC82F882301F3A8
:102530001AC0F801E288F388C70160E070E040E269
:1025400050E00E943606D80154966D917C915597C3
:10255000C7014BE050E00E940406D801ED91FC91C8
:10256000119781E084838C2FCF911F910F91FF9061
:10257000EF900895F80146855785608971898081BB
:1025800091810E94D509C82F882369F7D2CFCF93B4
:10259000DF93EC0184E017C0888199810E94D509FE
:1025A0008823E1F4EA89FB8990819923F1F0953E33
:1025B00019F0938593FF16C0CE0160E070E00E9491
:1025C000620F882359F44E855F85688979894115A2
:1025D00051056105710501F7882321F01E861F86CC
:1025E000188A198ADF91CF91089584E0F7CF82305D
:1025F000D0F490E0FC01EE0FFF1FEC57FA4F019072
:10260000F081E02D309709F010826115710511F00D
:10261000FB011082FC01EE0FFF1FEC57FA4F718394
:10262000608380E008958BE008954F925F926F92EF
:102630007F928F929F92AF92BF92CF92DF92EF9252
:10264000FF920F931F93CF93DF93CDB7DEB7A4977D
:102650000FB6F894DEBF0FBECDBF7C017CA36BA389
:10266000DC011D921C92142F1F714E71CE018396B6
:10267000BE016F5F7F4F0E94FF069E01295E3F4FA4
:102680003E8B2D8B882309F0F6C06BA17CA1CE0177
:1026900001960E94A710CB88DC88882321F4C114FE
:1026A000D10409F486E0212F30E0A9014C7150706B
:1026B0004115510509F465C0882371F0843009F093
:1026C000C3C0CE0101960E946B12CB88DC888823A0
:1026D00009F0BAC0186007C012FDD0C0F6018385AA
:1026E000817109F0CDC013FFD1C00E940006DC014A
:1026F000CB01F60186879787A08BB18B1386148E4A
:10270000158E168E178E84899589A0E0B0E0BC01E5
:1027100055274427828D938DA0E0B0E04A015B01EC
:10272000882A992AAA2ABB2A158A148A138E128EFD
:10273000E981FA8181E0848381149104A104B104C8
:1027400009F4A4C046A457A460A871A8CF01B5019C
:10275000A4010E94C70D882309F076C0E981FA819F
:10276000D501C4010197A109B10982879387A48784
:10277000B587CF01B301A2010E94D509882379F062
:1027800063C0882309F060C0D6011B968C911B970B
:1027900084FD78C011FF7AC080FD76C077C0912F8C
:1027A0009E7109F01062E981FA8146A557A560A9DA
:1027B00071A9D7015A964D935D936D937C935D9764
:1027C0005F96DC92CE925E9714961C93D601549637
:1027D0000D911C91559720E030E0980111270027BA
:1027E0005A964D915C915B9760E070E0402B512BC5
:1027F000622B732BD7011E964D935D936D937C9343
:102800005197D6015C964D915D916D917C915F974A
:10281000D7011A964D935D936D937C931D971696F1
:102820001D921D921D921C92199756961D921D92F3
:102830001D921C9259971196FC93EE932681378135
:1028400013963C932E931297A4960FB6F894DEBF7E
:102850000FBECDBFDF91CF911F910F91FF90EF90F1
:10286000DF90CF90BF90AF909F908F907F906F90B0
:102870005F904F900895CB88DC8815CF88E0E4CF37
:1028800087E0E2CF84E0E0CF87E0DECF80E087CF53
:102890002F923F924F925F926F927F928F929F9270
:1028A000BF92CF92DF92EF92FF920F931F93CF933D
:1028B000DF9300D000D0CDB7DEB79C838B83C62ECC
:1028C000172F4A011901D9011D921C92FC01628146
:1028D0007381808191810E94A206B82E882309F01D
:1028E0007BC1AB81BC8114968C91149788230CF426
:1028F0006BC180FF6DC11A968D919D910D90BC9119
:10290000A02DEB81FC814681578160857185841BF8
:10291000950BA60BB70BA40160E070E08417950738
:10292000A607B70708F44C018114910409F454C1B7
:10293000C9821A83AB81BC8116964D915D916D91D0
:102940007C911997DB01CA019170A070B07000975B
:10295000A105B10509F0DAC0AB81BC81ED91FC9114
:10296000DB01CA01072E79E0B695A7959795879563
:102970007A95D1F7702D12811150182309F041C0BA
:10298000411551056105710539F4EB81FC8186859E
:102990009785A089B1890DC0AB81BC8152964D91BC
:1029A0005D916D917C915597CF010E94D10ADC0118
:1029B000CB0182309105A105B10548F4EB81FC8182
:1029C000848180688483BB246894B1F805C18F3FFB
:1029D000FFEF9F07FFEFAF07FFEFBF0761F4AB818A
:1029E000BC8114968C911497806814968C931497DC
:1029F000BB24B394F1C0EB81FC81828B938BA48BBD
:102A0000B58BAB81BC816D907C90119752964D91A6
:102A10005D916D917C915597C3010E94490EDC0137
:102A2000CB010097A105B10549F4EB81FC818481BC
:102A300080688483BB246894B1F8CEC06C017D01AA
:102A4000C10ED11CE11CF11C2401452C55244694D7
:102A50004114510409F452C0D30112964C911297BB
:102A6000C201810F911D242F30E02817390720F46F
:102A7000C9012C01411A5108F301818169817A81D0
:102A8000A7019601042D0E942A03882361F0AB81DF
:102A9000BC8114968C911497806814968C9314972B
:102AA000BB24B39499C0AB81BC81ED91FC9111978B
:102AB00084818823F1F086A597A5A0A9B1A98C19D6
:102AC0009D09AE09BF09A20160E070E08417950777
:102AD000A607B70770F4982F8827990FBF016E5C7F
:102AE0007F4FE981FA818E0F9F1F40E052E00E94E4
:102AF00004066201DC2CCC24DD0C41C0AB81BC811E
:102B00005696CD92DD92ED92FC925997EB81FC8125
:102B1000C680D780E084F18446895789608D718DA5
:102B2000808191810E94D509882361F0AB81BC81AD
:102B300014968C911497806814968C931497BB24E8
:102B4000B3944AC0C6019170E0E0F2E0E81BF90BD3
:102B50006401E815F90508F46F01AB81BC81169694
:102B60006D917C9117977170CB01C2966D917C919C
:102B7000680F791F89819A81A6010E940406E98164
:102B8000FA81EC0DFD1DFA83E983A60160E070E097
:102B9000EB81FC8186819781A085B185840F951F8B
:102BA000A61FB71F86839783A087B187D1018D9118
:102BB0009C9111978C0D9D1D11969C938E938C1852
:102BC0009D0809F0B7CE08C0BB246894B1F804C0D2
:102BD0000F2EF7E0BF2EF02D8B2D0F900F900F9042
:102BE0000F90DF91CF911F910F91FF90EF90DF90A9
:102BF000CF90BF909F908F907F906F905F904F90FD
:102C00003F902F9008952F923F924F925F926F9234
:102C10007F928F929F92AF92BF92CF92DF92EF926C
:102C2000FF920F931F93CF93DF9300D000D0CDB7C7
:102C3000DEB79C838B83C62E172F4A011901D90159
:102C40001D921C92FC0162817381808191810E949E
:102C5000A206B82E882309F0FCC1AB81BC81149672
:102C60008C91149788230CF4ECC181FFEEC11A9665
:102C70004D915D916D917C911D97C401A0E0B0E0F4
:102C8000840F951FA61FB71F84179507A607B707C0
:102C900008F4BAC18114910409F4B6C1C9821A8337
:102CA000AA24A394EB81FC814681578160857185BC
:102CB000DB01CA019170A070B0700097A105B10549
:102CC00009F03FC120813181DB01CA01072E79E083
:102CD000B695A795979587957A95D1F7702DF901B7
:102CE00012811150182309F058C041155105610592
:102CF0007105C9F4EB81FC8186859785A089B1892E
:102D00000097A105B10509F5C90140E050E0BA01FD
:102D10000E94A70CDC01CB01EB81FC8186879787A1
:102D2000A08BB18B0DC0AB81BC8152964D915D9152
:102D30006D917C915597C9010E94A70CDC01CB01D4
:102D40000097A105B10509F45FC181309105A10586
:102D5000B10549F4EB81FC81848180688483BB24C4
:102D60006894B1F876C18F3FFFEF9F07FFEFAF0781
:102D7000FFEFBF0761F4AB81BC8114968C9114976F
:102D8000806814968C931497BB24B39462C1EB8132
:102D9000FC81828B938BA48BB58BAB81BC812D91F5
:102DA0003C91F90186A597A5A0A9B1A9EB81FC8169
:102DB00046895789608D718D84179507A607B707D7
:102DC000A1F4C90140E050E0BA010E94D50988236E
:102DD00061F0AB81BC8114968C9114978068149635
:102DE0008C931497BB24B39434C1EB81FC81408055
:102DF00051804289538964897589C2010E94490EB4
:102E0000DC01CB010097A105B10569F4AB81BC8160
:102E100014968C911497806814968C931497BB2405
:102E20006894B1F816C16C017D01C10ED11CE11C82
:102E3000F11C3401672C772466946114710409F441
:102E40004FC0F2014281C301810F911D242F30E058
:102E50002817390720F4C9013C01611A7108D20111
:102E600011968C9169817A81A7019601062D0E94A5
:102E70008003882341F0EB81FC8184818068848316
:102E8000BB24B394E6C0AB81BC81ED91FC9186A5D7
:102E900097A5A0A9B1A98C199D09AE09BF09A301E5
:102EA00060E070E084179507A607B707A0F4BC019F
:102EB000762F6627770F29813A81620F731FCF0122
:102EC000C29640E052E00E940406AB81BC81ED91C5
:102ED000FC91119714826301DC2CCC24DD0C70C0B2
:102EE000EB81FC8186819781A085B18542855385E0
:102EF0006485758584179507A607B707E0F0C201BA
:102F000040E050E0BA010E94D509882361F0AB810E
:102F1000BC8114968C911497806814968C931497A6
:102F2000BB24B39496C0AB81BC81ED91FC91C6A645
:102F3000D7A6E0AAF1AAEB81FC81C68AD78AE08EE7
:102F4000F18EAB81BC811696CD90DD90ED90FC901A
:102F5000199756964D915D916D917C9159978D91F0
:102F60009C910E94D509882341F0EB81FC818481EA
:102F700080688483BB24B3946CC0C601917020E048
:102F800032E0281B390B64012815390508F4690162
:102F9000AB81BC8116968D919C91179791709C0185
:102FA0002E5C3F4F8D919C91820F931F69817A8196
:102FB000A6010E940406AB81BC81ED91FC91A48224
:102FC000E981FA81EC0DFD1DFA83E983A60160E039
:102FD00070E0EB81FC8186819781A085B185840FAB
:102FE000951FA61FB71F86839783A087B187D1013E
:102FF0008D919C9111978C0D9D1D11969C938E9394
:103000008C189D0809F04ECEEB81FC81868197815A
:10301000A085B18542855385648575854817590714
:103020006A077B0720F482879387A487B587AB81E3
:10303000BC8114968C911497806214968C9314978B
:1030400008C0BB246894B1F804C00F2EF7E0BF2E6F
:10305000F02D8B2D0F900F900F900F90DF91CF914F
:103060001F910F91FF90EF90DF90CF90BF90AF90A6
:103070009F908F907F906F905F904F903F902F9098
:1030800008950F931F93CF93DF93EC016A817B81A7
:10309000888199810E94A2068823C9F59C8195FFA9
:1030A00036C04A8D5B8D6C8D7D8D888199810E94A3
:1030B000D509882361F50E8D1F8DF8018385806207
:1030C00083878A859B85AC85BD85848F958FA68FE8
:1030D000B78F8E859F85938F828F8E859F85A889D8
:1030E000B989B58BA48B0E940006DC01CB01F801E5
:1030F000868B978BA08FB18F8C818F7D8C83E8819D
:10310000F98181E08483888199810E945B0ADF9143
:10311000CF911F910F910895CF93DF93EC010E94FF
:103120004118882311F419821882DF91CF910895F4
:10313000823020F48093880580E008958BE0089524
:103140000F931F93CF93DF93CDB7DEB7A4970FB63E
:10315000F894DEBF0FBECDBF9CA38BA3CE01839698
:10316000BE016F5F7F4F40E00E94FF068823C9F5D4
:10317000CE0147969E8B8D8B6BA17CA1CE010196D3
:103180000E94A710882351F5EB89FC89309759F4E8
:10319000E981FA814F81588569857A85468B578BFD
:1031A000608F718F1EC0938594FF26C0A981BA815C
:1031B0004489558960E070E0BA0155274427028DA3
:1031C000138D20E030E0402B512B622B732B569651
:1031D0004D935D936D937C93599703C0843009F4AC
:1031E00085E0A4960FB6F894DEBF0FBECDBFDF9189
:1031F000CF911F910F91089585E0F3CF2F923F92C9
:103200004F925F926F927F928F929F92AF92BF92F6
:10321000CF92DF92EF92FF921F93CF93DF9300D074
:1032200000D000D0CDB7DEB79E838D836A017B01CD
:10323000DC0112966D917C9113978D919C910E9467
:10324000A206182F882309F0A5C1ED81FE812481F3
:1032500022230CF49EC182859385A485B5858C15A7
:103260009D05AE05BF0520F421FD02C06C017D0166
:10327000AD81BE8116964D915D916D917C911997AE
:10328000FD011682178210861186C114D104E10453
:10329000F10409F47FC120803180D10112968C9114
:1032A00090E0A0E0B0E04C015D01072E79E0880CD1
:1032B000991CAA1CBB1C7A95D1F7702D411551059C
:1032C00061057105F1F12A013B010894410851089B
:1032D00061087108C701B60161507040804090409C
:1032E000A50194010E94922829833A834B835C8331
:1032F000C301B201A50194010E94922889819A819B
:10330000AB81BC8182179307A407B507D0F088274B
:103310009927DC0188199909AA09BB0984219521FB
:10332000A621B721ED81FE8186839783A087B1878F
:10333000C81AD90AEA0AFB0A42895389648975893D
:1033400042C0AD81BE811E964D915D916D917C9183
:103350005197411551056105710569F5C10140E0BD
:1033600050E0BA010E94A70CAB01BC0141305105ED
:103370006105710539F4ED81FE8184818068848363
:1033800012E008C14F3FFFEF5F07FFEF6F07FFEF4E
:103390007F0759F4AD81BE8114968C911497806893
:1033A00014968C93149711E0F5C0ED81FE81468749
:1033B0005787608B718BAD81BE8152964D935D9323
:1033C0006D937C935597411551056105710509F47D
:1033D000A8C08C149D04AE04BF0408F068C04D80E2
:1033E0005E80F201848181FF0CC0808191810E9406
:1033F000A70CAB01BC01411551056105710539F4FC
:1034000052C0808191810E94D10AAB01BC014F3F23
:10341000BFEF5B07BFEF6B07BFEF7B0741F45E8237
:103420004D82F20184818068848311E0B3C0423010
:1034300051056105710560F0D201ED91FC91828D1D
:10344000938DA48DB58D481759076A077B0740F007
:103450005E824D82F20184818068848312E09AC08A
:10346000D20152964D935D936D937C93559716962A
:103470008D919D910D90BC91A02D880D991DAA1D37
:10348000BB1DF20186839783A087B187C818D9082E
:10349000EA08FB088C149D04AE04BF0408F4A1CF15
:1034A0005E824D8204C05E824D8275016401ED81B1
:1034B000FE8186819781A085B1858C0D9D1DAE1DF5
:1034C000BF1D86839783A087B187D701C6019170FE
:1034D000A070B0700097A105B10539F1808191818C
:1034E0000E94490EDC01CB010097A105B10559F4FA
:1034F000AD81BE8114968C911497806814968C933C
:10350000149712E047C00B2EB9E0F694E794D794D5
:10351000C794BA95D1F7B02DC80ED91EEA1EFB1E6E
:1035200007C0CC24DD24760103C0CC24DD24760141
:10353000ED81FE8186819781A085B1859170A07013
:10354000B0700097A105B10569F086899789A08DB3
:10355000B18D8C159D05AE05BF0521F0C68AD78AB1
:10356000E08EF18EED81FE8186819781A085B18507
:103570004285538564857585481759076A077B0717
:1035800048F482879387A487B58784818062848387
:1035900001C012E0812F26960FB6F894DEBF0FBE51
:1035A000CDBFDF91CF911F91FF90EF90DF90CF9033
:1035B000BF90AF909F908F907F906F905F904F9053
:1035C0003F902F9008950F931F93CF93DF93CDB724
:1035D000DEB72E970FB6F894DEBF0FBECDBF8C01BD
:1035E0007E876D87CE010D96B80140E00E94FF06F0
:1035F000882309F041C0CE010196D80155969C93CD
:103600008E9354976D857E85C8010E94A7108823EC
:1036100069F5D8015296ED91FC9153973097B9F026
:10362000838584FF26C04489558960E070E0BA0133
:1036300055274427828D938DA0E0B0E0482B592B6D
:103640006A2B7B2BF8014683578360877187D801EB
:10365000ED91FC9111978681978113969C938E939F
:103660001297C80160E070E00E947F0E843019F06C
:1036700003C085E001C085E02E960FB6F894DEBF4A
:103680000FBECDBFDF91CF911F910F910895CF92C3
:10369000DF92EF92FF921F93CF93DF93CDB7DEB708
:1036A0002C970FB6F894DEBF0FBECDBF7C016B0127
:1036B000FC0162817381808191810E94A206182F92
:1036C000882381F5C114D10439F4C70160E070E0AA
:1036D0000E947F0E182F26C0CE010196F701958B10
:1036E000848BC7010E94C712843031F4F70116861B
:1036F0001786108A118A02C0882389F4C701B6018F
:103700000E944006C70160E070E00E94620F8430B2
:1037100041F4F70116861786108A118A03C0182F04
:1037200001C0182F812F2C960FB6F894DEBF0FBE64
:10373000CDBFDF91CF911F91FF90EF90DF90CF90A1
:103740000895EF92FF921F93CF93DF93CDB7DEB72B
:10375000A4970FB6F894DEBF0FBECDBF9CA38BA37A
:103760007B01CE018396BE016F5F7F4F40E00E94D8
:10377000FF06182F8823C1F4CE0147969E8B8D8BB0
:103780006BA17CA1CE0101960E94A710182F88235F
:1037900059F48B899C89009731F0CE010196B701CD
:1037A0000E94400601C016E0812FA4960FB6F8943F
:1037B000DEBF0FBECDBFDF91CF911F91FF90EF9085
:1037C00008952F923F924F925F926F927F928F92C5
:1037D0009F92AF92BF92CF92DF92EF92FF920F93A0
:1037E0001F93CF93DF9300D000D0CDB7DEB79A837D
:1037F00089837C836B833A01CE010196BA0140E054
:103800000E94FF06182F882309F0C9C0D301ED914B
:10381000FC9186859785A089B189C28CD38CE48C74
:10382000F58CB701A60142505040604070404817E7
:1038300059076A077B0738F0EB81FC81808391830D
:10384000A283B383ACC00081013009F03FC0CC2417
:10385000DD2476016894C1F8882499245401D301A9
:103860008D919C91B701A6010E94D10ADC01CB0188
:103870008F3FEFEF9E07EFEFAE07EFEFBE0709F4C4
:1038800074C081309105A105B10509F470C000979D
:10389000A105B10529F40894811C911CA11CB11C3F
:1038A0000894C11CD11CE11CF11CD301ED91FC91C9
:1038B000828D938DA48DB58DC816D906EA06FB06B8
:1038C00070F286869786A08AB18A63C022A033A050
:1038D00044A055A0E0E0F0E020E030E08824992406
:1038E000540121153105A9F4F30180819181B201C0
:1038F000A1010E94D5098823E1F50894211C311CFF
:10390000411C511CD301ED91FC911197F29620E0DE
:1039100032E0023069F480819181009729F40894A3
:10392000811C911CA11CB11C32962250304011C048
:1039300080819181A281B381BF700097A105B105FB
:1039400029F40894811C911CA11CB11C34962450AC
:1039500030400894C108D108E108F108C114D1042D
:10396000E104F10409F0BDCF05C011E003C012E08D
:1039700001C0182FD301ED91FC911197868697868F
:10398000A08AB18A033029F4ED91FC91119781E06E
:103990008583EB81FC8180829182A282B382812F18
:1039A0000F900F900F900F90DF91CF911F910F917B
:1039B000FF90EF90DF90CF90BF90AF909F908F904F
:1039C0007F906F905F904F903F902F900895CF928F
:1039D000DF92EF92FF920F931F93CF93DF93EC014F
:1039E0006A817B81888199810E94A206882309F0DF
:1039F00063C09C81992324F091FD67C087E05CC07F
:103A000082E05AC04A875B876C877D878C818062A1
:103A10008C83411551056105710569F44E855F85FB
:103A200068897989888199810E94C70D1E861F86C1
:103A3000188A198A3CC04A895B896C897D8988818A
:103A400099810E94D10A6B017C0181E0C816D104E2
:103A5000E104F10409F448C081E09FEFC9169FEF2B
:103A6000D9069FEFE9069FEFF90609F080E0882369
:103A700001F5E881F981428D538D648D758DC416F1
:103A8000D506E606F706C0F44A895B896C897D890C
:103A9000CF010FEF1FEF2FEF3FE00E94B80B8823FD
:103AA00041F488819981B701A6010E94C70D88233E
:103AB00019F09C8190689C83DF91CF911F910F91A9
:103AC000FF90EF90DF90CF9008954E815F816885E1
:103AD00079850A851B852C853D854017510762072E
:103AE000730708F48FCFE8CF82E0E3CFCF92DF9265
:103AF000EF92FF92CF93DF93CDB7DEB7EA970FB681
:103B0000F894DEBF0FBECDBF9AAF89AFCE01C99684
:103B1000BE016F5F7F4F41E00E94FF06882309F0DE
:103B200060C0CE018D969E8B8D8B69AD7AADCE0136
:103B300001960E94A710882309F053C0ED89FE89E1
:103B4000838585FF5BC086E04CC0238520FF5CC079
:103B500087E047C086E045C082E0C816D104E10492
:103B6000F10408F463C0CE014796BE016F5F7F4F3A
:103B700046E150E00E940406CD8EDE8EEF8EF8A264
:103B8000CE01479662E070E00E947F0E882349F5DF
:103B9000CE0147960E94C712882371F0EF89F88DF5
:103BA00046895789608D718D4C155D056E057F05C1
:103BB00029F08430E9F115C087E013C087E011C017
:103BC000C114D104E104F10441F089819A81B70163
:103BD000A6010E94C70D882321F489819A810E9441
:103BE0005B0AEA960FB6F894DEBF0FBECDBFDF9139
:103BF000CF91FF90EF90DF90CF900895EB89FC89F3
:103C0000309709F0A2CFA6CFC488D588EE24FF2430
:103C10007601DD24CC24828D938DA0E0B0E0C82A0B
:103C2000D92AEA2AFB2A24FD97CF02C082E0D9CF05
:103C3000CE0101960E94440F882311F2D2CF2F9219
:103C40003F924F925F927F928F929F92AF92BF92DC
:103C5000CF92DF92EF92FF920F931F93CF93DF9358
:103C6000CDB7DEB7AA970FB6F894DEBF0FBECDBFB3
:103C70009CA38BA30E9400066B017C01CE0183965E
:103C8000BE016F5F7F4F41E00E94FF06182F88231F
:103C900009F0E7C0CE0147969E8B8D8B6BA17CA16E
:103CA000CE0101960E94A710882349F0843041F488
:103CB000ED89FE89838585FFEDC086E001C088E03F
:103CC000182FCFC081E0281631044104510409F4B3
:103CD000F1C09FEF29169FEF39069FEF49069FEF2E
:103CE000590609F4E9C001C017E0112309F09AC090
:103CF00089819A8140E050E0BA010E94D509182FCD
:103D0000882309F08FC009811A81C801B201A1017D
:103D10000E94490E4B015C01F801F296FEA3EDA34F
:103D2000CF0160E070E040E052E00E9436068DA1D5
:103D30009EA160E270E04BE050E00E9436060F2E3C
:103D4000FEE27F2EF02DF80172AA80E185AFE85BDC
:103D5000FF4FC082D182E282F38238A62FA2F801FF
:103D6000E45BFF4F31822082C201AA27BB279AA7BA
:103D700089A7F801EA5BFF4F91838083C8018E5ABF
:103D80009F4F6DA17EA140E250E00E940406F80121
:103D9000ED5AFF4F70824F81588569857A85298158
:103DA0003A81F9018081833061F486A197A1A0A5B1
:103DB000B1A584179507A607B70719F440E050E0AE
:103DC000BA01F801E459FF4F51834083F801EA59E1
:103DD000FF4F71836083F9010281002309F46EC0F3
:103DE0007724739489819A81FC0186A697A6A0AA5C
:103DF000B1AA0894811C911CA11CB11C748240E0E2
:103E000050E0BA010E94D509182F882359F48DA1DA
:103E10009EA160E070E040E052E00E943606015052
:103E200009F74CC089819A81B201A1010E94C70D96
:103E300018C0EB89FC8980E18387C68AD78AE08E27
:103E4000F18E8FA198A5938F828F89A59AA5958BC6
:103E5000848B89819A8121E0FC0124830E945B0A82
:103E6000182F812FAA960FB6F894DEBF0FBECDBFD4
:103E7000DF91CF911F910F91FF90EF90DF90CF9046
:103E8000BF90AF909F908F907F905F904F903F90AA
:103E90002F90089589819A8140E050E0BA010E94F4
:103EA000A70C1B012C01611571058105910509F411
:103EB0001BCF08CF12E0B6CF11E0B4CFCE010196F0
:103EC0000E946B12182F882309F4B3CFABCF0F9346
:103ED0001F93CF93DF93CDB7DEB7A4970FB6F894B7
:103EE000DEBF0FBECDBF9CA38BA3062F142FCE0128
:103EF0008396BE016F5F7F4F41E00E94FF068823DB
:103F000029F5CE0147969E8B8D8B6BA17CA1CE01AE
:103F100001960E94A7108823C9F4ED89FE89838544
:103F200085FF1FC086E012C01772912F9095838580
:103F300089230123182F102B138789819A8121E06F
:103F4000FC0124830E945B0A01C086E0A4960FB6A0
:103F5000F894DEBF0FBECDBFDF91CF911F910F91BF
:103F60000895EB89FC893097F9F6EFCF0F931F93F3
:103F7000CF93DF93CDB7DEB7A4970FB6F894DEBF2B
:103F80000FBECDBF9CA38BA38B01CE018396BE0138
:103F90006F5F7F4F41E00E94FF06882349F5CE0105
:103FA00047969E8B8D8B6BA17CA1CE0101960E94C2
:103FB000A7108823E9F4ED89FE89838585FF23C056
:103FC00086E016C0D80116968D919C911797978B15
:103FD000868B14968D919C911597918F808F8981F6
:103FE0009A8121E0FC0124830E945B0A01C086E0E3
:103FF000A4960FB6F894DEBF0FBECDBFDF91CF9170
:104000001F910F910895EB89FC893097D9F6EFCF76
:10401000EF92FF920F931F93CF93DF93CDB7DEB74D
:10402000CF54D0400FB6F894DEBF0FBECDBF609620
:104030009FAF8EAF60978B01CE01825B9F4FBE0119
:104040006F5F7F4F41E00E94FF06882309F0B8C0F0
:1040500089819A81988F8F8BCE018E5B9F4F9E8B2B
:104060008D8B60966EAD7FAD6097CE0101960E94FC
:10407000A710882309F0A4C0ED89FE89838585FFF8
:10408000ADC086E09DC0655F7F4FCE018D9645E156
:1040900050E00E940406CE014796BE016F5F7F4F3D
:1040A00046E150E00E940406CE014796B8010E9406
:1040B000A710882309F481C0843009F081C0CE01A3
:1040C00047960E946B12882309F07AC009A51AA5A9
:1040D000C8010D96BE01615D7F4F43E150E00E9433
:1040E00004068DA58062F8018387E981FA8181E069
:1040F00084834F81588569857A858D8D9E8DAF8D9E
:10410000B8A1481759076A077B0709F44BC0F801A3
:10411000838584FF47C0EF88F88C828D938D448916
:104120005589842B952BAC0160E070E0C7010E949B
:10413000490EAB01BC01411551056105710509F43A
:1041400054C0C7010E94D509EF89F88D8823C1F5B5
:10415000DF01AD5ABF4F8C918E3221F580818330C3
:1041600069F44D8D5E8D6F8D78A186A197A1A0A574
:10417000B1A5481759076A077B0729F04D8D5E8D59
:104180006F8D78A103C040E050E0BA01DF01A4596F
:10419000BF4F4D935C93DF01AA59BF4F6D937C9342
:1041A00081E08483CE0101960E94440F882341F46C
:1041B00089819A810E945B0A03C088E001C084E083
:1041C000C15BDF4F0FB6F894DEBF0FBECDBFDF91EE
:1041D000CF911F910F91FF90EF9008956B897C898B
:1041E0006115710509F04FCFEACF82E0E9CF2F9238
:1041F0003F924F925F926F927F928F929F92BF9267
:10420000CF92DF92EF92FF920F931F93CF93DF93A2
:10421000CDB7DEB7A7970FB6F894DEBF0FBECDBF00
:10422000B82E162F6A0144244394481608F4DAC4C1
:10423000E82FF0E0EE0FFF1FEC57FA4F80809180DF
:104240008114910409F4D0C4D4011C920E945A0232
:1042500080FDCCC482FDCCC48B2D61E0AE014B5FF0
:104260005F4F0E94F303882309F0C4C48D819E81AF
:10427000AF81B88580389105A105B10508F4BCC4AB
:10428000113029F41A8A1B8A1C8A1D8A0EC00F2E2F
:10429000FFE34F2EF0E05F2EF0E06F2EF0E07F2E78
:1042A000F02D4A8A5B8A6C8A7D8A2C013D012A891D
:1042B0003B894C895D89421A530A640A750A4A8609
:1042C0005B866C867D864D825E826F827886C601B3
:1042D00001978C219D21009719F4C114D10471F527
:1042E0006A857B858C859D8520ED37E040E050E038
:1042F0000E94922869017A0130E0C31634E0D306A7
:1043000030E0E30630E0F30680F4E7ECF4E020E090
:1043100030E02F5F3F4F81919191A0E0B0E0C8164F
:10432000D906EA06FB06A8F302C020E030E0220F1F
:10433000331FF901E552FB4FC080D180C601892FA0
:1043400099278695009711F481E090E09BA38AA3BA
:104350002C01662477244E8E5F8E68A279A26A852E
:104360007B858C859D85A30192010E94922869011D
:104370007A01DA01C901863F2FE0920720E0A20707
:1043800020E0B20718F431E0398702C042E04987E3
:10439000863F5FEF950750E0A50750E0B50720F492
:1043A0008985833049F502C093E09987D701C6011A
:1043B000880F991FAA1FBB1F880F991FAA1FBB1F19
:1043C000895F9D4FAF4FBF4F2C013D01032E39E058
:1043D00076946794579447943A95D1F7302D1A8E76
:1043E0001B8E1C8E1D8E20E230E040E050E02E8BB4
:1043F0003F8B488F598F40C039853130A9F4D701A0
:10440000C601880F991FAA1FBB1F8C0D9D1DAE1DD5
:10441000BF1D0196A11DB11DB695A79597958795CE
:104420000396A11DB11D09C0D701C6010296A11DA9
:10443000B11D880F991FAA1FBB1F81509E4FAF4F00
:10444000BF4F2C013D01032E39E0769467945794B9
:1044500047943A95D1F7302D80E290E0A0E0B0E0AB
:104460008A8F9B8FAC8FBD8F21E030E040E050E021
:104470002E8B3F8B488F598F8E899F89A88DB98D40
:104480002A893B894C895D89820F931FA41FB51F20
:104490008E879F87A88BB98B8A8D9B8DAC8DBD8DA8
:1044A000840D951DA61DB71DCE84DF84E888F9888C
:1044B000C80ED91EEA1EFB1E8E8D9F8DA8A1B9A124
:1044C0008C0D9D1DAE1DBF1D2A853B854C855D85D0
:1044D000281739074A075B0708F490C38B2D63E060
:1044E000AE014F5F5F4F0E94F303882309F088C33A
:1044F00089819A81AB81BC818CA39DA3AEA3BFA30C
:104500000197A109B1098030E0E89E07E0E0AE071D
:10451000E0E0BE0708F076C3A7019601280F391F17
:104520004A1F5B1F8CA19DA1AEA1BFA1B095A09514
:10453000909581959F4FAF4FBF4F82239323A42324
:10454000B5238C199D09AE09BF0989839A83AB8372
:10455000BC833985333009F048C02E893F89488DA6
:10456000598D280F391F4A1F5B1F2E8B3F8B488F99
:10457000598F2E853F8548895989280F391F4A1F31
:104580005B1F2E873F87488B598BCD80DE80EF8065
:10459000F884D701C6012E893F89488D598D821B29
:1045A000930BA40BB50B84199509A609B709BC0197
:1045B000CD012A8D3B8D4C8D5D8D621B730B840B61
:1045C000950B2E8D3F8D48A159A10E9492282A87D4
:1045D0003B874C875D87263F8FEF380780E0480791
:1045E00080E0580708F410C33AC0480E591E6A1EEE
:1045F0007B1ECD80DE80EF80F884D701C6012E8936
:104600003F89488D598D821B930BA40BB50B8419E0
:104610009509A609B709BC01CD012A8D3B8D4C8DAA
:104620005D8D621B730B840B950B2E8D3F8D48A106
:1046300059A10E9492282A873B874C875D8739853C
:10464000323069F48A859B85AC85BD85863FEFE075
:104650009E07E0E0AE07E0E0BE0708F4D7C21130E5
:1046600009F49AC02A893B894C895D89C20ED31E00
:10467000E41EF51E0F2EF2E32F2E3324F02D280C0E
:10468000391CC10160E070E040E052E00E94360653
:10469000F401E051FE4F80E891E0A1E0B0E08083BA
:1046A0009183A283B38330E0C31634E0D3063BEF9B
:1046B000E30630E0F306F0F4C701B60121EC3EE377
:1046C00040E050E00E94922889019A01F401E950EB
:1046D000FE4F0083F401EA50FE4FD901C801B695A0
:1046E000A79597958795B695A795979587958F6385
:1046F000808307C0F401EA50FE4F8FEF9FEF918354
:104700008083F401EB50FE4F8EEF80834985433068
:10471000A1F08D819E81AF81B885803050E09507F2
:1047200051E0A50750E0B50710F484E001C086E031
:10473000F401EC50FE4F808305C0F401EC50FE4FB5
:104740008CE08083F401E850FE4F8FE390E0A0E01E
:10475000B0E080839183A283B383F401E450FE4FE1
:104760008D819E81AF81B88580839183A283B3833D
:10477000F401E05DFD4F85E59AEA918380838B2DFE
:10478000B10120E030E0A90101E00E94800388230C
:1047900009F03EC218EF01C010EF0F2EF2E32F2EEA
:1047A0003324F02D280C391CC10160E070E040E09A
:1047B00052E00E9436068BEE9EEFA0E9B0E0F401D5
:1047C00082AB93ABA4ABB5AB80E092E096AF85AF84
:1047D0002AA127AFE05CFF4F4E895F895183408358
:1047E000F401EE5BFF4F81E080835985533019F46B
:1047F000CC24DD2404C0CC24DD246894D1F8F40159
:10480000ED5BFF4FD182C0828D819E81AF81B885E3
:104810008030E0E09E07E1E0AE07E0E0BE0730F464
:10482000F401EB5BFF4F9183808307C0F401EE5AE4
:10483000FF4F80839183A283B383F401E95BFF4F31
:104840001083F401E65BFF4F8FE390E09183808358
:10485000F401E45BFF4F8FEF90E091838083F401DC
:10486000E25BFF4F2A893B894C895D892083318334
:10487000428353830E940006DC01CB0189839A8323
:10488000AB83BC8339853330D9F5F401EB58FF4F46
:1048900080839183A283B383F401EA5AFF4F40825D
:1048A000518262827382F401E25AFF4F82E090E00B
:1048B000A0E0B0E080839183A283B383F401EE593A
:1048C000FF4F81E090E091838083F401EC59FF4F2A
:1048D00086E090E091838083F401EE58FF4F80E8FA
:1048E0008083F401EC58FF4F89E28083C40187582C
:1048F0009F4F6DE974E043E150E00E9404061FC041
:10490000F401E75AFF4F80839183A283B383F401BC
:10491000E85BFF4F51824082F401EA5AFF4F80E882
:104920008083F401E85AFF4F89E28083C401835AEF
:104930009F4F61EB74E043E150E00E940406F401F4
:10494000E05DFD4F85E59AEA918380838B2DB1016F
:104950002A893B894C895D8901E00E948003882374
:1049600009F058C14985433081F52A893B894C8932
:104970005D892A5F3F4F4F4F5F4F8B2DB1010E94E2
:104980008003C10160E070E040E052E00E94360622
:10499000812F90E0A0E0B0E09F6FAF6FBF60898390
:1049A0009A83AB83BC83F40182AB93ABA4ABB5AB6E
:1049B0008FEF9FEFAFEFBFE086AB97ABA0AFB1AF8C
:1049C00082AF93AFA4AFB5AF24C0C10160E070E087
:1049D00040E052E00E943606412F50E060E070E077
:1049E000F985F13029F480E09FEFAFEFB0E004C02B
:1049F00080E09FEFAFEFBFEF842B952BA62BB72B5B
:104A000089839A83AB83BC83F40182AB93ABA4AB61
:104A1000B5AB8B2DB1012E853F854889598901E0C1
:104A20000E948003882309F0F7C02E853F854889BE
:104A300059892F5F3F4F4F4F5F4F2E873F87488BDE
:104A4000598BC10160E070E040E052E00E94360600
:104A500081E090E0A0E0B0E089839A83AB83BC83DF
:104A600022C08B2DB1012E853F854889598901E0EF
:104A70000E948003882309F0D1C08E859F85A88974
:104A8000B9890196A11DB11D8E879F87A88BB98B0F
:104A900089819A81AB81BC810196A11DB11D898359
:104AA0009A83AB83BC8389819A81AB81BC81841555
:104AB0009505A605B705A8F29985933039F4260126
:104AC000662477244A8E5B8E6C8E7D8E4A8C5B8C3E
:104AD0006C8C7D8C49825A826B827C820E851F850C
:104AE0002889398913C0680179010894C11CD11C37
:104AF000E11CF11C8B2DB101A901980101E00E947C
:104B00008003882309F08CC09701860189819A81EE
:104B1000AB81BC81AC01BD01415050406040704050
:104B200049835A836B837C830097A105B105D9F62D
:104B30002985233009F04BC0F401E05DFD4F85E588
:104B40009AEA9183808382E592E5A1E6B1E4F401DB
:104B500082AB93ABA4ABB5ABEA5EFD4F82E792E7C5
:104B6000A1E4B1E680839183A283B383F401E65E7E
:104B7000FD4F8A859B85AC85BD850197A109B1094B
:104B800080839183A283B383F401E25EFD4F8FEFB4
:104B90009FEFDC0180839183A283B3832A893B89C1
:104BA0004C895D892F5F3F4F4F4F5F4F8B2DB10178
:104BB00001E00E9480032A893B894C895D89295F35
:104BC0003F4F4F4F5F4F8B2DB1010E9480038B2DC4
:104BD00060E040E050E00E94F30391E0882309F593
:104BE00090E01FC09BE01DC09CE01BC093E019C07B
:104BF0009AE017C091E015C091E013C09EE011C08B
:104C000091E00FC09EE00DC09EE00BC09EE009C089
:104C100091E007C091E005C091E003C091E001C0C0
:104C200091E0892FA7960FB6F894DEBF0FBECDBFD7
:104C3000DF91CF911F910F91FF90EF90DF90CF9078
:104C4000BF909F908F907F906F905F904F903F901C
:104C50002F900895BC0180E00E94F712882351F440
:104C60000E945A0281FD08C080FD08C082FF08C072
:104C700084E0089581E0089582E0089583E0089536
:104C800080E008956F927F928F929F92AF92BF9231
:104C9000CF92DF92EF92FF920F931F93CF93DF9308
:104CA0000F92CDB7DEB7BC0185EC97E041E00E94E2
:104CB0001513882309F071C00F2EF5ECEF2EF7E0E5
:104CC000FF2EF02D0F2EF1ECCF2EF7E0DF2EF02D82
:104CD0000F2EF2EF8F2EF4E09F2EF02D0F2EF3E02B
:104CE000AF2EBB24F02DA80CB91C66247724C70175
:104CF000BE016F5F7F4F41E050E096010E94481473
:104D000089818436B1F4840103C00A151B0599F02A
:104D1000C701BE016F5F7F4F41E050E096010E94E6
:104D20004814F80181918F019981981771F39301CB
:104D300004C0930102C021E030E08091C10790914E
:104D4000C207009731F02115310589F204E010E027
:104D500002C004E010E00F2EF5ECEF2EF7E0FF2E7E
:104D6000F02D0F2EF1ECCF2EF7E0DF2EF02DC70146
:104D7000BE016F5F7F4F41E050E096010E944814F2
:104D800001501040A1F785EC97E065EE77E040E038
:104D900058E021EC37E00E9448140F90DF91CF914A
:104DA0001F910F91FF90EF90DF90CF90BF90AF9049
:104DB0009F908F907F906F900895CF92DF92EF92A7
:104DC000FF920F931F93CF93DF936B010E944226B4
:104DD0001092C4071092C307E0E8F0E08081816878
:104DE0008083E1E8F0E080818960808314BC85B530
:104DF000836085BDEEE6F0E08081826080838FE095
:104E000087BD16BCC5ECD7E005EE17E00F2EF1EC20
:104E1000EF2EF7E0FF2EF02D8091C3079091C4078D
:104E200028E080309207FCF08091C1079091C20782
:104E30000097C9F01092C4071092C307CE01B801C1
:104E400040E058E097010E9448148823B9F7809108
:104E5000C1079091C2070097F9F4EEE6F0E0808177
:104E60008D7F80831BC08091BD079091BE07009706
:104E700099F0C114D10481F4EEE6F0E080818D7FD9
:104E8000808386EF94E061E070E00E94DD2610925E
:104E9000BE071092BD0702C00000BECFDF91CF91C8
:104EA0001F910F91FF90EF90DF90CF90089511B870
:104EB00087EE84B98FEF87B91AB88BB183608BB94D
:104EC00087E08DB910BA789408951092BE071092B9
:104ED000BD071092C0071092BF078DB38DBBE9E6E6
:104EE000F0E080818F6080838DB383608DBB0895F7
:104EF0001F920F920FB60F9211242F933F934F934F
:104F00005F936F937F938F939F93AF93BF93EF9331
:104F1000FF938091BF079091C007009751F481E003
:104F200090E09093C0078093BF0781E095E00E94D6
:104F30008400FF91EF91BF91AF919F918F917F91ED
:104F40006F915F914F913F912F910F900FBE0F90F6
:104F50001F9018951F920F920FB60F9211242F9346
:104F60003F934F935F936F937F938F939F93AF93F1
:104F7000BF93EF93FF9389E195E00E9484008091B5
:104F8000BF079091C007009739F081E090E09093BF
:104F9000BE078093BD0714C081E090E09093C007E6
:104FA0008093BF078EE295E061E070E00E94DD260D
:104FB0001092C0071092BF071092BE071092BD0753
:104FC000FF91EF91BF91AF919F918F917F916F91E1
:104FD0005F914F913F912F910F900FBE0F901F90B7
:104FE00018951F920F920FB60F9211242F933F9393
:104FF0008F939F93EF93FF9316BC8091C30790917B
:10500000C407FC01EB51F84F208130E03093890058
:105010002093880001969093C4078093C307FF9163
:10502000EF919F918F913F912F910F900FBE0F9015
:105030001F901895E1E6F0E080E8808310820E94DE
:1050400057270E946B0089E395E00E9484008BE85B
:1050500095E00E942A26882329F00E94170181E00A
:1050600090E0089580E695E00E9484000E94652704
:1050700085E099EF0197F1F700C0000085E099EF16
:105080000197F1F700C0000085E099EF0197F1F773
:1050900000C0000085E099EF0197F1F700C0000023
:1050A00085E099EF0197F1F700C0000085E099EFE6
:1050B0000197F1F700C0000085E099EF0197F1F743
:1050C00000C0000085E099EF0197F1F700C00000F3
:1050D0001092C0071092BF0789EF90E00197F1F797
:1050E00000C00000F5CF629FD001739FF001829F46
:1050F000E00DF11D649FE00DF11D929FF00D839F67
:10510000F00D749FF00D659FF00D9927729FB00D03
:10511000E11DF91F639FB00DE11DF91FBD01CF0116
:1051200011240895A1E21A2EAA1BBB1BFD010DC07C
:10513000AA1FBB1FEE1FFF1FA217B307E407F50747
:1051400020F0A21BB30BE40BF50B661F771F881F23
:10515000991F1A9469F760957095809590959B01B9
:0C516000AC01BD01CF010895F894FFCF11
:10516C0068617264206572726F72206F636375720E
:10517C0072656420696E20746865206C6F77206C92
:10518C006576656C206469736B20492F4F206C61C8
:10519C007965720D0A00417373657274696F6E20C4
:1051AC006661696C65640D0A0054686520706879E5
:1051BC00736963616C2064726976652063616E6EDD
:1051CC006F7420776F726B0D0A00436F756C6420DF
:1051DC006E6F742066696E64207468652066696CF5
:1051EC00650D0A00436F756C64206E6F74206669E0
:1051FC006E642074686520706174680D0A005468D0
:10520C00652070617468206E616D6520666F726DCB
:10521C00617420697320696E76616C69640D0A0093
:10522C004163636573732064656E6965642064759E
:10523C006520746F2070726F686962697465642090
:10524C00616363657373206F722064697265637444
:10525C006F72792066756C6C0D0A0041636365731F
:10526C00732064656E6965642064756520746F20B5
:10527C0070726F68696269746564206163636573D9
:10528C00730D0A005468652066696C652F64697239
:10529C006563746F7279206F626A656374206973D9
:1052AC0020696E76616C69640D0A00546865207023
:1052BC006879736963616C206472697665206973BF
:1052CC002077726974652070726F7465637465649D
:1052DC000D0A00546865206C6F676963616C20640B
:1052EC0072697665206E756D6265722069732069CE
:1052FC006E76616C69640D0A0054686520766F6C7B
:10530C00756D6520686173206E6F20776F726B20EE
:10531C00617265610D0A00546865726520697320BD
:10532C006E6F2076616C69642046415420766F6CF8
:10533C00756D65206F6E207468652070687973696F
:10534C0063616C2064726976650D0A00546865208F
:10535C00665F6D6B667328292061626F7274656479
:10536C002064756520746F20616E792070617261A4
:10537C006D65746572206572726F720D0A00436FF1
:10538C00756C64206E6F7420676574206120677281
:10539C00616E7420746F206163636573732074682D
:1053AC006520766F6C756D652077697468696E2001
:1053BC00646566696E656420706572696F640D0A58
:1053CC0000546865206F7065726174696F6E206936
:1053DC00732072656A6563746564206163636F72C0
:1053EC0064696E6720746F207468652066696C65EB
:1053FC002073686172696E6720706F6C6963790DD8
:10540C000A004C464E20776F726B696E672062758E
:10541C006666657220636F756C64206E6F742062B3
:10542C006520616C6C6F63617465640D0A004E7568
:10543C006D626572206F66206F70656E2066696C98
:10544C006573203E205F46535F53484152450D0A19
:10545C0000556E6B6E6F776E205344204572726FE1
:10546C00720D0A004572726F72206D6F756E7469E1
:10547C006E6720534420636172640D0A004E6F20E6
:10548C00534420636172642064657465637465645D
:10549C000D0A00556E61626C6520746F20696E692F
:1054AC007469616C697A65204641542066696C6543
:1054BC0073797374656D0D0A0053442063617264D3
:1054CC002069732077726974652070726F746563DC
:1054DC007465640D0A00556E6B6E6F776E205344C5
:1054EC002063617264206572726F720D0A00012272
:1054FC002A2B2C3A3C3D3E3F5B5D7C7F004E4F207F
:10550C004E414D452020202046415433322020204E
:10551C00004E4F204E414D45202020204641542026
:10552C002020202000000400020001800040002008
:10553C000010000800040002000000008000400081
:10554C00200010000800400020001000080004009B
:10555C000264617461002F616C61726D2E776176EB
:10556C0000506C61796261636B20696E7465727254
:10557C007570742E2E2E0D0A00416C61726D2069AF
:10558C006E746572727570742E2E2E0D0A002F615A
:10559C006C61726D2E776176004D6F756E74696EED
:1055AC0067205344206361726420616E64206F70C5
:1055BC00656E696E672066696C652E2E2E0D0A006D
:1055CC0053442063617264206D6F756E7465640D55
:1055DC000A002F6D6573736167652E776176000025
:00000001FF
