:100000000C9446000C9450000C9450000C9450003A
:100010000C9450000C9450000C9450000C94500020
:100020000C9450000C9450000C9450000C94500010
:100030000C9450000C9450000C9450000C94500000
:100040000C9450000C9450000C9450000C945000F0
:100050000C9450000C9450000C9450000C945000E0
:100060000C9450000C9450000C9450000C945000D0
:100070000C9450000C9450000C9450000C945000C0
:100080000C9450000C9450000C94500011241FBE8E
:10009000CFEFD0E1DEBFCDBF0E9459000C949C0091
:1000A0000C94000087E087BB80E58DB981E08EB9B4
:1000B000089587E087BB80E58DB981E08EB98FEF29
:1000C00081BB12BA81E08FB9779BFECF929A92984A
:1000D000880F81608F3F71F12FEF31EE44E02150A6
:1000E00030404040E1F700C000002FEF31EE44E027
:1000F000215030404040E1F700C000002FEF31EECA
:1001000044E0215030404040E1F700C000002FEFB4
:1001100031EE44E0215030404040E1F700C00000A3
:100120002FEF31EE44E0215030404040E1F700C075
:0C0130000000C9CF81E0D0CFF894FFCFD1
:00000001FF
