:1000000012C02AC029C028C027C026C025C024C0CD
:100010002FC122C021C020C01FC01EC01DC01CC0D7
:100020001BC01AC019C011241FBECFEDCDBF10E0F8
:10003000A0E6B0E0E4EFF3E002C005900D92A23636
:10004000B107D9F710E0A2E6B0E001C01D92AD36CD
:10005000B107E1F789D1CCC1D3CF97B1907E97B9E1
:1000600097B18F71982B97B90895813011F43D9A0B
:1000700008953D98089596B1987F96B996B1877086
:10008000982B96B90895882329F0359A83B1887FF3
:1000900083B9089535980895339A0895339808954B
:1000A000379A089537980895369A0895349A08959E
:1000B00081E0349B80E0089597B19F7397B997B121
:1000C000807C982B97B9F0DFF3DF8823E9F3EEDF2C
:1000D0000895CF93C62FCFDF8C2FD5DFCF91089512
:1000E000BCDF81E0C2DFE0DFE3DF8823E9F3DEDFAE
:1000F00085B10895FF920F931F93CF93DF93F82E4E
:10010000062F662359F0C0E0D0E010E08F2DE8DF25
:10011000C80FD11D1F5F1017C9F702C0C0E0D0E0A3
:10012000602FCE0170E050D1862FDF91CF911F91CB
:100130000F91FF90089591DF80E097DFB5DFB8DF82
:100140008823E9F3B3DF84B195B10895FF920F934B
:100150001F93CF93DF93F82E062F662359F0C0E04C
:10016000D0E010E08F2DE7DFC80FD91F1F5F1017F9
:10017000C9F702C0C0E0D0E0602FCE0170E024D10A
:10018000862F972FDF91CF911F910F91FF900895A8
:10019000D99ADA980895D998DA9A0895D998DA9878
:1001A00008958130910519F4D99ADA980895D9986B
:1001B000DA9A08958130910521F48FEA8ABDEBDF48
:1001C00008958230910521F48FEA8ABDE1DF089518
:1001D0001ABCE4DF0895CF93C82F80E06DDF85E07F
:1001E0007FDF282F30E0C9018C1B9109CF91089542
:1001F000F2DF9C01225F3F4F2D31310520F480E07A
:1002000090E0D8DF08951816190624F481E090E0F4
:10021000D1DF089582E090E0CDDF0895FF920F9343
:100220001F93CF93DF93F82EEB01882389F020975B
:1002300079F000E010E08F2DDBDF89EF90E001978F
:10024000F1F700C000000F5F1F4F0C171D0799F753
:10025000DF91CF911F910F91FF9008958FEF8BBD8C
:1002600081E08FBD89E087BD86B58C7F86BD08950E
:100270001F920F920FB60F9211242F933F934F931B
:100280005F936F937F938F939F93AF93BF93EF93FE
:10029000FF939FB180916C00E6E6F0E0E80FF11D5E
:1002A0009083909162009FB990E49EB9813031F4BF
:1002B00080E802DF86E014DF8093650080916500AE
:1002C00080936200809166008093610080916C0051
:1002D0008F5F80936C00853021F489EA80936200FF
:1002E00004C0863011F410926C0081E090E090938D
:1002F000640080936300FF91EF91BF91AF919F9154
:100300008F917F916F915F914F913F912F910F90BE
:100310000FBE0F901F90189588E58DB980E48EB9B7
:1003200008950F931F93CF93DF93F894C0E0D0E02C
:1003300010E08C2F68EE73E071DF80E8BDDE86E0B0
:10034000CFDE181710F40C2F182F649681E0C430FC
:10035000D80779F7802F68EE73E060DF7894DF913B
:10036000CF911F910F91089587E08ABB8AE287BBE6
:1003700082E060E0AEDE94DE71DFCEDF789489EA61
:100380008FB91EBC80916300909164000097A9F022
:100390008091610090916000891779F08F3F11F48E
:1003A000C0DF07C0F8948091610068EE73E036DF2B
:1003B0007894809161008093600089EF90E00197CC
:1003C000F1F700C00000DECFAA1BBB1B51E107C044
:1003D000AA1FBB1FA617B70710F0A61BB70B881FD5
:1003E000991F5A95A9F780959095BC01CD01089564
:0403F000F894FFCFAF
:0203F400FFFF09
:00000001FF
