S012000067726170685F746573742E73726563E1
S11300000C9446000C945D000C945D000C945D000F
S11300100C945D000C945D000C945D000C945D00E8
S11300200C945D000C945D000C945D000C945D00D8
S11300300C945D000C945D000C945D000C945D00C8
S11300400C945D000C945D000C945D000C945D00B8
S11300500C945D000C945D000C945D000C945D00A8
S11300600C945D000C945D000C945D000C945D0098
S11300700C945D000C945D000C945D000C945D0088
S11300800C945D000C945D000C945D0011241FBE63
S1130090CFEFD0E1DEBFCDBF11E0A0E0B1E0EEE6EE
S11300A0F1E000E00BBF02C007900D92AA30B10747
S11300B0D9F70E945F000C94B5000C9400001F93C4
S11300C0CF93DF930E94AB0010E01930E0F0C8E05A
S11300D0D1E08A910E94B0008FEF94E3ACE08150AC
S11300E09040A040E1F700C000008FEF94E3ACE043
S11300F081509040A040E1F700C0000091E0C13081
S1130100D90739F710E0E12FF0E0E050FF4F80818C
S11301100E94B0008FEF94E3ACE081509040A04087
S1130120E1F700C000008FEF94E3ACE08150904011
S1130130A040E1F700C000001F5FC7CF87B387600E
S113014087BB80E58DB981E08EB908958FB9779B1F
S1130150FECF8FB10895889A90980E949E000895CA
S11101600E94A600909A90980895F894FFCFFC
S10D016E0080C0E0F0F8FCFEFF0082
S9030000FC
