:1000000012C02AC029C028C027C026C025C024C0CD
:10001000BFC022C021C020C01FC01EC01DC01CC048
:100020001BC01AC019C011241FBECFEDCDBF10E0F8
:10003000A0E6B0E0EAEDF5E002C005900D92A23630
:10004000B107D9F710E0A2E6B0E001C01D92A937D0
:10005000B107E1F71DD1BFC2D3CF97B1907E97B959
:1000600097B18F71982B97B90895813011F43D9A0B
:1000700008953D98089596B1987F96B996B1877086
:10008000982B96B90895882329F0359A83B1887FF3
:1000900083B9089535980895339A0895339808954B
:1000A000379A089537980895369A0895349A08959E
:1000B00081E0349B80E0089597B19F7397B997B121
:1000C000807C982B97B9F0DFF3DF8823E9F3EEDF2C
:1000D0000895CF93C62FCFDF8C2FD5DFCF91089512
:1000E000BCDF81E0C2DFE0DFE3DF8823E9F3DEDFAE
:1000F00085B10895FF920F931F93CF93DF93F82E4E
:10010000062F662359F0C0E0D0E010E08F2DE8DF25
:10011000C80FD11D1F5F1017C9F702C0C0E0D0E0A3
:10012000602FCE0170E043D2862FDF91CF911F91D7
:100130000F91FF90089591DF80E097DFB5DFB8DF82
:100140008823E9F3B3DF84B195B10895FF920F934B
:100150001F93CF93DF93F82E062F662359F0C0E04C
:10016000D0E010E08F2DE7DFC80FD91F1F5F1017F9
:10017000C9F702C0C0E0D0E0602FCE0170E017D216
:10018000862F972FDF91CF911F910F91FF900895A8
:100190001F920F920FB60F9211242F933F934F93FC
:1001A0005F936F937F938F939F93AF93BF93EF93DF
:1001B000FF939FB180916C00E6E6F0E0E80FF11D3F
:1001C0009083909162009FB990E49EB9813031F4A0
:1001D00080E872DF86E084DF8093650080916500AF
:1001E00080936200809166008093610080916C0032
:1001F0008F5F80936C00853021F489EA80936200E0
:1002000004C0863011F410926C0081E090E090936D
:10021000640080936300FF91EF91BF91AF919F9134
:100220008F917F916F915F914F913F912F910F909F
:100230000FBE0F901F90189588E58DB980E48EB998
:100240000895EF92FF921F93CF93DF93F894C0E04D
:10025000D0E0EE24FF2410E08C2F68EE73E081D113
:1002600080E82ADF86E03CDF181710F47E01182FA3
:10027000649681E0C430D80779F78E2D68EE73E07C
:1002800070D17894DF91CF911F91FF90EF900895F6
:1002900087E08ABB8AE287BB82E060E01ADF00DF8A
:1002A00086E062E02FD08BE390E061E04BE350E02A
:1002B00022E04AD000D1C0DF789489EA8FB91EBC11
:1002C00080916300909164000097A9F08091610093
:1002D00090916000891779F08F3F11F4B2DF07C069
:1002E000F8948091610068EE73E03BD1789480913E
:1002F00061008093600089EF90E00197F1F700C002
:100300000000DECFCF93C62F9FEF9BBD6FE470E060
:100310004FE045D11EBCC0FF03C082E880BF1DBCBA
:10032000C1FF03C089E087BD1ABCCF9108959093A7
:10033000770080937600509375004093740060932B
:10034000700020937800089590936E0080936D0064
:10035000509372004093710060936F00209373007C
:1003600008958DBD08958ABD0895E0917600F091BD
:10037000770081E090E09C010090700002C0220FA5
:10038000331F0A94E2F73081232B2083E09174001D
:10039000F09175000090780002C0880F991F0A94B0
:1003A000E2F780959081892380830895E09176001B
:1003B000F091770081E090E09C010090700002C015
:1003C000220F331F0A94E2F72095308123232083E4
:1003D000E0917400F09175000090780002C0880FE1
:1003E000991F0A94E2F79081892B80830895E09108
:1003F0007600F091770081E090E09C010090700021
:1004000002C0220F331F0A94E2F720953081232384
:100410002083E0917400F09175000090780002C094
:10042000880F991F0A94E2F7809590818923808331
:100430000895E0916D00F0916E0081E090E09C01E4
:1004400000906F0002C0220F331F0A94E2F7308140
:10045000232B2083E0917100F091720000907300D3
:1004600002C0880F991F0A94E2F780959081892332
:1004700080830895E0916D00F0916E0081E090E03E
:100480009C0100906F0002C0220F331F0A94E2F714
:100490002095308123232083E0917100F091720038
:1004A0000090730002C0880F991F0A94E2F79081B0
:1004B000892B80830895E0916D00F0916E0081E0BA
:1004C00090E09C0100906F0002C0220F331F0A943D
:1004D000E2F72095308123232083E0917100F09191
:1004E00072000090730002C0880F991F0A94E2F70F
:1004F000809590818923808308958130910521F42E
:100500008FEA8ABD96DF08958230910521F48FEA43
:100510008ABDB0DF08951ABCCEDF0895CF93C82FEF
:1005200080E0CADD85E0DCDD282F30E0C9018C1BCE
:100530009109CF910895F2DF9C01225F3F4F2D3149
:10054000310520F480E090E0D8DF089518161906F0
:1005500024F481E090E0D1DF089582E090E0CDDFE7
:100560000895FF920F931F93CF93DF93F82EEB0123
:10057000209779F000E010E08F2DDDDF89EF90E02B
:100580000197F1F700C000000F5F1F4F0C171D0708
:1005900099F7DF91CF911F910F91FF900895FB0183
:1005A0008423409590814923482B40830895AA1BBA
:1005B000BB1B51E107C0AA1FBB1FA617B70710F04E
:1005C000A61BB70B881F991F5A95A9F78095909580
:0A05D000BC01CD010895F894FFCF9F
:0205DA00FFFF21
:00000001FF
