S00C00006C6162332E73726563B6
S11300000C9446000C9465000C9465000C946500F7
S11300100C9465000C9465000C9465000C946500C8
S11300200C9465000C9465000C9465000C946500B8
S11300300C9459020C9465000C9465000C946500B2
S11300400C94C0000C9465000C9465000C9465003D
S11300500C9465000C9465000C9465000C94650088
S11300600C9465000C9465000C9465000C94650078
S11300700C9465000C9465000C9465000C94650068
S11300800C9465000C9465000C94650011241FBE4B
S1130090CFEFD0E1DEBFCDBF11E0A0E0B1E0E0ECF6
S11300A0F5E000E00BBF02C007900D92A032B1074B
S11300B0D9F711E0A0E2B1E001C01D92A433B10769
S11300C0E1F70E94F7000C94DE020C94000087B75D
S11300D0816087BF83B7856083BF0895FC018091E9
S11300E033018330B9F09081923041F1A091330112
S11300F0A33090F080E09130B9F021812130A1F05B
S1130100992301F590E06817790710F460507C4F4B
S1130110681B790BCB010895BB27A7FDB095AF5E93
S1130120BE4F8C91913049F7680F711D84E06030A7
S1130130780780F36F5F7340CB010895818182302B
S1130140A9F6E8CF222331F7DDCFDF93CF930F92C7
S1130150CDB7DEB7282F332727FD309520FF02C007
S113016081E0682721FF02C082E06827862F698327
S11301700E9454026981862F0F90CF91DF910895D8
S11301801F920F920FB60F920BB60F9211242F935A
S11301903F934F935F936F937F938F939F93AF930B
S11301A0BF93EF93FF930E94E70189B30E9410026B
S11301B0809330010E9447018091300160913301A6
S11301C00E94A50080933301FF91EF91BF91AF91FD
S11301D09F918F917F916F915F914F913F912F915B
S11301E00F900BBE0F900FBE0F901F901895CF92DB
S11301F0DF92EF92FF920F931F93DF93CF93CDB7CC
S1130200DEB729970FB6F894DEBF0FBECDBF80EFDF
S113021087BB11BA0FEF02BB85E0C82ED12CCC0EE0
S1130220DD1EC6010E944F010093300187B7816033
S113023087BF83B7856083BF0E9447010E944F0236
S113024080E00E9454020E94C0027E010894E11CD6
S1130250F11CC7010E94690210923301789400E0F6
S113026010E087EC90E00197F1F700C000000E94D5
S11302706302682FC7010E949102C701B8010E945E
S11302806E008C01C601B8010E94B501EACFC49882
S113029088B3806688BB8FEF8ABB8BBB0895FC0153
S11302A010821182128213821482089508950F938A
S11302B01F93CF93DF93FC019B01CAE0D0E0CB01F5
S11302C0BE010E94CA02808304E610E0C901B8019D
S11302D00E94CA02BE010E94CA02462F6183C9015C
S11302E068EE73E00E94CA02262FB8010E94CA0277
S11302F062832383222341F48AE08383662321F4E7
S11303008283442309F48183DF91CF911F910F915C
S113031008958230C9F0833028F08330D1F08430DE
S113032071F00895882339F08130D9F788B38F7933
S113033088BBC49A089588B38F7888BB089588B31E
S11303408F7C88BBC69A089588B38F7A88BBC59A78
S11303500895C69888B3806388BB0895E4E1F1E00A
S1130360E80FF11D80818BBB08951F93CF93DF931A
S1130370EC010E9457011FEF1BBB8C810E94890175
S11303808C818230F9F0833068F08330F1F084306E
S1130390B9F08F5F8C83853008F01C82DF91CF9198
S11303A01F910895882351F0813099F7E981F0E095
S11303B0EC5EFE4F80818BBB8C81EBCFE881F7CF65
S11303C0EB81F5CF1BBB8C81E4CFEA81F0CFC498DD
S11303D088B3806688BB1ABA8FEF8BBB85E38A9596
S11303E0F1F7000088B3806788BB0895FC0189B3E6
S11303F020813181220F331F306E90E002C0959529
S113040087956A95E2F781709070282B392B318398
S1130410208381E090EF2030390709F080E00895CF
S1130420E0E2F1E060E070E080E0A1E0B0E005C06F
S11304306F5F7F4F6830710521F149B320813181AD
S1130440220F331F306E50E0062E02C0559547959B
S11304500A94E2F741705070242B352B2193319389
S113046040EF2030340721F79D01062E02C0220FF1
S1130470331F0A94E2F7822B6F5F7F4F6830710558
S1130480E1F6089587B3876087BB80E58DB981E085
S11304908EB908958FB9779BFECF8FB10895889A4E
S11304A090980E94420208950E944A02909A90985D
S11304B008951F920F920FB60F9211240F900FBE42
S11304C00F901F9018951E981E9A80E00E944A0271
S11304D00895CF93DF93EC0182E0888389830E949F
S11304E06302982F93709A83992787FD90958C7057
S11304F0907095958795959587958B83DF91CF918E
S11305000895861721F0882321F4613041F082E0B8
S113051008958130E1F76623D1F781E0089580E002
S11305200895FC01862F83709281891721F0882316
S1130530E9F4913009F192E0908370E06C7070708E
S113054075956795759567959381691731F066235D
S113055049F0613011F4992389F092E09183828308
S1130560638308959130C9F790E0F8CF813019F78B
S1130570992309F791E0E0CF90E0DECF91E0EECF50
S1130580169A1E9A0E944202089508951E981E9A71
S113059080E00895AA1BBB1B51E107C0AA1FBB1F23
S11305A0A617B70710F0A61BB70B881F991F5A95FB
S11305B0A9F780959095BC01CD010895F894FFCFDB
S11305C00080C0E0F0F8FCFEFF01020408102040A7
S11305D080010204C0F9A4B0999283F88098FF00C6
S9030000FC
