:020000020000FC
:0200000045C0F9
:0200040089C0B1
:0200140081C0A9
:020030008AC084
:10008C000FEF0DBF00E10EBFCBD00FEF07BB00E0B1
:10009C0002B901BB0FEF03B902BB10B31095012FCE
:1000AC000078D9F301E00093980000EA00939900DE
:1000BC000EE000939D0008E000939A0005E00EBD51
:1000CC000DE30BBD09E00ABD00270DBD0CBD00E121
:1000DC0007BF02E000933A000AE000936A0001E1D6
:1000EC0009BF33248CE357D074D0D9D0789403E76C
:1000FC0004D03324032D01D0FFCF0F9300919B002C
:10010C0005FFFCCF0F9100939C0008953394032DB1
:10011C0060D0C8E1D1E0A0E3B1E0222719D10D9164
:10012C0009932A95E1F7BBD003E7E7DF032DE5DF61
:10013C0019E122D00FEF08BF1895803009F41895FB
:10014C008A95803019F400E009BF07BFCED0082F84
:10015C0022D0CBE0D1E0A0E3B1E02227F9D00D9181
:10016C0009932A95E1F79BD004E7C7DF082FC5DF79
:10017C0000270DBD0CBD18951F932F933F9330EEA8
:10018C002DEE2A95F1F73A95D9F71A95C1F73F91CB
:10019C002F911F9108950F937F93ECE0F2E0A5D07F
:1001AC00C0E0D1E070E1059109937A95E1F77F9178
:1001BC000F9108950F937F93ECE1F2E096D0C0E09D
:1001CC00D1E070E1059109937A95E1F77F910F9158
:1001DC0008950F937F93ECEFF1E097D0C0E1D1E05D
:1001EC0070E1059109937A95E1F77F910F9108954C
:1001FC0053636F72653A202030202020202020206D
:10020C0054696D65204C6566743A202020202020AE
:10021C0047616D65204F76657221202020202020BB
:10022C000F930FB70F931F9300E008BB0FEF07BBA3
:10023C0000E002BB00E001BB00E00093620008E0BC
:10024C000093610000E50DB901E00EB900E805BFAF
:10025C0002E400936D0000E800936C0000E00BB921
:10026C0008E10AB906E00093950000E000939000C5
:10027C0007E609B906E01AEFBFD00A95E1F708E3E3
:10028C0097D008E095D001E093D006E091D00CE037
:10029C008FD028D01F910F910FBF0F91089502D0CE
:1002AC0011D008950F93EF93FF932F933F93E0E0BA
:1002BC00F1E030E86BD076D03F912F91FF91EF9128
:1002CC000F9108950F93EF93FF932F933F93E0E1DA
:1002DC00F1E030EC5BD066D03F912F91FF91EF9124
:1002EC000F91089502D011D008950F933F932F933F
:1002FC00EF93FF9330E84AD0E0E0F1E04CD0FF916F
:10030C00EF912F913F910F9108950F933F932F935E
:10031C00EF93FF9330EC3AD0E0E1F1E03CD0FF9169
:10032C00EF912F913F910F9108950F933F932F933E
:10033C00283250F4313011F430E803C0323021F45B
:10034C0030EC320F23D042D02F913F910F91089572
:10035C000F936F935F93BF93AF93043618F023E022
:10036C00139607C00A3018F022E0129602C01196BC
:10037C0021E04AD000E3060F0E93052F0030C9F799
:10038C00AF91BF915F916F910F9108950F93032FD0
:10039C000FD00F91089500E220E1019317D02A9518
:1003AC00E1F7089520E1019111D02A95E1F7089524
:1003BC004F931F9340E013D00F9302E01DEC1CD021
:1003CC000A95E1F70F911F914F9108954F931F9349
:1003DC0041E005D010E110D01F914F9108954FB915
:1003EC0012E00AD00FB912E007D018E010936200A7
:1003FC0010E01093620008950F9309E40A95F1F749
:10040C001A95D9F70F9108950F92502F569556952E
:10041C00500F5695500F569556955695500F56951C
:10042C00500F569556955695500F5695500F56950C
:10043C00569556955695652F660F660F650F660F88
:10044C00062E602F60196A3018F053956A50FBCF56
:04045C000F90089560
:00000001FF
