:020000020000FC
:0200000045C0F9
:02001400AAC080
:020018009BC08B
:0200780037C08F
:10008C000FEF0DBF00E10EBF0FEF07BB00E002B991
:10009C000FEF03B90FEF0093610000E000936200D3
:1000AC0000EA0093990001E0009398000EE00093A1
:1000BC009D0008E900939A000AE000933A0000E3DF
:1000CC0009BF789420E628BBFFCF0F9300919B00CB
:1000DC0005FFFCCF0F9100939C00089500919C00AC
:1000EC00513089F00F3611F451E00CC0083F51F437
:1000FC0006B30F9300E908BB14E63ED014E63CD0DF
:10010C000F9108BB1895003B19F420E628BB18C0CA
:10011C00003819F420E028BB13C0003919F420E290
:10012C0028BB0EC0003A19F420E428BB09C0083CD7
:10013C0019F420E928BB04C0083F11F400E9C5DF1D
:10014C0055271895F6B200E008BB14E615D000E26E
:10015C0008BB14E611D0F8BA0FEF08BF1895F8B227
:10016C0000E008BB14E608D000E408BB14E604D099
:10017C00F8BA0FEF08BF18951F932F933F9330EEEB
:10018C002DEE2A95F1F73A95D9F71A95C1F73F91CB
:06019C002F911F91089550
:00000001FF
