:100000000C9408010C9427010C9427010C942701EF
:100010000C9427010C9427010C9427010C942701C0
:100020000C9427010C9427010C9427010C942701B0
:100030000C9427010C9427010C9427010C942701A0
:100040000C9427010C9427010C9427010C94270190
:100050000C9427010C9427010C9427010C94270180
:100060000C9427010C9427010C9427010C94270170
:100070000C9427010C9427010C9427010C94270160
:100080000C9427010C9427010C9427010763423636
:10009000B79BD8A71A39685618AEBAAB558C1D3C19
:1000A000B7CC5763BD6DEDFD753EF6177231BF00DD
:1000B0000000803F08000000BE922449123EABAA17
:1000C000AA2ABECDCCCC4C3E00000080BEABAAAA72
:1000D000AA3E00000000BF000000803F00000000BA
:1000E00000084178D3BB4387D1133D190E3CC3BDF3
:1000F0004282AD2B3E68EC8276BED98FE1A93E4CA0
:1001000080EFFFBE01C4FF7F3F00000000006E6172
:100110006E00696E660000407A10F35A00A0724EBD
:1001200018090010A5D4E80000E87648170000E49C
:100130000B54020000CA9A3B000000E1F5050000E4
:1001400080969800000040420F000000A086010049
:100150000000102700000000E80300000000640019
:10016000000000000A000000000001000000000084
:100170002C76D888DC674F0823DFC1DFAE59E1B1A8
:10018000B796E5E3E453C63AE651997696E8E6C2B7
:100190008426EB898C9B62ED407C6FFCEFBC9C9FBE
:1001A00040F2BAA56FA5F490055A2AF75C936B6CE0
:1001B000F9676DC11BFCE0E40D47FEF520E6B500D4
:1001C000D0ED902E0300943577050080841E080042
:1001D00000204E0A000000C80C333333330F986EF2
:1001E00012831141EF8D2114893BE65516CFFEE6AF
:1001F000DB18D1844B381BF77C1D901DA4BBE42475
:10020000203284725E228100C9F124ECA1E53D27F1
:1002100011241FBECFEFD0E1DEBFCDBF11E0A0E0C3
:10022000B1E0EAE3FCE100E00BBF02C007900D92F1
:10023000A83BB107D9F711E0A8EBB1E001C01D92CE
:10024000AA3BB107E1F70E946E040C941B0E0C94BC
:100250000000E2E6F0E088E08083108208951FB895
:100260008AE08A95F1F700C081E08FB99AE09A950B
:10027000F1F700C00E9429018FEA9DE10197F1F793
:1002800000C0000008951FB88AE08A95F1F700C009
:1002900082E08FB99AE09A95F1F700C00E94290197
:1002A0008FEA9DE10197F1F700C0000008951FB8A3
:1002B0008AE08A95F1F700C080EC8FB99AE09A95B0
:1002C000F1F700C00E9429018FEA9DE10197F1F743
:1002D00000C00000089591E09FB99AE09A95F1F767
:1002E00000C08FB98AE08A95F1F700C00E94290109
:1002F0008FE792E00197F1F700C000000895FF92A8
:100300000F931F93CF93DF938C0180E090E0C0E0C8
:10031000D0E0FF24F394FFB82AE02A95F1F700C05B
:10032000800F911FFC0180818FB9FAE0FA95F1F7F7
:1003300000C00E9429018FE792E00197F1F700C009
:1003400000002196CE01E02FF12FDF010D9000205B
:10035000E9F7AE1BBF0B1297AC17BD07E0F6DF91B4
:10036000CF911F910F91FF90089588E080936100D5
:1003700018BA87E087BB80E58DB981E08EB9089512
:100380001F93CF93DF938FE59AEE0197F1F700C0AB
:100390000000C3E0D0E010E31FB89AE09A95F1F7AF
:1003A00000C01FB98AE08A95F1F700C00E942901B8
:1003B0008FE49FE50197F1F700C00000219761F7F6
:1003C0001FB89AE09A95F1F700C088E38FB98AE0E8
:1003D0008A95F1F700C00E9429018FE090E401970F
:1003E000F1F700C000001FB89AE09A95F1F700C03D
:1003F00088E08FB98AE08A95F1F700C00E94290150
:100400008FE090E40197F1F700C000001FB89AE078
:100410009A95F1F700C081E08FB98AE08A95F1F7EB
:1004200000C00E9429018FE090E40197F1F700C01D
:1004300000001FB89AE09A95F1F700C086E08FB9E6
:100440008AE08A95F1F700C00E9429018FE090E4CC
:100450000197F1F700C000001FB89AE09A95F1F7F4
:1004600000C08EE08FB98AE08A95F1F700C00E9443
:1004700029018FE090E40197F1F700C00000DF91BF
:10048000CF911F910895AF92BF92DF92EF92FF92AA
:100490000F931F93CF93DF93FF24C0E0D0E0A82EEB
:1004A000BB24C5010C2E02C0959587950A94E2F7EE
:1004B00080FF28C0BE01882777FD8095982F0E9475
:1004C0003C069B01AC0160E070E080E090E40E949B
:1004D0002F07062F172FE82ED92E6F2D70E080E002
:1004E00090E00E943C062E2D3D2DA90198010E940E
:1004F0004205462F572F682F792FCB01BA010E9452
:100500000E06F62E2196C830D10559F68F2D90E0B3
:10051000DF91CF911F910F91FF90EF90DF90BF90EF
:10052000AF90089587E886B90E94B5010E94C00186
:100530000E942F010895E2E6F0E0908141E050E052
:100540009A01082E02C0220F331F0A94E2F7209569
:10055000292320838F71806487B9369A3699FECF1C
:1005600008950E949B02369A3699FECF84B195B1C8
:10057000392F20E090E0822B932B08950E94B10246
:100580009093B9018093B801BC0180E090E00E9493
:100590003A0620E030E040E85AE30E94CC0629E227
:1005A0003CE54FE950E40E94CC06462F572F682FB8
:1005B000792FCB01BA0108952F923F924F925F920B
:1005C0006F927F928F929F92AF92BF92CF92DF9263
:1005D000EF92FF920F931F93CF93DF93CDB7DEB7C8
:1005E00060970FB6F894DEBF0FBECDBF6F837887DC
:1005F00089879A875A8349831801CB86DC86ED86E2
:10060000FE86FA01EE0FFF1FEE0FFF1FAF01420F34
:10061000531FDA018D919D910D90BC91A02D8B837C
:100620009C83AD83BE83101611060CF04BC02901CC
:10063000CC24DD2410E000E00F2EF0E87F2EF02D1A
:100640000F2EFFE36F2EF02DD88ACF86F201C190D6
:10065000D190E190F1902F012F85388989819A817D
:100660002817390731F16F81788589859A85A70127
:1006700096010E9441054B015C016B817C818D815B
:100680009E81A70196010E9441059B01AC01C50115
:10069000B4010E94A6059B01AC01812F902FA72DCC
:1006A000B62DBC01CD010E94CC06162F072F782E47
:1006B000692EAF85B8891196B88BAF87A215B3059F
:1006C00029F60AC010E000E00F2EF0E87F2EF02D92
:1006D0000F2EFFE36F2EF02D812F902FA72DB62D1B
:1006E000BC01CD012B853C854D855E850E94CC06E5
:1006F000462F572F682F792FCB01BA0160960FB67E
:10070000F894DEBF0FBECDBFDF91CF911F910F9147
:10071000FF90EF90DF90CF90BF90AF909F908F9021
:100720007F906F905F904F903F902F9008952F9201
:100730003F924F925F926F927F928F929F92AF9271
:10074000BF92CF92DF92EF92FF920F931F93CF93BE
:10075000DF9300D000D000D0CDB7DEB769837A83B5
:100760008B839C833A011901141615067CF5402EE3
:10077000512E1E821D82BB24AA2499248824F201B2
:10078000C190D190E190F1902F0169817A818B81A4
:100790009C814D815E81910183010E94DC029B015D
:1007A000AC018B2D9A2DA92DB82DBC01CD010E9435
:1007B0004205B62EA72E982E892E8D819E810196F8
:1007C0009E838D8386159705D1F604C0BB24AA2489
:1007D000992488248B2D9A2DA92DB82DBC01CD01EB
:1007E00026960FB6F894DEBF0FBECDBFDF91CF9136
:1007F0001F910F91FF90EF90DF90CF90BF90AF903F
:100800009F908F907F906F905F904F903F902F9030
:100810000895CF92DF92EF92FF920F931F93CF93A1
:10082000DF93EC010E94BE02209709F546E050E0FC
:100830002FE931E007E811E00E9497036B017C018A
:100840006091B8017091B90180E090E00E943A0691
:1008500045E050E02BE431E007E311E00E9497030C
:100860009B01AC01C701B6010E94410526C045E0CD
:1008700050E023E731E00FE511E00E9497036B01A0
:100880007C016091B8017091B90180E090E00E9414
:100890003A0645E050E023E231E00FE011E00E942B
:1008A00097039B01AC01C701B6010E9441052AE9EB
:1008B00039E949E15EE30E944205382F292F862F4E
:1008C000972FA32FB22FBC01CD01DF91CF911F91A4
:1008D0000F91FF90EF90DF90CF900895CF93DF932B
:1008E000CDB7DEB761970FB6F894DEBF0FBECDBFB0
:1008F0000E94920299248824772466245524442453
:10090000332422245E010894A11CB11CC50160E2BD
:1009100070E041E150E00E94500D80E090E00E94C4
:100920000904F62EE72ED82EC92E852D942DA32D41
:10093000B22DBC01CD010F2D1E2D2D2D3C2DA90159
:1009400098010E9441059F772DEC3CEC4CEC5DE357
:100950000E94C8061816B4F50E9443018DB79EB7D1
:1009600008970FB6F8949EBF0FBE8DBFEDB7FEB7C8
:100970003196ADB7BEB71296BC92AE92119780E099
:1009800091E093838283802F912FAD2DBC2D8483A2
:100990009583A683B7830E948E0DF501E80FF91F9A
:1009A00090E29083198AADB7BEB718960FB6F89447
:1009B000BEBF0FBEADBFC5010E947F015F2C4E2C94
:1009C0003D2C2C2C81E090E00E940904F62EE72EAD
:1009D000D82EC92E892D982DA72DB62DBC01CD015D
:1009E0000F2D1E2D2D2D3C2DA90198010E94410592
:1009F0009F772DEC3CEC4CEC5DE30E94C80618168A
:100A0000B4F50E9457018DB79EB708970FB6F894BA
:100A10009EBF0FBE8DBFEDB7FEB73196ADB7BEB767
:100A20001296BC92AE92119788E091E093838283F4
:100A3000802F912FAD2DBC2D84839583A683B78302
:100A40000E948E0DF501E80FF91F90E29083198A3C
:100A5000ADB7BEB718960FB6F894BEBF0FBEADBF08
:100A6000C5010E947F019F2C8E2C7D2C6C2C8FEF5A
:100A700091EEA4E081509040A040E1F700C000005A
:100A800045CF5058BB27AA270ED048C139D130F0E6
:100A90003ED120F031F49F3F11F41EF42EC10EF42C
:100AA000E095E7FB24C1E92F4AD180F3BA1762072A
:100AB00073078407950718F071F49EF562C10EF470
:100AC000E0950B2EBA2FA02D0B01B90190010C015E
:100AD000CA01A0011124FF27591B99F0593F50F476
:100AE000503E68F11A16F040A22F232F342F4427CE
:100AF000585FF3CF469537952795A795F0405395C6
:100B0000C9F77EF41F16BA0B620B730B840BBAF095
:100B10009150A1F0FF0FBB1F661F771F881FC2F700
:100B20000EC0BA0F621F731F841F48F48795779514
:100B30006795B795F7959E3F08F0B3CF9395880FCB
:100B400008F09927EE0F9795879508950CD0E6C089
:100B5000DED040F0D5D030F021F45F3F19F0C7C0AF
:100B6000511110C1CAC0EBD098F39923C9F3552392
:100B7000B1F3951B550BBB27AA2762177307840790
:100B800038F09F5F5F4F220F331F441FAA1FA9F346
:100B900033D00E2E3AF0E0E830D091505040E69538
:100BA000001CCAF729D0FE2F27D0660F771F881F99
:100BB000BB1F261737074807AB07B0E809F0BB0B88
:100BC000802DBF01FF2793585F4F2AF09E3F5105AC
:100BD00068F08DC0D7C05F3FECF3983EDCF386959C
:100BE00077956795B795F7959F5FC9F7880F911D22
:100BF0009695879597F90895E1E0660F771F881F0E
:100C0000BB1F621773078407BA0720F0621B730BC0
:100C1000840BBA0BEE1F88F7E095089598D088F002
:100C20009F5790F0B92F9927B751A0F0D1F0660FD8
:100C3000771F881F991F1AF0BA95C9F712C0B130F3
:100C400081F09FD0B1E008959CC0672F782F88274E
:100C5000B85F39F0B93FCCF3869577956795B39532
:100C6000D9F73EF490958095709561957F4F8F4FA1
:100C70009F4F0895E89409C097FB3EF490958095A6
:100C8000709561957F4F8F4F9F4F9923A9F0F92F52
:100C900096E9BB279395F695879577956795B795D0
:100CA000F111F8CFFAF4BB0F11F460FF1BC06F5FB6
:100CB0007F4F8F4F9F4F16C0882311F096E911C0C8
:100CC000772321F09EE8872F762F05C0662371F0E9
:100CD00096E8862F70E060E02AF09A95660F771FFD
:100CE000881FDAF7880F9695879597F9089597F9F1
:100CF0009F6780E870E060E008959FEF80EC0895C2
:100D000000240A94161617061806090608950024EA
:100D10000A9412161306140605060895092E039464
:100D2000000C11F4882352F0BB0F40F4BF2B11F4D8
:100D300060FF04C06F5F7F4F8F4F9F4F089557FD37
:100D40009058440F551F59F05F3F71F04795880F39
:100D500097FB991F61F09F3F79F0879508951216D0
:100D600013061406551FF2CF4695F1DF08C016167C
:100D700017061806991FF1CF86957105610508942D
:100D80000895E894BB2766277727CB0197F9089544
:100D9000E3D008F48FEF08950BD0C0CFB1DF28F077
:100DA000B6DF18F0952309F0A2CFA7CF1124EACF20
:100DB000C6DFA0F3959FD1F3950F50E0551F629FBA
:100DC000F001729FBB27F00DB11D639FAA27F00DA4
:100DD000B11DAA1F649F6627B00DA11D661F829FCB
:100DE0002227B00DA11D621F739FB00DA11D621FB0
:100DF000839FA00D611D221F749F3327A00D611DCD
:100E0000231F849F600D211D822F762F6A2F1124AE
:100E10009F5750408AF0E1F088234AF0EE0FFF1F01
:100E2000BB1F661F771F881F91505040A9F79E3F38
:100E3000510570F05CCFA6CF5F3FECF3983EDCF33A
:100E4000869577956795B795F795E7959F5FC1F775
:100E5000FE2B880F911D9695879597F90895FA01B5
:100E6000EE0FFF1F30962105310599F161157105CF
:100E700061F48038BFE39B0749F16894903881059D
:100E800061F08038BFEF9B0741F0992342F5FF3FA7
:100E9000E1053105210511F1E8940894E795D901A0
:100EA000AA2329F4AB2FBE2FF85FD0F310C0FF5F49
:100EB00070F4A695E0F7F73950F019F0FF3A38F4DE
:100EC0009F779F930CD00F9007FC905808953EF0A9
:100ED00014CF60E070E080E89FE308954FE79F77CC
:100EE0005F934F933F932F93C2D02F913F914F9198
:100EF0005F9152DF05C019F40EF0F9CE42CFFDCE5E
:100F000026DFC8F39638C0F707F80F92E8942BE372
:100F10003AEA48EB5FE74EDF0F920F920F924DB720
:100F20005EB70F92E4D0ECE8F0E03AD04F915F91D9
:100F3000EF91FF91E595EE1FFF1F49F0FE57E06826
:100F40004427EE0F441FFA95E1F74195550B56D013
:100F50000F9007FE4AC00895990F0008550FAA0B7D
:100F6000E0E8FEEF16161706E807F907C0F01216BC
:100F70001306E407F50798F0621B730B840B950BBF
:100F800039F40A2661F0232B242B252B21F4089514
:100F90000A2609F4A140A6958FEF811D811D0895B1
:100FA000DF93CF931F930F93FF92EF92DF927B011A
:100FB0008C01689405C0DA2EEF01FADEFE01E89498
:100FC000A5912591359145915591AEF3EF016BDDDA
:100FD000FE019701A801DA9479F7DF90EF90FF9076
:100FE0000F911F91CF91DF9108959B01AC0160E0BB
:100FF00070E080E89FE3AACD7ACEACC0A8DEE8F32B
:101000009923D9F3940F511DBBF39150504094F0A4
:1010100059F0882332F0660F771F881F9150504097
:10102000C1F79E3F510544F7880F911D969587950E
:1010300097F908955F3FACF0983E9CF0BB278695EA
:1010400077956795B79508F4B1609395C1F7BB0F95
:1010500058F711F460FFE8CF6F5F7F4F8F4F9F4FBE
:10106000E3CF90CE0EF076C048CE689440CE6FDECF
:10107000C8F39923D1F3C6F3DF93CF931F930F9354
:10108000FF92C92FDD2788232AF02197660F771F4B
:10109000881FDAF720E030E040E85FEB9FE3883913
:1010A00020F0803E30F021968F77ECDCE4EBF0E02E
:1010B00003C0E8DCE1EEF0E073DF8B01BE01EC0180
:1010C000FB2E6F5771097595771F880B990BD4DD2F
:1010D00028E132E741E35FE36BDEAF2D9801AE011B
:1010E000FF900F911F91CF91DF91DDDC17CEFA01B8
:1010F000DC01AA0FBB1F9B01AC01BF5728F42227BC
:101100003327442750781FC0B75188F4AB2F0024F1
:10111000469537952795011CA395D2F3002069F0D9
:10112000220F331F441FB395DAF30DD0AACC6130E0
:101130007105A0E88A07B94630F49B01AC01662727
:10114000772788279078309621F020833183428357
:10115000538308959F3F31F0915020F48795779500
:101160006795B795880F911D9695879597F908957E
:101170002F923F924F925F926F927F928F929F92A7
:10118000AF92BF92CF92DF92EF92FF920F931F9395
:10119000CF93DF93CDB7DEB765970FB6F894DEBF78
:1011A0000FBECDBF4C017F876E87FC011782168270
:1011B000838181FD04C076C34C855D8504C01E011A
:1011C0000894211C311CF4019381EE85FF8593FD69
:1011D000859193FF8191FF87EE87882309F45EC391
:1011E000853241F493FD859193FF8191FF87EE87CE
:1011F000853259F490E0B4014C8B5D8B0E94620DF6
:101200004C895D895D874C87D7CFFF24DD2410E0B2
:101210001032B0F48B3269F08C3228F4803251F005
:10122000833271F40BC08D3239F0803349F4116090
:101230002CC01260146029C0186027C0106125C03E
:1012400017FD2EC0282F20532A3098F416FF08C00F
:101250008F2D880FF82EFF0CFF0CF80EF20E15C024
:101260008D2D880FD82EDD0CDD0CD80ED20E10621D
:101270000CC08E3221F416FD11C3106406C08C36EA
:1012800011F4106802C0883659F4EE85FF8593FD8D
:10129000859193FF8191FF87EE87882309F0B8CF6E
:1012A000982F9554933018F41061805E06C0982FE3
:1012B0009556933008F0A2C11F7E16FD02C0E6E0ED
:1012C000FE2E1F73853611F4106406C0863611F4A5
:1012D000106802C0F110FA9417FF07C0FBE3FF1576
:1012E00048F0EF2CE39427E00DC027E02F1530F0F5
:1012F0002F2D07C027E07CE3E72E04C027E067E03E
:10130000F62EEE24CA0104969D878C87FA0160812F
:10131000718182819381A1010E2D0E946D0C5C016F
:10132000C9802C2D30E0398B288BC0FE03C0388952
:1013300033FF06C011FD06C012FF06C000E205C063
:101340000DE203C00BE201C000E0888999898C702E
:101350009070009709F43CC0002311F084E001C0B4
:1013600083E08D1558F4D81A13FD09C080E290E08F
:10137000B4010E94620DDA94C9F701C0DD24002394
:1013800029F0802F90E0B4010E94620D888983FDCE
:1013900005C032E1E32E31E0F32E11C02EE0E22E43
:1013A00021E0F22E0CC00115110509F0805290E0E9
:1013B000B4010E94620D0894E11CF11C04C0012FCD
:1013C00010E000711070F7018491882361F763C207
:1013D00017FF0EC0EA0CF889F4FF04C08A8181333C
:1013E00009F4EA941E144CF528E02E1548F12CC09F
:1013F00016FD2AC08F2D90E08A159B0544F03CEF26
:10140000A3163FEFB3061CF0106801C0FA94FF204A
:1014100049F0E2E0F0E0EC0FFD1FEF0DF11D8081DF
:101420008033A1F317FF10C0EF2CE3948F2D90E0D1
:10143000A816B90644F4FA1807C0EE24E39404C0D1
:1014400098E0E92E01C0FF2417FF07C01A141B04FF
:101450003CF495012F5F3F4F05C025E030E002C00E
:1014600021E030E0002311F02F5F3F4FFF2029F0F3
:101470008F2D90E00196280F391F8D2D90E02817B1
:10148000390714F4D21A01C0DD24612E7724C30178
:1014900089709070009749F406C080E290E0B40132
:1014A0000E94620DDA94DD20C1F7002329F0802F1D
:1014B00090E0B4010E94620D63FC09C006C080E3A5
:1014C00090E0B4010E94620DDA94DD20C1F717FFAD
:1014D00048C08501B7FE02C000E010E06624772412
:1014E00095012E1931093B8B2A8B2501401A510A8F
:1014F000420C531C6F2D70E0EE24FF24E61AF70A0D
:101500003FEF0F3F130729F48EE290E0B4010E94F1
:10151000620DA016B10654F02A893B8920173107C5
:101520002CF4F201E60DF71D818101C080E301502A
:1015300010400894611C711C0E151F052CF090E0E2
:10154000B4010E94620DDCCF0A151B0541F49A819B
:10155000963320F4953319F4388934FF81E390E011
:1015600049C08A81813311F09FEEC92290E0B40115
:101570000E94620DFF2089F08EE290E0B4010E948B
:10158000620D12E0F101E10FF11D1F5F808190E01B
:10159000B4010E94620DFA94A9F764FE03C085E4C9
:1015A00090E002C085E690E0B4010E94620DB7FCB5
:1015B00005C0A114B10441F4C4FE06C0B094A194C6
:1015C000B108B3948DE201C08BE290E0B4010E94B7
:1015D000620D80E305C08F5FE6EFFFEFAE0EBF1E2A
:1015E000FAE0AF16B104BCF790E0B4010E94620DBE
:1015F000C501C096B4010E94620D4DC1833631F021
:10160000833789F0833509F059C022C09A012E5FD3
:101610003F4F3D872C87FA018081898381E0E82E46
:10162000F12C510113C09A012E5F3F4F3D872C874B
:10163000FA01A080B18016FF03C06F2D70E002C0D8
:101640006FEF7FEFC5010E94570D7C011F7714C01B
:101650009A012E5F3F4F3D872C87FA01A080B18011
:1016600016FF03C06F2D70E002C06FEF7FEFC50162
:101670000E94450D7C01106813FD1CC006C080E26D
:1016800090E0B4010E94620DDA948D2D90E0E8168E
:10169000F906A8F30FC0F50117FD859117FF819199
:1016A0005F0190E0B4010E94620DD110DA940894B9
:1016B000E108F108E114F10471F7EDC0843611F08E
:1016C000893671F59A0117FF0AC02C5F3F4F3D879D
:1016D0002C87FA0180819181A281B3810BC02E5F9A
:1016E0003F4F3D872C87FA0180819181AA2797FD82
:1016F000A095BA2F012F0F76B7FF08C0B095A0951F
:10170000909581959F4FAF4FBF4F0068BC01CD01B1
:10171000A1012AE030E00E94BD0DE82EE21841C090
:10172000853721F41F7E2AE030E020C0197F8F36F4
:10173000A9F0803720F4883509F0B0C00BC080379D
:1017400021F0883709F0AAC001C0106114FF09C058
:10175000146007C014FF08C0166006C028E030E01F
:1017600005C020E130E002C020E132E0CA0117FFED
:1017700009C004969D878C87FA01608171818281FE
:10178000938108C002969D878C87FA0160817181E0
:1017900080E090E0A1010E94BD0DE82EE218012F2B
:1017A0000F7706FF09C00E7FEF1430F404FF06C068
:1017B00002FD04C00F7E02C01E2D01C01F2D802F10
:1017C00090E004FF0CC0FE01EE0DF11D20812033DE
:1017D00011F4097E09C002FF06C01E5F05C08678AD
:1017E0009070009709F01F5FA02EBB2403FD12C06C
:1017F00000FF0DC0FE2C1D1550F4FD0CF11A1D2D1F
:1018000006C080E290E0B4010E94620D1F5F1D15CA
:10181000C0F304C01D1510F4D11A01C0DD24A4FECC
:101820000FC080E390E0B4010E94620DA2FE1FC0D1
:10183000A1FE03C088E590E010C088E790E00DC0ED
:10184000C50186789070009791F0A1FC02C080E2FB
:1018500001C08BE207FD8DE290E0B4010E94620DB1
:1018600006C080E390E0B4010E94620DFA94EF1488
:10187000C0F3EA94F101EE0DF11D808190E0B40116
:101880000E94620DEE20A9F706C080E290E0B4014C
:101890000E94620DDA94DD20C1F78ECCF4018681BE
:1018A000978102C08FEF9FEF65960FB6F894DEBF69
:1018B0000FBECDBFDF91CF911F910F91FF90EF90A1
:1018C000DF90CF90BF90AF909F908F907F906F9060
:1018D0005F904F903F902F900895283008F027E0B8
:1018E0003327DA01990F311D87FD9160009661055C
:1018F000710539F432602E5F3D9330E32A95E1F7AC
:1019000008959F3F30F080387105610509F03C5F14
:101910003C5F3D93913008F08068911DDF93CF9339
:101920001F930F93FF92EF92192F987F9695E92FAF
:1019300096959695E90FFF27E059FE4F9927332793
:10194000EE24FF24A701E70105900894079428F4EA
:10195000360FE71EF81E491F511D660F771F881F9F
:10196000991F0694A1F70590079428F4E70EF81E36
:10197000491F561FC11D770F881F991F661F0694A8
:10198000A1F70590079428F4F80E491F561FC71FAA
:10199000D11D880F991F661F771F0694A1F7059028
:1019A000079420F4490F561FC71FD81F990F661FB1
:1019B000771F881F0694A9F784911095177041F03E
:1019C000D695C79557954795F794E7941A95C1F71B
:1019D000E6E1F1E068941590159135916591959146
:1019E00005907FE27395E118F10A430B560BC90B82
:1019F000D009C0F7E10CF11E431F561FC91FD01DAF
:101A00007EF4703311F48A95E6CFE894015030F0FB
:101A1000080F0AF40027021708F4202F2395022F3D
:101A20007A3328F079E37D932A95E9F710C07D9306
:101A30002A9589F606949795679537951795179483
:101A4000E118F10A430B560BC90BD00998F0239506
:101A50007E9173957A3308F070E37C932013B8F786
:101A60007E9170617D9330F0839571E37D9370E397
:101A70002A95E1F71124EF90FF900F911F91CF91DC
:101A8000DF91992787FD90950895FC01059061509D
:101A900070400110D8F7809590958E0F9F1F089584
:101AA000DC0101C06D9341505040E0F70895FC0106
:101AB0006150704001900110D8F7809590958E0F7D
:101AC0009F1F08950F931F93CF93DF938C01EB011A
:101AD0008B8181FF1BC082FF0DC02E813F818C81D5
:101AE0009D812817390764F4E881F9810193F9830E
:101AF000E88306C0E885F985802F0995009731F4C1
:101B00008E819F8101969F838E8302C00FEF1FEF0E
:101B1000C801DF91CF911F910F9108950F931F93EB
:101B2000CF93DF93CDB7DEB72E970FB6F894DEBF15
:101B30000FBECDBF0D891E8986E08C831A83098371
:101B40008FEF9FE79E838D83AE01475E5F4FCE018F
:101B500001966F89788D0E94B808EF81F885E00FB3
:101B6000F11F10822E960FB6F894DEBF0FBECDBFC8
:101B7000DF91CF911F910F910895FA01AA27283084
:101B800051F1203181F1E8946F936E7F6E5F7F4F4A
:101B90008F4F9F4FAF4FB1E03ED0B4E03CD0670FC6
:101BA000781F891F9A1FA11D680F791F8A1F911D19
:101BB000A11D6A0F711D811D911DA11D20D009F469
:101BC00068943F912AE0269F11243019305D3193AB
:101BD000DEF6CF010895462F4770405D4193B3E094
:101BE0000FD0C9F7F6CF462F4F70405D4A3318F03B
:101BF000495D31FD4052419302D0A9F7EACFB4E0EC
:101C0000A6959795879577956795BA95C9F70097A3
:101C10006105710508959B01AC010A2E0694579544
:101C2000479537952795BA95C9F7620F731F841F9B
:0A1C3000951FA01D0895F894FFCF42
:101C3A002B25322E3266560025322E326656005C2D
:101C4A008F423EB81E053E3333B33E1F85EB3E8FAF
:101C5A00C2F53D00001B43000072430000FA430036
:101C6A00C0304400407C44CDCC1C40D7A3B03F1FB9
:101C7A00858B3F6666E63EAE47613E0000794400CA
:101C8A0000354400800544000060430000EA422910
:101C9A005C63C19A9931C1A47001C11F85C3C0F6A2
:101CAA0028DCBF295C4F3FEC51D83F1F852B400AE7
:101CBA00D753401F859B40D7A36441295C4B418F72
:101CCA00C2314148E102415C8FA240AE47E13FC3C5
:101CDA00F58840E17A7440B81E5540CDCC1C405C72
:081CEA008FC23FB81E053F0048
:00000001FF
