:100000000C944C000C941C240C945A240C946900FD
:100010000C9469000C9469000C9469000C946900BC
:100020000C9469000C9469000C9469000C946900AC
:100030000C9469000C9469000C9469000C9469009C
:100040000C9469000C9469000C9469000C9469008C
:100050000C9469000C94A1240C9469000C94690020
:100060000C9469000C9469000C9469000C9469006C
:100070000C9469000C9469000C9469000C9469005C
:100080000C9469000C9469000C9469000C9469004C
:100090000C9469000C94690011241FBECFEFD0E1CD
:1000A000DEBFCDBF15E0A0E0B1E0E4E8FAE402C0B5
:1000B00005900D92A038B107D9F71FE0A0E8B5E090
:1000C00001C01D92A63EB107E1F70E94CA240C941C
:1000D00040250C9400001092CD008CE08093CC0061
:1000E00082E08093C80088E08093C90086E0809316
:1000F000CA0080E008959091C80095FFFCCF8093DE
:10010000CE0080E00895CF93DF93EC0102C00E94FF
:100110007B0089918823D9F7DF91CF9108958130B1
:1001200019F480E091E057C0823019F486E391E041
:1001300052C0833019F489E491E04DC0843019F441
:100140008AE691E048C0853019F484E891E043C024
:10015000863019F48EE991E03EC0873019F480ECC6
:1001600091E039C0883019F48BEF91E034C08930C8
:1001700019F484E292E02FC08A3019F48BE492E003
:100180002AC08B3019F483E792E025C08C3019F433
:1001900089E992E020C08D3019F487EB92E01BC012
:1001A0008E3019F48CEE92E016C08F3019F48EE187
:1001B00093E011C0803119F481E693E00CC08131E5
:1001C00019F482EA93E007C0823119F48EEC93E0CF
:1001D00002C081EF93E00E9483000895813019F4FA
:1001E00084E094E011C0823019F48DE194E00CC0F9
:1001F000833019F483E394E007C0843019F489E56F
:1002000094E002C086E794E00E9483000895F89489
:100210008FEF8EBD0DB407FEFDCF78948EB5089597
:1002200082E3809380050E9407010E9407018F3FAF
:1002300039F0809180058823C1F780E090E008952F
:1002400081E090E00895289A0E9407010895289877
:100250000E941001009729F40E94230180E090E0A1
:10026000089581E090E00895CF92DF92EF92FF929F
:10027000CF93C82F6A017B0187FF0AC087E340E064
:1002800050E0BA010E943401823008F04FC0CF77AD
:100290000E9423010E942701009709F446C0F894A8
:1002A0008C2F80648EBD0DB407FEFDCF7894F8943A
:1002B0008F2D9927AA27BB278EBD0DB407FEFDCF32
:1002C0007894F894C701AA27BB278EBD0DB407FE0A
:1002D000FDCF7894F89477276F2D5E2D4D2D4EBD70
:1002E0000DB407FEFDCF7894F894CEBC0DB407FE94
:1002F000FDCF7894CC2321F0C83021F081E003C0F9
:1003000085E901C087E8F8948EBD0DB407FEFDCFE6
:100310007894CC3011F40E940701CAE00E940701D2
:1003200087FF04C0C150D1F701C08FEFCF91FF907C
:10033000EF90DF90CF9008950F931F93CF93DF93AB
:10034000EC018B0184E1809381050E9407018F3FBE
:1003500029F4809181058823C1F726C08E3F21F5BD
:100360008FEF8EBD0DB407FEFDCF9EB598838EBD79
:100370000DB407FEFDCF9EB599838EBD0DB407FE6B
:10038000FDCF9EB59A838EBD0DB407FEFDCF9EB501
:100390009B8324960450104021F70E9407010E947D
:1003A000070181E090E002C080E090E0DF91CF9112
:1003B0001F910F9108950F931F93CF93DF930F9287
:1003C000CDB7DEB78C0169830E9410016981009767
:1003D00009F439C0F8946EBD0DB407FEFDCF7894D2
:1003E0006D3F71F180E0F894F80190819EBD0DB4ED
:1003F00007FEFDCF7894F894F80191819EBD0E5FC1
:100400001F4F0DB407FEFDCF7894815061F7F8942B
:100410008FEF8EBD0DB407FEFDCF7894F8948FEF6B
:100420008EBD0DB407FEFDCF78940E9407018F7139
:1004300021E030E0853011F020E030E0C90105C056
:1004400081E090E002C080E090E00F90DF91CF91DA
:100450001F910F910895DF92EF92FF920F931F93D8
:10046000CF93DF9300D000D0CDB7DEB7882309F05B
:100470009AC080918E0481FD93C085B1806C85B94E
:1004800082E58CBD1AE00E9407011150E1F780E07F
:1004900040E050E0BA010E943401813009F072C09E
:1004A00088EC8093810588E04AEA51E060E070E0E2
:1004B0000E9434018130E9F57E010894E11CF11CB1
:1004C000870134E0D32E0E940701F80181938F0148
:1004D000DA94C9F78B81813009F054C08C818A3A53
:1004E00009F050C080918105882349F089EA40E0F5
:1004F00050E060E070E40E943401882399F7809115
:100500008105882309F43EC08AE340E050E0BA0147
:100510000E9434018823B1F514E00E940701F7011D
:1005200081937F011150C9F7898186FF29C00CE0B2
:100530002AC089EA40E050E0BA010E9434018230CA
:1005400018F402E019EA02C001E011E0809181058F
:10055000882341F0812F40E050E0BA010E9434012D
:100560008823A1F780918105882361F080E140E034
:1005700052E060E070E00E943401882319F403C067
:1005800004E001C000E0009382050E9423010023E3
:1005900039F080918E048E7F80938E0480E58CBD2F
:1005A00080918E0401C081E00F900F900F900F900A
:1005B000DF91CF911F910F91FF90EF90DF90089501
:1005C000882319F480918E04089581E008950F9393
:1005D000CF93DF93EB01BA01A901882309F03FC053
:1005E0000023E9F180918E0480FD3BC0809182055B
:1005F00083FD07C0E9E0440F551F661F771FEA958A
:10060000D1F7013069F481E10E943401882301F5BA
:10061000CE0160E072E00E949C010097C1F418C016
:1006200082E10E943401882399F4CE0160E072E0F7
:100630000E949C01009721F0C050DE4F0150A9F7A5
:100640008CE040E050E0BA010E94340101C000E0BB
:100650000E94230181E0002329F480E003C084E0AC
:1006600001C083E0DF91CF910F910895CF92DF9287
:10067000EF92FF920F93CF93DF93EB0169017A0121
:10068000882309F055C0002309F452C080918E04DC
:1006900080FD50C080918E0482FD4EC08091820505
:1006A00090E083FD07C0F9E0CC0CDD1CEE1CFF1CC4
:1006B000FA95D1F7013071F488E1B701A6010E94E3
:1006C0003401882371F5CE016EEF0E94DB010097A3
:1006D00029F527C086709070009739F0402F50E0C0
:1006E00060E070E087E90E94340189E1B701A6016A
:1006F0000E9434018823A9F4CE016CEF0E94DB0133
:10070000009721F0C050DE4F0150B1F780E090E03B
:100710006DEF0E94DB01009719F003C000E001C0FB
:1007200001E00E94230181E0002339F480E005C04C
:1007300084E003C083E001C082E0DF91CF910F919C
:10074000FF90EF90DF90CF900895FF920F931F934B
:10075000CF93DF93CDB7DEB761970FB6F894DEBFC6
:100760000FBECDBF8A01882309F065C1643061F4F2
:10077000FA018081823030F0823009F05CC181E082
:10078000FA01818380E05AC180918E0480FD55C1B9
:100790006A3009F40FC16B3058F46130F1F0613008
:1007A000A0F0623009F47AC0633009F03AC17CC02D
:1007B0006C3009F406C16C3008F401C16D3009F4E5
:1007C0000CC16E3009F02DC11AC10E94270100979B
:1007D00009F429C10E94230128C189E040E050E0CA
:1007E000BA010E943401882309F01DC1CE0101968F
:1007F00060E170E00E949C01009709F414C18981B6
:1008000082958695869583704985813089F48A859D
:1008100090E00196342F20E0820F931FA0E0B0E01B
:10082000EAE0880F991FAA1FBB1FEA95D1F7BCC049
:10083000842F8295869586958370488550E0440F75
:10084000551F440F551F480F511D4F5F5F4F8F813C
:1008500090E083709070982F8827990F990F480F18
:10086000591F60E070E08E818F709B85991F9927DA
:10087000991F890F8E5F9A859370990F890F90E069
:10088000099704C0440F551F661F771F8A95D2F73A
:10089000F8014083518362837383C7C080E092E094
:1008A000FA0191838083C1C0F0908205F2FE29C0D5
:1008B0008DE840E050E0BA010E943401882309F03D
:1008C000B2C00E940701CE01019660E170E00E9473
:1008D0009C01009709F4A7C050E3F52E0E94070180
:1008E000FA94E1F72B8522952F7080E190E0A0E04B
:1008F000B0E004C0880F991FAA1FBB1F2A95D2F72A
:1009000053C089E040E050E0BA010E9434018823DE
:1009100009F089C0CE01019660E170E00E949C015F
:10092000009709F480C08C85F1FE1BC0881F8827C2
:10093000881F90E001962B8530E02F733070220FD6
:10094000331F820F931F2E8522952695269523709F
:1009500030E02150304002C0880F991F2A95E2F7FD
:1009600021C0482F50E043705070B3E0440F551F32
:10097000BA95E1F7829586958770480F511D4F5FB4
:100980005F4F8B8590E08C779070959587959595C6
:1009900087950196489F9001499F300D589F300DD3
:1009A0001124C901A0E0B0E0F80180839183A28303
:1009B000B3833BC080918205FA01808336C089E011
:1009C00001C08AE040E050E0BA010E94340188236F
:1009D00051F5C80160E170E01FC08AE340E050E0DB
:1009E000BA010E9434018823F1F4A4E0FA2E0E9497
:1009F0000701F80181938F01FA94C9F716C08DE8B9
:100A000040E050E0BA010E943401882361F40E9462
:100A10000701C80160E470E00E949C01009729F47E
:100A200002C084E003C081E001C080E0898B0E94A5
:100A30002301898903C084E001C083E061960FB679
:100A4000F894DEBF0FBECDBFDF91CF911F910F9104
:100A5000FF90089580918105882319F0815080933B
:100A6000810580918005882319F08150809380054D
:100A70009091830583B1807380938305981771F4F7
:100A800080918E0495FF02C0846001C08B7F94FF2B
:100A900002C0836001C08D7F80938E04089560E062
:100AA00070E0CB010895CF93DF93EC01FB01DC01F3
:100AB000CA0105C0219131912D933D930297823057
:100AC0009105C0F79A0121703070CA018E7FFE0136
:100AD000E80FF91FDB01A80FB91F02C08D918193A8
:100AE000215030408FEF2F3F3807C1F7DF91CF9172
:100AF0000895FC0101C06193415050408FEF4F3F7A
:100B00005807C9F70895CF93DF93FC019B01275F36
:100B10003F4F86859785A089B1890097A105B105CA
:100B2000D9F1C289D389DE01F90180E090E09F010B
:100B30004D91403249F0453009F445EE41939F0113
:100B400001968830910599F78885803291F0DF0110
:100B50008EE28D9388E090E09D01FE01E80FF91F81
:100B60004081403231F04D939D0101968B309105CB
:100B700099F78B85FB0180878C8D9D8DAE8DBF8D08
:100B800080839183A283B383888D998D9583848399
:100B90008E899F8997838683F9011082DF91CF9197
:100BA00008956F927F928F929F92AF92BF92CF9251
:100BB000DF92EF92FF920F931F93CF93DF93EC019D
:100BC0004A015B01CEA4DFA4E8A8F9A8C416D506A3
:100BD000E606F70609F44CC08C818823A1F182E374
:100BE000682E712C6C0E7D1E8981B301A7019601C0
:100BF00001E00E9436038823E9F51C828E8D9F8DCB
:100C0000A8A1B9A14AA15BA16CA17DA1840F951FE8
:100C1000A61FB71FC816D906EA06FB06A0F41B815B
:100C200010C08E8D9F8DA8A1B9A1C80ED91EEA1E35
:100C3000FB1E8981B301A701960101E00E943603E2
:100C40001150123070F781149104A104B10481F0A5
:100C5000BE016E5C7F4F8981A501940101E00E9475
:100C6000E702882339F48EA69FA6A8AAB9AA03C0D2
:100C700080E001C081E0DF91CF911F910F91FF9043
:100C8000EF90DF90CF90BF90AF909F908F907F902C
:100C90006F9008950F931F93CF93DF93EC0140E083
:100CA00050E0BA010E94D105982F882309F05AC05C
:100CB0008881833009F04CC08D81882309F448C0B5
:100CC0001EA61FA618AA19AA8E010E5C1F4FC801E6
:100CD00060E070E040E052E00E947905FE01E05DD6
:100CE000FD4F85E59AEA9183808382E592E5A1E64E
:100CF000B1E48AAB9BABACABBDABFE01EA5EFD4F92
:100D000082E792E7A1E4B1E680839183A283B38373
:100D1000FE01E65EFD4F8E859F85A889B989808397
:100D20009183A283B383FE01E25EFD4F8A859B859A
:100D3000AC85BD8580839183A283B3832A893B8957
:100D40004C895D898981B80101E00E9436031D82CA
:100D5000898160E040E050E00E94A50391E0882393
:100D600009F490E0892FDF91CF911F910F910895A1
:100D7000FC01009789F08081882371F0868197813A
:100D80008617970759F481810E94E00280FF02C014
:100D900083E0089580E0089589E0089589E008954A
:100DA0000F93CF93DF93EC019A01AB01BC016E5C12
:100DB0007F4F898101E00E94E702882351F5FE01FF
:100DC000E05DFD4F808191812AEA8535920719F512
:100DD000FE01E859FF4F80819181A281B381B070FB
:100DE000863421E4920724E5A20720E0B207A9F0A7
:100DF000CC57DF4F488159816A817B81707081E0D7
:100E0000463491E4590794E5690790E0790731F495
:100E100004C083E003C082E001C080E0DF91CF9195
:100E20000F9108952F923F924F925F926F927F920F
:100E30008F929F92AF92BF92CF92DF92EF92FF92EA
:100E40000F931F93CF93DF93CDB7DEB72E970FB6D7
:100E5000F894DEBF0FBECDBFDC01C42EED91FC9136
:100E60001197008110E0005310400A30110540F442
:100E700081818A3329F432961196FC93EE9303C054
:100E80000091880510E00230110508F049C2F80110
:100E9000EE0FFF1FEC57FA4F208131813E872D87DF
:100EA000DB0111963C932E932115310509F43AC2CA
:100EB000F9018081882359F081810E94E00280FD40
:100EC00006C0CC2009F430C282FD32C22DC2AD85ED
:100ED000BE851C9211960C93802F0E942B0280FDE0
:100EE00025C2CC2011F082FD23C28D859E8540E075
:100EF00050E0BA010E94D0068130F9F4ED85FE85FC
:100F0000EC50FE4F8081882309F416C22D853E8562
:100F100028503E4FD9018D919D910D90BC91A02DEF
:100F200089839A83AB83BC838D859E8549815A8151
:100F30006B817C810E94D00604C019821A821B82B8
:100F40001C82833009F4F6C1882309F0F5C1ED85D0
:100F5000FE8585AD96ADF2E080309F0709F0ECC1CB
:100F6000ED85FE85E85BFF4F808191819C0140E02B
:100F700050E02D833E834F8358872115310541056D
:100F8000510571F42D853E852A5A3F4FD9018D9127
:100F90009D910D90BC91A02D8D839E83AF83B887CA
:100FA0002D813E814F815885AD85BE855E962D93FE
:100FB0003D934D935C939197FD01EE5BFF4F408114
:100FC00013964C931397842F8150823008F0B4C14C
:100FD000DF960C91DF9712960C931297002309F479
:100FE000ABC1202F30E0C9010197822393230097E2
:100FF00009F0A2C1FD01ED5BFF4F20803180199601
:101000003C922E921897C1018F709070009709F052
:1010100093C1FD01EB5BFF4F80809180AA24BB242C
:1010200081149104A104B10439F4FD01EE5AFF4F7B
:1010300080809180A280B380ED85FE85E05CFF4FCB
:10104000C080D180C114D10409F476C1242F30E0CE
:1010500040E050E06D817E818F8198850E94FF2461
:1010600069877A878B879C872601662477246101AC
:10107000E4E0D694C794EA95E1F7EE24FF24C40C8B
:10108000D51CE61CF71CC60ED71EE81EF91E8C14D4
:101090009D04AE04BF0408F44FC1C501B4016C192E
:1010A0007D098E099F09202F30E040E050E00E942A
:1010B0001E2589019A01011511052105310509F443
:1010C0003BC1063FBFE01B07B0E02B07B0E03B078A
:1010D00058F0063FEFEF1E07E0E02E07E0E03E0786
:1010E00030F462E0862E05C08824839402C053E069
:1010F000852E0E5F1F4F2F4F3F4FAD85BE855A96F1
:101100000D931D932D933C935D9789819A81AB81BB
:10111000BC818C0D9D1DAE1DBF1DED85FE8582A77A
:1011200093A7A4A7B5A749815A816B817C81440DFF
:10113000551D661D771D42A353A364A375A3B3E099
:101140008B16D1F42114310409F0F6C0E25AFF4F96
:1011500080819181A281B381ED85FE8586A397A3CD
:10116000A0A7B1A7D901C80142E0880F991FAA1F03
:10117000BB1F4A95D1F72BC02114310409F4DCC000
:1011800089859A85AB85BC85840F951FA61FB71FDF
:10119000ED85FE8586A397A3A0A7B1A7D901C801B5
:1011A000880F991FAA1FBB1FF2E08F1681F0800FD6
:1011B000911FA21FB31FB695A795979587950170AC
:1011C000107020703070800F911FA21FB31F8150CC
:1011D0009E4FAF4FBF4F29E0B695A795979587953E
:1011E0002A95D1F72D813E814F81588528173907DF
:1011F0004A075B0708F4A0C08FEF9FEFDC01ED8585
:10120000FE8586879787A08BB18B128613861486FE
:101210001586B3E08B1609F066C01582EE59FF4FB4
:101220000081118120E030E089819A81AB81BC810D
:10123000080F191F2A1F3B1FAD85BE8552960D93BF
:101240001D932D933C935597BD016E5C7F4F119676
:101250008C91A901980101E00E94E702882309F01E
:1012600042C0ED85FE85E05DFD4F80819181BAEA47
:1012700085359B07C1F5ED85FE8582A993A9A4A9B3
:10128000B5A98235F2E59F07F1E6AF07F1E4BF07A4
:1012900051F5ED85FE85EA5EFD4F80819181A28149
:1012A000B381823722E7920721E4A20721E6B20741
:1012B000D1F4ED85FE85E25EFD4F80819181A281B2
:1012C000B381ED85FE8582879387A487B587E65E27
:1012D000FD4F80819181A281B381ED85FE85868756
:1012E0009787A08BB18BAD85BE858C928091890547
:1012F00090918A05019690938A05809389051796A7
:101300009C938E931697FD0116A617A610AA11AAF4
:10131000148256961D921D921D921C92599704C0DC
:101320008BE00BC08CE009C080E007C083E005C003
:101330008AE003C081E001C08DE02E960FB6F894DC
:10134000DEBF0FBECDBFDF91CF911F910F91FF90F8
:10135000EF90DF90CF90BF90AF909F908F907F9055
:101360006F905F904F903F902F900895BF92CF92D3
:10137000DF92EF92FF920F931F93CF93DF93EC01D5
:101380006A017B01423051056105710508F4A8C06E
:101390008A8D9B8DAC8DBD8D481759076A077B07D9
:1013A00008F09EC08881823009F458C0833009F467
:1013B00071C0813009F090C08A0116950795040F1D
:1013C000151FA801452F5527469560E070E08AA1BA
:1013D0009BA1ACA1BDA1480F591F6A1F7B1FCE0165
:1013E0000E94D105882309F077C0F801F170EC0F55
:1013F000FD1FB2A80F5F1F4FA801452F5527469527
:1014000060E070E08AA19BA1ACA1BDA1480F591F6B
:101410006A1F7B1FCE010E94D105882309F05CC0A2
:101420006B2D70E0F801F170EC0FFD1F92A980E0C8
:10143000682B792B81E0C822DD24C114D10439F056
:1014400094E0769567959A95E1F78B0120C08B0122
:1014500020E030E01F702070307046C0452F562FBE
:10146000672F77278AA19BA1ACA1BDA1480F591F67
:101470006A1F7B1FCE010E94D105882369F5F60102
:10148000EE0FFF1FF170EC0FFD1F02A913A920E062
:1014900030E02AC017E076956795579547951A95DD
:1014A000D1F78AA19BA1ACA1BDA1480F591F6A1F0A
:1014B0007B1FCE010E94D105882371F4F601EE0F47
:1014C000FF1FEE0FFF1FF170EC0FFD1F02A913A904
:1014D00024A935A93F7008C00FEF1FEF980104C081
:1014E00001E010E020E030E0B801C901DF91CF91C8
:1014F0001F910F91FF90EF90DF90CF90BF900895D4
:101500008F929F92AF92BF92CF92DF92EF92FF9213
:101510000F931F93CF93DF93EC016A017B01480186
:101520005901423051056105710508F4BDC08A8D2D
:101530009B8DAC8DBD8D481759076A077B0708F056
:10154000B3C08881823009F462C0833009F47AC064
:10155000813009F0A5C08A0116950795040F151F63
:10156000A801452F5527469560E070E08AA19BA110
:10157000ACA1BDA1480F591F6A1F7B1FCE010E945D
:10158000D105882309F08DC0F801F17081E0C822EF
:10159000DD24EC0FFD1FC114D10439F092A99F7016
:1015A000882D8295807F892B01C0882D82AB0F5FAB
:1015B0001F4F81E08C83A801452F5527469560E099
:1015C00070E08AA19BA1ACA1BDA1480F591F6A1F61
:1015D0007B1FCE010E94D105882309F062C0F8016B
:1015E000F170EC0FFD1FC114D10451F0B501A4013D
:1015F00014E076956795579547951A95D1F705C0EC
:1016000042A9407F992D9F70492B42AB4AC0452F7C
:10161000562F672F77278AA19BA1ACA1BDA1480FA8
:10162000591F6A1F7B1FCE010E94D1058823C9F56F
:10163000F601EE0FFF1FF170F296EC0FFD1F918285
:1016400080822FC0E7E07695679557954795EA9594
:10165000D1F78AA19BA1ACA1BDA1480F591F6A1F58
:101660007B1FCE010E94D1058823D9F4F601EE0F2D
:10167000FF1FEE0FFF1FF170F296EC0FFD1F408170
:10168000518162817381407050706070707F482911
:1016900059296A297B29408351836283738301C05E
:1016A00082E091E09C8301C082E0DF91CF911F91A5
:1016B0000F91FF90EF90DF90CF90BF90AF909F90F1
:1016C0008F9008954F925F926F927F928F929F9228
:1016D000AF92BF92CF92DF92EF92FF920F931F9340
:1016E000CF93DF93EC012A013B01411551056105C0
:1016F000710599F48A849B84AC84BD84811491041F
:10170000A104B10409F18A8D9B8DAC8DBD8D881625
:101710009906AA06BB06C0F41CC00E94B6098B013C
:101720009C01623071058105910508F486C08A8D9F
:101730009B8DAC8DBD8D081719072A073B0708F450
:101740008BC05301420105C051E0852E912CA12C84
:10175000B12C750164010894C11CD11CE11CF11C61
:101760008A8D9B8DAC8DBD8DC816D906EA06FB0609
:1017700060F022E082169104A104B10408F462C072
:1017800042E0C42ED12CE12CF12CCE01B701A601F0
:101790000E94B6098B019C016115710581059105B7
:1017A000A9F00F3F8FEF18078FEF28078FEF38074B
:1017B00009F452C0013011052105310509F44CC06E
:1017C000C814D904EA04FB0431F63CC08C2CBD2CAF
:1017D000AE2C9F2CCE01A601B7010FEF1FEF2FEF0C
:1017E0003FE00E94800A882389F541145104610476
:1017F000710449F0CE01B301A201860197010E9454
:10180000800A882319F58A86BB86AC869D868E85DC
:101810009F85A889B9898F3F2FEF92072FEFA207E5
:101820002FEFB207B9F00197A109B1098E879F8701
:10183000A88BB98B81E08D830DC001E010E020E022
:1018400030E00AC000E010E0980106C00FEF1FEF83
:10185000980102C097018601B801C901DF91CF91BB
:101860001F910F91FF90EF90DF90CF90BF90AF90BE
:101870009F908F907F906F905F904F9008957F9290
:101880008F929F92AF92BF92CF92DF92EF92FF9290
:101890000F931F93CF93DF93EC016A017B014230DA
:1018A00051056105710508F457C08A8D9B8DAC8D7B
:1018B000BD8D481759076A077B0708F04DC03CC02B
:1018C000CE01B701A6010E94B6094B015C0161156A
:1018D000710581059105E1F181E088169104A1046B
:1018E000B104D1F12FEF82162FEF92062FEFA2064F
:1018F0002FEFB20679F1CE01B701A60100E010E0AA
:1019000098010E94800A882341F58E859F85A889C9
:10191000B9898F3F2FEF92072FEFA2072FEFB20762
:1019200041F00196A11DB11D8E879F87A88BB98BB1
:101930007D827501640102C0772473948A8D9B8D2A
:10194000AC8DBD8DC816D906EA06FB0608F4B8CFE3
:1019500080E003C081E001C082E0DF91CF911F9160
:101960000F91FF90EF90DF90CF90BF90AF909F903E
:101970008F907F9008950F931F93CF93DF93EC0187
:10198000DB01CA010297A109B1094A8D5B8D6C8DFB
:101990007D8D425050406040704084179507A607E7
:1019A000B70798F42A8130E040E050E0BC01CD0157
:1019B0000E94FF248B019C018AA59BA5ACA5BDA517
:1019C000080F191F2A1F3B1F03C000E010E09801F9
:1019D000B801C901DF91CF911F910F910895EF9246
:1019E000FF920F931F93CF93DF938C017B01DC0158
:1019F00015967C936E93149716964D915D916D910B
:101A00007C911997413051056105710509F493C026
:101A1000ED91FC91828D938DA48DB58D481759075A
:101A20006A077B0708F087C04115510561057105FC
:101A300031F58081833049F446A157A160A571A595
:101A40004115510561057105D1F4D8011A961D9211
:101A50001D921D921C921D9780859185E816F906AE
:101A600008F069C0C70124E0969587952A95E1F7AB
:101A7000A0E0B0E046A157A160A571A53FC0C2811A
:101A8000D0E084E0CC0FDD1F8A95E1F721C00E94F1
:101A9000B609AB01BC014F3FFFEF5F07FFEF6F07D8
:101AA000FFEF7F0709F445C042305105610571051C
:101AB00008F441C0D801ED91FC91828D938DA48DE5
:101AC000B58D481759076A077B07A8F5EC1AFD0A78
:101AD000F80180819181EC16FD06C8F64287538794
:101AE000648775870E94BB0CAB01BC01C701C4E0D1
:101AF00096958795CA95E1F7A0E0B0E0840F951F11
:101B0000A61FB71FF80186879787A08BB18B8081AE
:101B10009181C296BFE0EB22FF24B5E0EE0CFF1CE2
:101B2000BA95E1F78E0D9F1DF801938B828B80E0B3
:101B300003C081E001C082E0DF91CF911F910F913E
:101B4000FF90EF9008958F929F92AF92BF92CF92A5
:101B5000DF92EF92FF920F931F93CF93DF938C014D
:101B6000EB01DC011496AD90BC9015970894A11C74
:101B7000B11CA114B10409F4FFC01E968D919D9172
:101B80000D90BC91A02D0097A105B10509F4F4C0FA
:101B90002FE0822E912C8A209B208114910409F041
:101BA000D5C00196A11DB11DF80186879787A08B2E
:101BB000B18B42855385648575850190F081E02D58
:101BC000411551056105710539F480859185A81687
:101BD000B90608F0D1C0BAC0828190E001979501A2
:101BE000A4E036952795AA95E1F7822393230097E1
:101BF00009F0ACC0CF010E94B6096B017C016230D4
:101C000071058105910508F4BBC08FEFC8168FEFF1
:101C1000D8068FEFE8068FEFF80609F4B3C0D801B5
:101C2000ED91FC91828D938DA48DB58DC816D9064A
:101C3000EA06FB0608F478C0209709F49DC0D80195
:101C40001A964D915D916D917C911D97CF010E94E7
:101C5000620B6B017C01611571058105910509F429
:101C60008DC0613071058105910509F489C06F3F10
:101C7000EFEF7E07EFEF8E07EFEF9E0709F482C0CC
:101C8000D8018D919C9140E050E0BA010E94D105AD
:101C9000882309F077C0F80180819181C29660E0C5
:101CA00070E040E052E00E947905D801CD91DC91CE
:101CB000CE01B701A6010E94BB0CDC01CB018EA7AF
:101CC0009FA7A8ABB9ABC0E0D1E01BC0D483F8019B
:101CD0008081918140E050E0BA010E94D1058823C3
:101CE00009F050C0D801ED91FC9186A597A5A0A957
:101CF000B1A90196A11DB11D86A797A7A0ABB1AB55
:101D0000CF5FD801ED91FC9111978281C817F0F255
:101D100086A597A5A0A9B1A98C1B9109A109B10914
:101D200086A797A7A0ABB1ABF801C286D386E4869D
:101D3000F58680819181B701A6010E94BB0CDC0170
:101D4000CB01F80186879787A08BB18BD8011596B8
:101D5000BC92AE9214978D919C911197C29635E0EA
:101D6000880C991C3A95E1F7880D991D53969C9320
:101D70008E93529780E007C084E005C087E003C0DF
:101D800082E001C081E0DF91CF911F910F91FF9020
:101D9000EF90DF90CF90BF90AF909F908F9008957D
:101DA0009F92AF92BF92CF92DF92EF92FF920F93EA
:101DB0001F93CF93DF938C017B01DB018C918F32DA
:101DC00011F08C3549F40894E11CF11CE8011E82E5
:101DD0001F82188619860CC0D801ED91FC91868966
:101DE0009789A08DB18DE8018E839F83A887B987DD
:101DF000F7018081803258F4C80160E070E00E94F1
:101E0000EF0CD80153961C921E92529705C145E0E3
:101E1000942EF801C489D589CE0160E270E04BE0D0
:101E200050E00E947905D7018C918E3249F0B701BC
:101E300040E050E0CC24DD24A8E0B0E080E01CC00D
:101E40008883F70121812E3229F42983228183E0BE
:101E500090E002C082E090E02F3229F02C3519F09A
:101E6000213208F0D6C0E80EF91E213210F484E2C7
:101E700001C080E28B87DCC0FB019191BF01089417
:101E8000C11CD11C9132C0F19F32C1F19C35B1F11E
:101E90009E3219F04A175B0774F0A830B10509F0BB
:101EA000B8C09E3209F0B5C0880F880F48E050E0F6
:101EB000ABE0B0E0E1CF97FDACC0A92EBB24EFE8CA
:101EC000F4E02191222329F030E02A153B05C9F7DF
:101ED000A0C0292F21542A3110F4826006C0292F76
:101EE00021562A3110F481609052FE01E40FF51F53
:101EF00090834F5F5F4FC0CF64E001C060E0411549
:101F0000510509F486C09881953E09F49882A8305D
:101F1000B10511F4880F880F90E09C012370307098
:101F20002130310509F460618C7090708430910526
:101F300009F46860EC0CFD1C6B877AC0D8011E9612
:101F40004D915D916D917C9151978D919C910E94E5
:101F5000D1058823F1F4E801EA89FB89908199236E
:101F6000B9F0938593FD0EC0AC89BD892BE030E0BC
:101F700021503040DFEF2F3F3D0759F041919D91B7
:101F80004917B1F3C80160E070E00E94A30D55C08D
:101F900084E0D8015496ED91FC91559743858823B0
:101FA000C9F08430C9F550E09A012470307045FFC3
:101FB0000DC0E8011E821F82188619861B8A1A8AA4
:101FC0002115310509F425CF80E026C02115310502
:101FD00011F122C042FD20C0D8015296ED91FC9132
:101FE0005397838584FF17C04489558960E070E06A
:101FF000BA0155274427828D938DA0E0B0E0482B8D
:10200000592B6A2B7B2BE8014E835F836887798786
:1020100000CF86E001C085E0DF91CF911F910F9145
:10202000FF90EF90DF90CF90BF90AF909F9008957A
:10203000C80160E070E00E94EF0C882309F47ECFB5
:10204000A8CFEF92FF920F931F93CF938C0160E084
:1020500070E00E94EF0CC82F8823C1F5D8011E96AE
:102060004D915D916D917C9151978D919C910E94C4
:10207000D105C82F882351F5D8015296ED91FC91D6
:1020800053978081853E49F1882339F1C80161E089
:1020900070E00E94A30DDFCFF801E288F388C7014A
:1020A00060E070E040E250E00E947905D80154966B
:1020B0006D917C915597C7014BE050E00E9453050C
:1020C000D801ED91FC91119781E084838C2FCF9101
:1020D0001F910F91FF90EF900895F8014685578565
:1020E00060897189808191810E94D105C82F8823E0
:1020F00069F7D2CFCF93DF93EC0194E018C08881C9
:1021000099810E94D105882339F5EA89FB8990815C
:10211000992309F1953E19F0938593FF19C0CE01DB
:1021200060E070E00E94A30D982F8823A9F44E85EB
:102130005F85688979894115510561057105F9F651
:10214000892F992329F01E861F86188A198A892FBC
:10215000DF91CF91089584E0982FF5CF8230C0F4BD
:1021600090E0880F991FFC01EC57FA4F0190F08125
:10217000E02D309709F010826115710511F0FB0117
:1021800010828C579A4FFC017183608380E0089520
:102190008BE008954F925F926F927F928F929F9201
:1021A000AF92BF92CF92DF92EF92FF921F93CF93A5
:1021B000DF93CDB7DEB7A4970FB6F894DEBF0FBE9E
:1021C000CDBF4C017CA36BA3DC011D921C92142F8C
:1021D0001F714E71CE018396BE01635F7F4F0E94D7
:1021E00012079E012F5F3F4F3AA329A3882331F4A2
:1021F0006BA17CA1CE010D960E94D00EAF8CB8A031
:10220000882321F4A114B10409F486E0212F30E0E1
:10221000A9014C7150704115510509F465C088231E
:1022200069F0843021F4CE010D960E942110AF8C0C
:10223000B8A0882309F0BBC0186007C012FDCDC04C
:10224000F5018385817109F0CCC013FF5AC00E944B
:102250004F05DC01CB01F50186879787A08BB18BF9
:102260001386148E158E168E178EC488D588EE248C
:10227000FF247601DD24CC24828D938DA0E0B0E094
:10228000C82AD92AEA2AFB2A158A148A138E128EA2
:102290008D859E8521E0DC0114962C931497C11442
:1022A000D104E104F10469F19E964D905D906D902A
:1022B0007C90D197B701A6010E943F0C882309F0BA
:1022C00076C08D859E850894C108D108E108F10883
:1022D000FC01C286D386E486F586B301A2010E9482
:1022E000D105882371F063C0882309F060C0D5014F
:1022F0001B968C911B9784FD72C011FF02C080FD5C
:1023000070C0812F8E7109F01062ED85FE8546A5A3
:1023100057A560A971A9D4015A964D935D936D9309
:102320007C935D975F96BC92AE925E9714961C93D9
:10233000D50154964D915C91559760E070E0BA01DB
:10234000552744275A968D919C915B97A0E0B0E069
:10235000482B592B6A2B7B2BD4011E964D935D93F2
:102360006D937C935197D5015C964D915D916D91E4
:102370007C915F97D4011A964D935D936D937C93F6
:102380001D9716961D921D921D921C921997569696
:102390001D921D921D921C9259971196FC93EE93DB
:1023A0008681978113969C938E93129780E0A496D2
:1023B0000FB6F894DEBF0FBECDBFDF91CF911F9156
:1023C000FF90EF90DF90CF90BF90AF909F908F9055
:1023D0007F906F905F904F90089588E0E8CF84E001
:1023E000E6CF87E0E4CF2F923F924F925F927F92A9
:1023F0008F929F92AF92BF92CF92DF92EF92FF9215
:102400000F931F93CF93DF9300D000D0CDB7DEB7EB
:102410009C838B83062FE72E2A013A832983D901D7
:102420001D921C92FC0162817381808191810E94C6
:10243000B806782E882309F053C1AB81BC8114966D
:102440008C91149787FD8DC080FF48C11A964D91DD
:102450005D916D917C911D9716968D919D910D903A
:10246000BC91A02D481B590B6A0B7B0BC201A0E04D
:10247000B0E0481759076A077B0708F42A01202EA5
:102480003E2C27C1EB81FC81068117812085318597
:10249000D901C8019170A070B0700097A105B10575
:1024A00009F0C1C080819181B901A801A9E07695A8
:1024B000679557954795AA95D1F7DC011296CC9070
:1024C0001297CA94C422A1F5011511052105310501
:1024D00029F486859785A089B1890AC0EB81FC81A2
:1024E00042895389648975890E94B609DC01CB0150
:1024F00082309105A105B10550F4AB81BC811496E1
:102500008C911497806814968C9314972AC08F3FEF
:10251000EFEF9E07EFEFAE07EFEFBE0719F4AB81C9
:10252000BC814BC0EB81FC81828B938BA48BB58BE0
:10253000AB81BC810D911C91119752964D915D918B
:102540006D917C915597C8010E94BB0CDC01CB01B9
:102550000097A105B10541F4EB81FC81848180687D
:102560008483E2E07E2EBCC04C015D018C0C911C8A
:10257000A11CB11C7201EF2CFF24E694E114F104BC
:1025800009F44BC0D80112968C911297DD24970163
:102590002C0D3D1D90E08217930718F47C01EC1878
:1025A000FD08F8018181B101A50194010E2D0E9461
:1025B000E702AB81BC81882341F014968C9114977B
:1025C000806814968C93149747C0ED91FC911197F5
:1025D00084818823E9F046A557A560A971A9481907
:1025E00059096A097B09C701A0E0B0E048175907FB
:1025F0006A077B0768F4CA01982F8827990FBF01E3
:102600006E5C7F4F820D931D40E052E00E945305A7
:102610008701102F0027110F3DC0EB81FC81868AB6
:10262000978AA08EB18EAB81BC811696CD90DD903D
:10263000ED90FC90199756964D915D916D917C911E
:1026400059978D919C910E94D105882341F0EB818F
:10265000FC818481806884837724739441C0C6019F
:10266000917020E032E0281B390B820124153505DA
:1026700008F48901AB81BC8116968D919C911797C6
:102680009170C2966D917C91680F791FC101A8016C
:102690000E945305200E311EA80160E070E0EB811E
:1026A000FC8186819781A085B185840F951FA61F27
:1026B000B71F86839783A087B187A981BA818D913F
:1026C0009C911197800F911F11969C938E93401AA5
:1026D000510A4114510409F0D5CE02C037E0732EDF
:1026E000872D0F900F900F900F90DF91CF911F913A
:1026F0000F91FF90EF90DF90CF90BF90AF909F90A1
:102700008F907F905F904F903F902F9008952F92E1
:102710003F924F925F926F927F928F929F92AF9271
:10272000BF92CF92DF92EF92FF920F931F93CF93BE
:10273000DF9300D000D0CDB7DEB79C838B83062F0C
:10274000E72E2A013A832983D9011D921C92FC01AC
:1027500062817381808191810E94B806782E8823DE
:1027600009F0C5C1AB81BC8114968C91149787FD8B
:10277000BEC081FFBAC11A964D915D916D917C9159
:102780001D97C201A0E0B0E0840F951FA61FB71FE0
:1027900084179507A607B70710F444245524202E64
:1027A0003E2C6624639480C1EB81FC814681578175
:1027B00060857185DB01CA019170A070B0700097CF
:1027C000A105B10509F015C120813181DB01CA01E4
:1027D00019E0B695A795979587951A95D1F7F901C0
:1027E000C280CA94C82209F049C04115510561054B
:1027F0007105C9F4EB81FC8186859785A089B18933
:102800000097A105B10509F5C90140E050E0BA0102
:102810000E94620BDC01CB01EB81FC8186879787EC
:10282000A08BB18B0DC0AB81BC8152964D915D9157
:102830006D917C915597C9010E94620BDC01CB011F
:102840000097A105B10509F433C181309105A105B7
:10285000B10531F4EB81FC8184818068848347C0B9
:102860008F3FFFEF9F07FFEFAF07FFEFBF0711F1AC
:10287000EB81FC81828B938BA48BB58BAB81BC816C
:102880008D919C911197FC0146A557A560A971A94E
:1028900056960D911D912D913C91599740175107D6
:1028A0006207730751F440E050E0BA010E94D1057D
:1028B000882319F0AB81BC8188C0EB81FC81008149
:1028C00011814289538964897589C8010E94BB0CB2
:1028D000DC01CB010097A105B10561F4AB81BC819E
:1028E00014968C911497806814968C93149732E008
:1028F000732EFDC04C015D018C0C911CA11CB11C00
:102900007201EF2CFF24E694E114F10409F444C0B1
:10291000F8018281DD2497012C0D3D1D90E0821786
:10292000930718F47C01EC18FD08D80111968C91DE
:10293000B101A50194010E2D0E943603882309F0F0
:102940006CC0AB81BC81ED91FC9146A557A560A9F7
:1029500071A9481959096A097B09C701A0E0B0E0CB
:10296000481759076A077B0790F4BA01762F662744
:10297000770F620D731DCF01C29640E052E00E94B6
:102980005305AB81BC81ED91FC91119714828701B5
:10299000102F0027110F69C0EB81FC818681978180
:1029A000A085B18542855385648575858417950713
:1029B000A607B707C0F0C80140E050E0BA010E9486
:1029C000D105AB81BC81882341F014968C9114977A
:1029D000806814968C93149725C0ED91FC9186A67F
:1029E00097A6A0AAB1AAEB81FC81868A978AA08EBD
:1029F000B18EAB81BC811696CD90DD90ED90FC90B0
:102A0000199756964D915D916D917C9159978D9145
:102A10009C910E94D105882341F0EB81FC81848147
:102A2000806884837724739462C0C601917020E02B
:102A300032E0281B390B82012415350508F4890181
:102A4000AB81BC8116968D919C9117979170C2961F
:102A50002D913C91820F931FB101A8010E94530553
:102A6000AB81BC81ED91FC916482200E311EA801E6
:102A700060E070E0EB81FC8186819781A085B18563
:102A8000840F951FA61FB71F86839783A087B187E2
:102A9000A981BA818D919C911197800F911F1196F8
:102AA0009C938E93401A510A4114510409F07CCE34
:102AB000EB81FC8186819781A085B1854285538514
:102AC00064857585481759076A077B0720F4828754
:102AD0009387A487B587AB81BC8114968C9114979A
:102AE000806214968C93149702C0B7E07B2E872DDA
:102AF0000F900F900F900F90DF91CF911F910F913A
:102B0000FF90EF90DF90CF90BF90AF909F908F900D
:102B10007F906F905F904F903F902F9008950F930C
:102B20001F93CF93DF93EC016A817B818881998128
:102B30000E94B8068823B9F59C8195FF34C04A8D60
:102B40005B8D6C8D7D8D888199810E94D105882354
:102B500051F50E8D1F8DF8018385806283878A85EC
:102B60009B85AC85BD85848F958FA68FB78F8E850D
:102B70009F85A889B989938F828FB58BA48B0E947A
:102B80004F05DC01CB01F801868B978BA08FB18FAD
:102B90008C818F7D8C83E881F98181E084838881B9
:102BA00099810E944A06DF91CF911F910F9108955C
:102BB000CF93DF93EC010E948F15882311F41982C3
:102BC0001882DF91CF910895823020F48093880598
:102BD00080E008958BE008950F931F93CF93DF93C8
:102BE000CDB7DEB7A4970FB6F894DEBF0FBECDBF4A
:102BF0009CA38BA3CE018396BE01635F7F4F40E011
:102C00000E9412078823C9F5CE0101969AA389A3D1
:102C10006BA17CA1CE010D960E94D00E882351F5A8
:102C2000EF8DF8A1309759F4ED85FE854B895C89CD
:102C30006D897E89468B578B608F718F1EC09385FF
:102C400094FF1AC0AD85BE854489558960E070E067
:102C5000BA0155274427028D138D20E030E0402B28
:102C6000512B622B732B56964D935D936D937C93F2
:102C7000599703C0843009F485E0A4960FB6F89400
:102C8000DEBF0FBECDBFDF91CF911F910F91089591
:102C90002F923F924F925F927F928F929F92AF922C
:102CA000BF92CF92DF92EF92FF920F931F93CF9339
:102CB000DF9300D000D000D0CDB7DEB79E838D83E8
:102CC0006A017B01DC0112966D917C9113978D91C5
:102CD0009C910E94B806782E882309F088C1ED8166
:102CE000FE81248127FD81C182859385A485B585D8
:102CF0008C159D05AE05BF0520F421FD02C06C01B9
:102D00007D01ED81FE8186819781A085B185168246
:102D1000178210861186C114D104E104F10409F46C
:102D200031C100811181F80182809924AA24BB2439
:102D300039E0880C991CAA1CBB1C3A95D1F7009766
:102D4000A105B105F1F11C012D01089421083108FC
:102D500041085108C701B601615070408040904061
:102D6000A50194010E941E2529833A834B835C832D
:102D7000C201B101A50194010E941E2589819A8199
:102D8000AB81BC8182179307A407B507D0F08827D1
:102D90009927DC0188199909AA09BB098221932185
:102DA000A421B521ED81FE8186839783A087B18719
:102DB000C81AD90AEA0AFB0A4289538964897589C3
:102DC00036C0AD81BE811E964D915D916D917C9115
:102DD0005197411551056105710509F5C80140E09C
:102DE00050E0BA010E94620BAB01BC0141305105B9
:102DF0006105710519F4ED81FE815FC04F3FFFEF62
:102E00005F07FFEF6F07FFEF7F0719F4AD81BE810A
:102E100036C0ED81FE8146875787608B718BAD810F
:102E2000BE8152964D935D936D937C93559741155A
:102E300051056105710509F4A5C00D811E815BC0B6
:102E4000F80124818081918121FF0AC00E94620BD8
:102E5000AB01BC01411551056105710529F454C050
:102E60000E94B609AB01BC014F3FFFEF5F07FFEFC8
:102E70006F07FFEF7F0769F41E830D83D801149657
:102E80008C911497806814968C931497772473947C
:102E9000AEC0423051056105710560F0D801ED9179
:102EA000FC91828D938DA48DB58D481759076A07C3
:102EB0007B0738F01E830D83F8018481806884834A
:102EC00094C0D80152964D935D936D937C93559722
:102ED00016968D919D910D90BC91A02D880D991DF8
:102EE000AA1DBB1DF80186839783A087B187C818E8
:102EF000D908EA08FB088C149D04AE04BF0408F44A
:102F00009FCF1E830D8304C01E830D837501640152
:102F1000ED81FE8186819781A085B1858C0D9D1DF7
:102F2000AE1DBF1D86839783A087B187D701C601D9
:102F30009170A070B0700097A105B10519F1808162
:102F400091810E94BB0CAB01BC014115510561058B
:102F5000710551F4AD81BE8114968C9114978068EF
:102F600014968C93149741C0D701C60129E0B695F9
:102F7000A795979587952A95D1F7840F951FA61F3A
:102F8000B71F03C080E090E0DC01ED81FE81068187
:102F9000178120853185B901A8015170607070706A
:102FA000411551056105710569F046895789608DA4
:102FB000718D84179507A607B70721F0868B978B2D
:102FC000A08FB18FED81FE8182859385A485B58523
:102FD00080179107A207B30750F40287138724874D
:102FE000358784818062848302C082E0782E872DB9
:102FF00026960FB6F894DEBF0FBECDBFDF91CF91FE
:103000001F910F91FF90EF90DF90CF90BF90AF9006
:103010009F908F907F905F904F903F902F9008955A
:103020000F931F93CF93DF93CDB7DEB72E970FB6D5
:10303000F894DEBF0FBECDBF8C017E876D87CE01B9
:103040000D96B80140E00E941207882309F03FC0A6
:10305000CE010196D80155969C938E9354976D8519
:103060007E85C8010E94D00E882371F5D801529642
:10307000ED91FC9153973097C1F0838584FF26C072
:1030800084899589A0E0B0E0DC0199278827228D0A
:10309000338DA90160E070E0842B952BA62BB72B14
:1030A000F80186839783A087B187D801ED91FC91C1
:1030B00011978681978113969C938E931297C801DE
:1030C00060E070E00E94EF0C843009F485E02E96F9
:1030D0000FB6F894DEBF0FBECDBFDF91CF911F9129
:1030E0000F910895CF92DF92FF920F931F93CF938A
:1030F000DF93CDB7DEB72C970FB6F894DEBF0FBEC7
:10310000CDBF8C016B01FC01628173818081918153
:103110000E94B806F82E882371F5C114D10431F449
:10312000C80160E070E00E94EF0C24C09E012F5F98
:103130003F4FF801358B248BC8010E947A108430F0
:1031400031F4F80116861786108A118A02C0882386
:1031500089F4C801B6010E948305C80160E070E0EF
:103160000E94A30D843031F4F80116861786108A68
:10317000118A01C0F82E8F2D2C960FB6F894DEBF61
:103180000FBECDBFDF91CF911F910F91FF90DF90C8
:10319000CF900895FF920F931F93CF93DF93CDB7F6
:1031A000DEB7A4970FB6F894DEBF0FBECDBF9CA3C9
:1031B0008BA38B01CE018396BE01635F7F4F40E0FE
:1031C0000E941207F82E8823D1F4CE0101969AA30B
:1031D00089A36BA17CA1CE010D960E94D00EF82E82
:1031E000882369F42F8D38A12115310531F0CE01E6
:1031F0000D96B8010E94830502C056E0F52E8F2D72
:10320000A4960FB6F894DEBF0FBECDBFDF91CF916D
:103210001F910F91FF9008952F923F924F925F92CE
:103220006F927F928F929F92AF92BF92CF92DF92D6
:10323000EF92FF920F931F93CF93DF9300D000D0B4
:10324000CDB7DEB79A8389837C836B831A01CE0165
:103250000196BA0140E00E941207182F882309F056
:10326000C1C0D101ED91FC9186859785A089B18976
:10327000428C538C648C758CB301A2014250504037
:1032800060407040481759076A077B0738F0EB81A8
:10329000FC8180839183A283B383A4C00081013029
:1032A000D9F562E0862E912CA12CB12CCC24DD2402
:1032B0007601D1018D919C91B501A4010E94B609BE
:1032C000DC01CB018F3FEFEF9E07EFEFAE07EFEF93
:1032D000BE0709F470C081309105A105B10509F45C
:1032E0006CC00097A105B10529F40894C11CD11C3C
:1032F000E11CF11C0894811C911CA11CB11CD10182
:10330000ED91FC91828D938DA48DB58D88169906D3
:10331000AA06BB0670F254C082A093A0A4A0B5A0D8
:10332000E0E0F0E020E030E0CC24DD24760121155F
:103330003105A9F4F10180819181B501A4010E94B8
:10334000D1058823E1F50894811C911CA11CB11CB6
:10335000D101ED91FC911197F29620E032E002301C
:1033600069F480819181009729F40894C11CD11CD3
:10337000E11CF11C32962250304011C080819181B5
:10338000A281B381BF700097A105B10529F408940B
:10339000C11CD11CE11CF11C34962450304008940F
:1033A0004108510861087108411451046104710415
:1033B00009F0BDCF05C011E003C012E001C0182F15
:1033C000D101ED91FC911197C686D786E08AF18AEA
:1033D000033011F481E08583EB81FC81C082D182CE
:1033E000E282F382812F0F900F900F900F90DF9168
:1033F000CF911F910F91FF90EF90DF90CF90BF90F2
:10340000AF909F908F907F906F905F904F903F9084
:103410002F9008958F929F92AF92BF92EF92FF925A
:103420000F931F93CF937C01FC0162817381808194
:1034300091810E94B806C82F882309F05AC0F7016D
:10344000248127FD04C021FD5FC0C7E052C0C2E057
:1034500050C0F70182879387A487B58720622483B1
:10346000208131810097A105B10571F4468557850A
:1034700060897189C9010E943F0CC82FF701168627
:103480001786108A118A2FC0F701428953896489EF
:103490007589C9010E94B6094B015C016F3FFFEFBE
:1034A0007F07FFEF8F07FFEF9F07F1F181E088169D
:1034B0009104A104B104E1F539C0F70142895389AF
:1034C000648975890FEF1FEF2FEF3FE00E94800A9C
:1034D000C82F882351F4F70180819181B501A4019F
:1034E0000E943F0CC82FCC2321F0F7018481806813
:1034F00084838C2FCF911F910F91FF90EF90BF90FD
:10350000AF909F908F900895F70186819781A08555
:10351000B185428553856485758584179507A6070F
:10352000B70708F496CFE5CFC1E0DFCFC2E0DDCF2B
:10353000F70180819181FC01428D538D648D758DE1
:1035400084169506A606B706A0F6B7CFCF92DF92EF
:10355000EF92FF92CF93DF93CDB7DEB7EA970FB626
:10356000F894DEBF0FBECDBF9AAF89AFCE01C9962A
:10357000BE016D5D7F4F41E00E941207882309F074
:1035800085C0CE01019698AF8FAB69AD7AADCE0103
:1035900083960E94D00E882309F078C0EFA9F8AD79
:1035A000938595FF80C086E071C0938590FF03C02E
:1035B00087E001C086E0C488D588228D338D8823BA
:1035C00009F064C0EE24FF247601DD24CC24C90177
:1035D000A0E0B0E0C82AD92AEA2AFB2A838584FF22
:1035E00068C082E0C816D104E104F10448F1CE01BC
:1035F0000D96BE016D5D7F4F46E150E00E94530580
:10360000CB8ADC8AED8AFE8ACE010D9662E070E0FC
:103610000E94EF0C8823D1F5CE010D960E947A10FE
:10362000882381F0ED85FE8546895789608D718DEF
:10363000C416D506E606F70629F08430D1F126C077
:1036400082E024C087E022C049A95AA96BA97CA9BD
:103650008BA19CA10E94D1058823C1F4EDA9FEA9EC
:1036600085EE80838BA19CA121E0FC012483C11401
:10367000D104E104F10431F0B701A6010E943F0C2E
:10368000882321F48BA19CA10E944A06EA960FB6DA
:10369000F894DEBF0FBECDBFDF91CF91FF90EF90CA
:1036A000DF90CF900895EDA9FEA9309709F07DCF66
:1036B00081CF6FA178A5CE0183960E94EF0C88235D
:1036C00029F7C2CF2F923F924F925F926F927F92D3
:1036D0008F929F92BF92CF92DF92EF92FF920F93C1
:1036E0001F93CF93DF93CDB7DEB7AA970FB6F894A9
:1036F000DEBF0FBECDBF9CA38BA30E944F056DA361
:103700007EA38FA398A7CE018396BE01635F7F4FF0
:1037100041E00E941207082F882309F0E8C0CE017B
:1037200001969AA389A36BA17CA1CE010D960E945C
:10373000D00E082F882351F0843009F0D8C0E9A1B9
:10374000FAA1838585FFECC006E0D1C008E0CFC0B8
:1037500081E0C816D104E104F10409F4F2C09FEF3E
:10376000C9169FEFD9069FEFE9069FEFF90609F406
:10377000EAC0EBC00D851E85C801B701A6010E94F5
:10378000BB0C2B013C01E2E38E2E912C800E911E8E
:10379000C40160E070E040E052E00E947905C4019D
:1037A00060E270E04BE050E00E947905FEE2BF2E3F
:1037B000D801D296BC92D29780E1DD968C93F80125
:1037C000E85BFF4F8DA19EA1AFA1B8A58083918337
:1037D000A283B383DAA6C9A6F801E45BFF4FD182C6
:1037E000C082C701AA27BB271C01F801EA5BFF4F73
:1037F00091838083C8018E5A9F4FB40140E250E00C
:103800000E945305F801ED5AFF4FB0824B895C8945
:103810006D897E892D853E85D9018C91833071F427
:1038200096968D919D910D90BC91A02D48175907AA
:103830006A077B0719F440E050E0BA01F801E45947
:10384000FF4F51834083F801EA59FF4F7183608332
:10385000F9011281BB24B39420C08D859E85DC01C3
:103860009E964D925D926D927C92D1971496BC92E9
:1038700040E050E0BA010E94D105082F8823B1F43E
:103880000894411C511C611C711CC40160E070E073
:1038900040E052E00E94790511501123F1F6CE016B
:1038A0000D960E942110082F882339F08D859E8562
:1038B000B701A6010E943F0C1AC0EF8DF8A180E16C
:1038C00083878DA19EA1AFA1B8A5868B978BA08F72
:1038D000B18FA9A5BAA5B38FA28F358A248A8D8509
:1038E0009E8521E0FC0124830E944A06082F802F38
:1038F000AA960FB6F894DEBF0FBECDBFDF91CF9171
:103900001F910F91FF90EF90DF90CF90BF909F900D
:103910008F907F906F905F904F903F902F90089581
:103920008D859E8540E050E0BA010E94620B6B01DC
:103930007C01611571058105910509F009CF07E04A
:10394000B5CF02E0B3CF01E0B1CF8D859E8540E0D9
:1039500050E0BA010E94D105082F882309F40ACF4C
:10396000A5CF0F931F93CF93DF93CDB7DEB7A49767
:103970000FB6F894DEBF0FBECDBF9CA38BA3162F4E
:10398000042FCE018396BE01635F7F4F41E00E940A
:103990001207882319F5CE0101969AA389A36BA17A
:1039A0007CA1CE010D960E94D00E8823B9F4E9A126
:1039B000FAA1838585FF1DC010C00772802F8095F6
:1039C000938589230123802B83878D859E8521E024
:1039D000FC0124830E944A0601C086E0A4960FB62B
:1039E000F894DEBF0FBECDBFDF91CF911F910F9135
:1039F0000895EF8DF8A1309701F7EFCF0F931F9344
:103A0000CF93DF93CDB7DEB7A4970FB6F894DEBFA0
:103A10000FBECDBF9CA38BA38B01CE018396BE01AD
:103A2000635F7F4F41E00E941207882341F5CE017A
:103A300001969AA389A36BA17CA1CE010D960E9449
:103A4000D00E8823E1F4E9A1FAA1838585FF22C085
:103A500015C0D80116968D919C911797978B868BE0
:103A600014968D919C911597918F808F8D859E8551
:103A700021E0FC0124830E944A0601C086E0A4964E
:103A80000FB6F894DEBF0FBECDBFDF91CF911F916F
:103A90000F910895EF8DF8A13097D9F6EFCFEF92FF
:103AA000FF920F931F93CF93DF93CDB7DEB7CF5421
:103AB000D0400FB6F894DEBF0FBECDBF60969FAF6B
:103AC0008EAF60978B01CE01825B9F4FBE01685C19
:103AD0007F4F41E00E941207882309F0CFC088ADD4
:103AE00099AD9BA38AA3CE0101962E969FAF8EAF70
:103AF0002E9760966EAD7FAD6097CE01C8960E94FE
:103B0000D00E882309F0BAC02E96EEADFFAD2E97E9
:103B1000838585FFC1C086E0B1C0655F7F4FCE0160
:103B20000D9645E150E00E945305CE018296BE01FC
:103B3000685C7F4F46E150E00E945305CE018296BB
:103B4000B8010E94D00E882309F495C0843009F092
:103B500095C0CE0182960E942110882309F08EC064
:103B60000CA91DA9C8010D96BE01615F7F4F43E1FD
:103B700050E00E9453058D858062F8018387E8AD8F
:103B8000F9AD81E0848322964CAD5DAD6EAD7FAD25
:103B9000229788A599A5AAA5BBA5481759076A0722
:103BA0007B0709F446C0F801838584FF42C0EAA080
:103BB000FBA0428D538D84899589482B592B60E059
:103BC00070E0C7010E94BB0CAB01BC01411551055F
:103BD0006105710509F469C0C7010E94D105EAA118
:103BE000FBA1882309F04AC0DF01AD5ABF4F8C9179
:103BF0008E32F9F4808148A559A56AA57BA583304A
:103C000061F486A197A1A0A5B1A5481759076A0735
:103C10007B0719F440E050E0BA01DF01A459BF4F1F
:103C20004D935C93DF01AA59BF4F6D937C9381E064
:103C300084836CAD7DADCE01C8960E94EF0C8823C5
:103C4000E9F42A964CAD5DAD6EAD7FAD2A9788AD97
:103C500099AD0E94D105882389F42C96EEADFFAD75
:103C60002C9785EE808388AD99AD21E0FC012483FB
:103C70000E944A0603C088E001C084E0C15BDF4FB8
:103C80000FB6F894DEBF0FBECDBFDF91CF911F916D
:103C90000F91FF90EF9008952C966EAD7FAD2C970D
:103CA0006115710509F039CFE8CF82E0E7CF2F9297
:103CB0003F924F925F926F927F928F929F92AF92BC
:103CC000BF92CF92DF92EF92FF920F931F93CF9309
:103CD000DF93CDB7DEB7A5970FB6F894DEBF0FBE62
:103CE000CDBF8D876DA38A01823008F047C4E82FCD
:103CF000F0E0EE0FFF1FEC57FA4F60807180611407
:103D0000710409F43DC4D3011C920E942B0280FD72
:103D100039C482FD39C48D8561E0AE014F5F5F4FCC
:103D20000E94A503882309F033C489809A80AB8060
:103D3000BC80B0E88B169104A104B10408F428C437
:103D4000EDA1E13029F41F86188A198A1A8A08C061
:103D50002FE330E040E050E02F87388B498B5A8BBF
:103D60008F859889A989BA89881A990AAA0ABB0AEB
:103D700089829A82AB82BC82C801019780239123F9
:103D8000009719F40115110511F5C501B40120EDD5
:103D900037E040E050E00E941E2589019A01E5ECE1
:103DA000F4E080E090E0AC0102C04F5F5F4F819192
:103DB0009191A0E0B0E0081719072A073B07A8F384
:103DC000FA01EE0FFF1FE552FB4F00811181D80170
:103DD000AB2FBB27A695B8A3AF8F109721F4E1E0D6
:103DE000F0E0F8A3EF8F2F8D38A11901442455245A
:103DF000C501B401A20191010E941E2589019A0109
:103E0000063F4FE0140740E0240740E0340750F03D
:103E1000063F5FEF150750E0250750E0350708F033
:103E2000D2C3F4C3D901C801880F991FAA1FBB1FB1
:103E3000800F911FA21FB31F0196A11DB11DB69542
:103E4000A795979587950396A11DB11DE1E0EE8793
:103E50009C01AD0121503E4F4F4F5F4F09E05695F9
:103E60004795379527950A95D1F729873A874B8744
:103E70005C8780E290E0A0E0B0E08B8F9C8FAD8FFC
:103E8000BE8F21E030E040E050E02B8B3C8B4D8B2F
:103E90005E8B8B899C89AD89BE892F85388949893C
:103EA0005A89820F931FA41FB51F8F8B988FA98FDC
:103EB000BA8FCB8CDC8CED8CFE8C89859A85AB859A
:103EC000BC85C80ED91EEA1EFB1E2F89388D498D70
:103ED0005A8DC20ED31EE41EF51ED701C601820DF7
:103EE000931DA41DB51D88169906AA06BB0608F4E5
:103EF0004DC38D8563E0AE014B5F5F4F0E94A5030C
:103F0000882309F045C34D815E816F817885DB018F
:103F1000CA010197A109B109803030E8930730E068
:103F2000A30730E0B30708F031C38C0D9D1DAE1D13
:103F3000BF1D70956095509541955F4F6F4F7F4FB6
:103F400084239523A623B7238C199D09AE09BF09A5
:103F50008D839E83AF83B8874E854330C9F42B8908
:103F60003C894D895E89280F391F4A1F5B1F2B8BA7
:103F70003C8B4D8B5E8B2F89388D498D5A8D280F48
:103F8000391F4A1F5B1F2F8B388F498F5A8F0CC0E8
:103F900029853A854B855C85280F391F4A1F5B1F91
:103FA00029873A874B875C87C980DA80EB80FC8061
:103FB000D701C6012B893C894D895E89821B930BF1
:103FC000A40BB50B29853A854B855C85821B930B29
:103FD000A40BB50B2B8D3C8D4D8D5E8D821B930BF1
:103FE000A40BB50BBC01CD01A20191010E941E25BD
:103FF00029A33AA34BA35CA33E85323071F489A177
:104000009AA1ABA1BCA1863FEFE09E07E0E0AE071E
:10401000E0E0BE0708F4BAC210C0FE85F33069F4D0
:1040200029A13AA14BA15CA1263F8FEF380780E080
:10403000480780E0580708F4A9C29DA1913009F40F
:104040008FC02F85388949895A89C20ED31EE41E34
:10405000F51EB2E32B2E312C260C371CC10160E07B
:1040600070E040E052E00E947905F301E051FE4F1C
:1040700080E891E0A1E0B0E080839183A283B383E4
:1040800016EF812E11E0912E860C971C30E0C3169E
:1040900034E0D3063BEFE30630E0F306C8F4C70193
:1040A000B60121EC3EE340E050E00E941E2589016C
:1040B0009A01F301E950FE4F0083A2E0369527955F
:1040C00017950795AA95D1F70F63D4010C9305C0F6
:1040D0008FEF9FEFF40191838083F301EB50FE4F4C
:1040E0008EEF808349815A816B817C81F301EC5092
:1040F000FE4F2E85233061F0403030E0530731E031
:10410000630730E0730710F484E003C086E001C069
:104110008CE08083F301E850FE4F8FE390E0A0E055
:10412000B0E080839183A283B383F301E450FE4F18
:104130004083518362837383F301E05DFD4F85E526
:104140009AEA918380838D85B10120E030E0A90156
:1041500001E00E943603882309F01AC218EF01C05B
:1041600010EFE2E32E2E312C260C371CC10160E04B
:1041700070E040E052E00E9479058BEE9EEFA0E9EE
:10418000B0E0F30182AB93ABA4ABB5AB80E092E0BF
:1041900096AF85AF2F8D27AFE05CFF4F4B895C89D1
:1041A00051834083F301EE5BFF4F81E080835E85A6
:1041B000533019F4CC24DD2403C0C12C72E0D72E77
:1041C000F301ED5BFF4FD182C08289819A81AB817F
:1041D000BC818030E0E09E07E1E0AE07E0E0BE0792
:1041E00030F4F301EB5BFF4F9183808307C0F30151
:1041F000EE5AFF4F80839183A283B383F301E95B7F
:10420000FF4F1083F301E65BFF4F8FE390E0918354
:104210008083F301E45BFF4F8FEF90E09183808315
:10422000F301E25BFF4F2F85388949895A89208342
:104230003183428353830E944F05DC01CB018D8380
:104240009E83AF83B88793012A5A3F4F4E85F3016F
:104250004330C1F5EB58FF4F80839183A283B38332
:1042600089859A85AB85BC85F90180839183A2837A
:10427000B383F301E25AFF4F82E090E0A0E0B0E0A8
:1042800080839183A283B383F301EE59FF4F81E0D2
:1042900090E091838083F301EC59FF4F86E090E03A
:1042A00091838083F301EE58FF4F80E88083F30110
:1042B000EC58FF4F89E28083C30187589F4F6DE917
:1042C00074E01AC0E75AFF4F80839183A283B383BF
:1042D000F301E85BFF4F49855A855183408380E8AD
:1042E000D9018C93F301E85AFF4F89E28083C3011F
:1042F000835A9F4F61EB74E043E150E00E94530505
:10430000F301E05DFD4F85E59AEA918380838D8519
:10431000B1012F85388949895A8901E00E94360305
:10432000882309F035C1BE85B33061F42F85388903
:1043300049895A892A5F3F4F4F4F5F4F8D85B101A1
:104340000E943603C10160E070E040E052E00E944C
:104350007905412F50E060E070E0EE85E330C9F070
:10436000E13029F080E09FEFAFEFBFEF04C080E0C5
:104370009FEFAFEFB0E0842B952BA62BB72B8D834F
:104380009E83AF83B887F30182AB93ABA4ABB5AB8D
:104390001BC05F6F6F6F7F604D835E836F83788715
:1043A000D301D2964D935D936D937C93D5978FEF08
:1043B0009FEFAFEFBFE0F30186AB97ABA0AFB1AF1C
:1043C00082AF93AFA4AFB5AF8D85B1012F89388D82
:1043D000498D5A8D01E00E943603882309F0D8C028
:1043E0008F88988CA98CBA8C0894811C911CA11C74
:1043F000B11CC10160E070E040E052E00E9479052C
:1044000081E090E0A0E0B0E016C08D85B101A5018B
:10441000940101E00E943603882309F0B9C0089492
:10442000811C911CA11CB11C8D819E81AF81B8851E
:104430000196A11DB11D8D839E83AF83B8878D81A9
:104440009E81AF81B88529853A854B855C85821729
:104450009307A407B507C8F23E85333039F4C60187
:10446000A0E0B0E08B8F9C8FAD8FBE8F2B8D3C8DED
:104470004D8D5E8D2D833E834F83588713C075010C
:1044800064010894C11CD11CE11CF11C8D85B10193
:10449000A501940101E00E943603882309F078C049
:1044A000460157018D819E81AF81B885AC01BD0168
:1044B00041505040604070404D835E836F837887E9
:1044C0000097A105B105D9F63E85333009F04BC000
:1044D000F301E05DFD4F85E59AEA9183808382E5F3
:1044E00092E5A1E6B1E4F30182AB93ABA4ABB5AB2B
:1044F000EA5EFD4F82E792E7A1E4B1E68083918313
:10450000A283B383F301E65EFD4F89A19AA1ABA11B
:10451000BCA10197A109B10980839183A283B383D0
:10452000F301E25EFD4F8FEF9FEFDC01808391830B
:10453000A283B3832F85388949895A892F5F3F4FDA
:104540004F4F5F4F8D85B10101E00E9436032F85EB
:10455000388949895A89295F3F4F4F4F5F4F8D8571
:10456000B1010E9436038D8560E040E050E00E947A
:10457000A50391E0882369F490E00BC09BE009C09B
:104580009CE007C093E005C09AE003C09EE001C034
:1045900091E0892FA5960FB6F894DEBF0FBECDBF70
:1045A000DF91CF911F910F91FF90EF90DF90CF900F
:1045B000BF90AF909F908F907F906F905F904F9043
:1045C0003F902F900895D901C80152E0880F991F9C
:1045D000AA1FBB1F5A95D1F7895F9D4FAF4FBF4FA1
:1045E00069E0B695A795979587956A95D1F78987DC
:1045F0009A87AB87BC8793E09E871B8E1C8E1D8E8F
:104600001E8E20E230E040E050E03FCCD901C801EE
:104610000296A11DB11D880F991FAA1FBB1F32E072
:104620003E8716CCBC0180E00E94AE10882351F476
:104630000E942B0281FD08C080FD08C082FF08C0D7
:1046400084E0089581E0089582E0089583E008956C
:1046500080E00895EF92FF920F931F93CF93DF9323
:104660000F92CDB7DEB7BC0186EC97E041E00E9427
:10467000CA10882309F050C086EC97E0BE016F5F36
:104680007F4F41E050E022EC37E00E94F31181EFD0
:10469000E82E84E0F82E00E010E010C00F5F1F4FFE
:1046A00004301105A1F086EC97E0BE016F5F7F4FEB
:1046B00041E050E022EC37E00E94F311F7018191D4
:1046C0007F019981981751F380E090E002C081E06A
:1046D00090E02091C2073091C3072115310511F0F8
:1046E000009751F204E010E086EC97E0BE016F5FA6
:1046F0007F4F41E050E022EC37E00E94F31101507F
:10470000104091F786EC97E066EE77E040E058E0E5
:1047100022EC37E00E94F3110F90DF91CF911F91AF
:104720000F91FF90EF900895CF93DF93EB010E94DC
:104730002A231092C5071092C407809180008168D7
:10474000809380008091810089608093810014BCF7
:1047500085B5836085BD80916E00826080936E0018
:104760008FE087BD16BC8091C4079091C50728E0F3
:104770008030920714F18091C2079091C30700978F
:10478000E1F01092C5071092C40786EC97E066EE40
:1047900077E040E058E022EC37E00E94F3118823F4
:1047A000A1F78091C2079091C3070097F1F480911F
:1047B0006E008D7F80936E001DC08091BE0790912A
:1047C000BF07009791F0209781F480916E008D7F54
:1047D00080936E0086EF94E061E070E00E94942385
:1047E0001092BF071092BE0705C082E08A95F1F7CC
:1047F00000C0B9CFDF91CF91089511B887EE84B989
:104800008FEF87B91AB88BB183608BB987E08DB908
:1048100010BA08951092BF071092BE071092C107F8
:104820001092C0078DB38DBBE9E6F0E080818F6008
:104830008083E89A789408951F920F920FB60F9292
:1048400011242F933F934F935F936F937F938F9395
:104850009F93AF93BF93EF93FF9380918B05882332
:1048600041F481E080938B051092C1071092C0073C
:1048700010C08091C0079091C107009751F481E06A
:1048800090E09093C1078093C00781E095E00E947B
:104890008300FF91EF91BF91AF919F918F917F9195
:1048A0006F915F914F913F912F910F900FBE0F909D
:1048B0001F9018951F920F920FB60F9211242F93ED
:1048C0003F934F935F936F937F938F939F93AF9398
:1048D000BF93EF93FF9389E195E00E94830080915D
:1048E000C0079091C107009739F081E090E0909364
:1048F000BF078093BE0714C081E090E09093C1078A
:104900008093C0078EE295E061E070E00E949423FE
:104910001092C1071092C0071092BF071092BE07F5
:10492000FF91EF91BF91AF919F918F917F916F9187
:104930005F914F913F912F910F900FBE0F901F905D
:1049400018951F920F920FB60F9211242F933F9339
:104950008F939F93EF93FF9316BC8091C407909120
:10496000C507FC01EA51F84F208130E030938900FF
:104970002093880001969093C5078093C407FF9108
:10498000EF919F918F913F912F910F900FBE0F90BC
:104990001F90189580E880936100109261000E943A
:1049A000FD230E946B0089E395E00E9483008CE860
:1049B00095E00E941223882329F00E94EE0081E0F6
:1049C00090E0089580E695E00E9483000E940A240A
:1049D0008091C0079091C107009731F082E795E080
:1049E00060E070E00E9494231092C1071092C0070B
:1049F0008FEC97E00197F1F700C00000E9CF629FCC
:104A0000D001739FF001829FE00DF11D649FE00DC6
:104A1000F11D929FF00D839FF00D749FF00D659F27
:104A2000F00D9927729FB00DE11DF91F639FB00D26
:104A3000E11DF91FBD01CF0111240895A1E21A2E35
:104A4000AA1BBB1BFD010DC0AA1FBB1FEE1FFF1F32
:104A5000A217B307E407F50720F0A21BB30BE40B82
:104A6000F50B661F771F881F991F1A9469F76095C9
:104A70007095809590959B01AC01BD01CF01089583
:044A8000F894FFCFD8
:104A840068617264206572726F72206F63637572FD
:104A940072656420696E20746865206C6F77206C81
:104AA4006576656C206469736B20492F4F206C61B7
:104AB4007965720D0A00417373657274696F6E20B3
:104AC4006661696C65640D0A0054686520706879D4
:104AD400736963616C2064726976652063616E6ECC
:104AE4006F7420776F726B0D0A00436F756C6420CE
:104AF4006E6F742066696E64207468652066696CE4
:104B0400650D0A00436F756C64206E6F74206669CE
:104B14006E642074686520706174680D0A005468BE
:104B2400652070617468206E616D6520666F726DBA
:104B3400617420697320696E76616C69640D0A0082
:104B44004163636573732064656E6965642064758D
:104B54006520746F2070726F68696269746564207F
:104B6400616363657373206F722064697265637433
:104B74006F72792066756C6C0D0A0041636365730E
:104B8400732064656E6965642064756520746F20A4
:104B940070726F68696269746564206163636573C8
:104BA400730D0A005468652066696C652F64697228
:104BB4006563746F7279206F626A656374206973C8
:104BC40020696E76616C69640D0A00546865207012
:104BD4006879736963616C206472697665206973AE
:104BE4002077726974652070726F7465637465648C
:104BF4000D0A00546865206C6F676963616C2064FA
:104C040072697665206E756D6265722069732069BC
:104C14006E76616C69640D0A0054686520766F6C69
:104C2400756D6520686173206E6F20776F726B20DD
:104C3400617265610D0A00546865726520697320AC
:104C44006E6F2076616C69642046415420766F6CE7
:104C5400756D65206F6E207468652070687973695E
:104C640063616C2064726976650D0A00546865207E
:104C7400665F6D6B667328292061626F7274656468
:104C84002064756520746F20616E79207061726193
:104C94006D65746572206572726F720D0A00436FE0
:104CA400756C64206E6F7420676574206120677270
:104CB400616E7420746F206163636573732074681C
:104CC4006520766F6C756D652077697468696E20F0
:104CD400646566696E656420706572696F640D0A47
:104CE40000546865206F7065726174696F6E206925
:104CF400732072656A6563746564206163636F72AF
:104D040064696E6720746F207468652066696C65D9
:104D14002073686172696E6720706F6C6963790DC6
:104D24000A004C464E20776F726B696E672062757D
:104D34006666657220636F756C64206E6F742062A2
:104D44006520616C6C6F63617465640D0A004E7557
:104D54006D626572206F66206F70656E2066696C87
:104D64006573203E205F46535F53484152450D0A08
:104D740000556E6B6E6F776E205344204572726FD0
:104D8400720D0A004572726F72206D6F756E7469D0
:104D94006E6720534420636172640D0A004E6F20D5
:104DA400534420636172642064657465637465644C
:104DB4000D0A00556E61626C6520746F20696E691E
:104DC4007469616C697A65204641542066696C6532
:104DD40073797374656D0D0A0053442063617264C2
:104DE4002069732077726974652070726F746563CB
:104DF4007465640D0A00556E6B6E6F776E205344B4
:104E04002063617264206572726F720D0A00012260
:104E14002A2B2C3A3C3D3E3F5B5D7C7F004E4F206D
:104E24004E414D452020202046415433322020203D
:104E3400004E4F204E414D45202020204641542015
:104E440020202020000004000200018000400020F7
:104E54000010000800040002000000008000400070
:104E6400200010000800400020001000080004008A
:104E74000264617461002F616C61726D2E776176DA
:104E840000506C61796261636B20696E7465727243
:104E94007570742E2E2E0D0A00416C61726D20699E
:104EA4006E746572727570742E2E2E0D0A002F6149
:104EB4006C61726D2E776176004D6F756E74696EDC
:104EC40067205344206361726420616E64206F70B4
:104ED400656E696E672066696C652E2E2E0D0A005C
:104EE40053442063617264206D6F756E7465640D44
:104EF4000A002F6D6573736167652E776176000014
:00000001FF
