:100000000C9446000C9465000C9465000C946500FB
:100010000C9465000C9465000C9465000C946500CC
:100020000C9465000C9465000C9465000C946500BC
:100030000C9465000C9465000C9465000C946500AC
:100040000C9465000C9465000C9465000C9465009C
:100050000C9465000C9465000C9465000C9465008C
:100060000C9465000C9465000C9465000C9465007C
:100070000C9465000C9465000C9465000C9465006C
:100080000C9465000C9465000C94650011241FBE4F
:10009000CFEFD0E1DEBFCDBF11E0A0E0B1E0E0EDF9
:1000A000F3E000E00BBF02C007900D92A431B1074E
:1000B000D9F711E0A4E1B1E001C01D92A432B1076B
:1000C000E1F70E9467000C94E6010C940000EF92A7
:1000D000FF920F931F93DF93CF93CDB7DEB7279790
:1000E0000FB6F894DEBF0FBECDBF80EF87BB11BA4D
:1000F0008FEF82BB7E010894E11CF11CC7010E94B6
:10010000C3000E94B60000E010E08FEA94E001977F
:10011000F1F700C000000E94770189B30E94A0019E
:10012000992787FD909520E030E0AC01022E02C0B7
:10013000559547950A94E2F740FF0CC0F901E0504D
:10014000FF4F4081040F111D44E00030140710F0F0
:100150000F5F13402F5F3F4F2830310531F7C70144
:10016000B8010E9446010E94B600CFCFC49888B360
:10017000806688BB8FEF8ABB8BBB0895C49888B319
:10018000806688BB0895FC0110821182128213825E
:100190008CEF8483158216820895662331F44423FC
:1001A00041F028EFFC01248308952FEFFC01248304
:1001B00008952CEFFC0124830895FC0184818BBBFE
:1001C000089521E0FC01258308950F931F93CF9399
:1001D000DF93FC019B01CAE0D0E0CB01BE010E948D
:1001E000D201808304E610E0C901B8010E94D20167
:1001F000BE010E94D201462F6183C90168EE73E0FF
:100200000E94D201262FB8010E94D201628323836B
:100210008581813051F0222341F48AE08383662373
:1002200021F48283442309F48183DF91CF911F91CC
:100230000F9108958230C9F0833028F08330D1F0D7
:10024000843071F00895882339F08130D9F788B36C
:100250008F7988BBC49A089588B38F7888BB089536
:1002600088B38F7C88BBC69A089588B38F7A88BB81
:10027000C59A0895C69888B3806388BB0895E8E05E
:10028000F1E0E80FF11D80818BBB0895CF93DF93E0
:10029000EC010E94E5008FEF8BBB8E810E941A015A
:1002A0008E818230F1F0833060F08330F1F0843061
:1002B000B1F08F5F8E83853008F01E82DF91CF9181
:1002C0000895882351F08130A1F7E981F0E0E85FDB
:1002D000FE4F80818BBB8E81ECCFE881F7CFEB8125
:1002E000F5CF8C818BBB8E81E4CFEA81EFCFC498B0
:1002F00088B3806688BB1ABA8FEF8BBB85E38A957B
:10030000F1F7000088B3806788BB0895FC0189B3CA
:1003100020813181220F331F306E90E002C095950D
:1003200087956A95E2F781709070282B392B31837D
:10033000208381E090EF2030390709F080E00895B4
:10034000E4E1F1E060E070E080E0A1E0B0E005C051
:100350006F5F7F4F6830710521F149B32081318192
:10036000220F331F306E50E0062E02C05595479580
:100370000A94E2F741705070242B352B219331936E
:1003800040EF2030340721F79D01062E02C0220FD6
:10039000331F0A94E2F7822B6F5F7F4F683071053D
:1003A000E1F60895AA1BBB1B51E107C0AA1FBB1FA2
:1003B000A617B70710F0A61BB70B881F991F5A95F1
:1003C000A9F780959095BC01CD010895F894FFCFD1
:1003D0000102040810204080C0F9A4B0999283F86B
:0403E0008098FF0002
:00000001FF
