:020000020000FC
:0200000045C0F9
:0200040054C0E6
:020008006CC0CA
:10008C000FEF0DBF00E10EBF0FEF07BB00E001BB90
:10009C000AE000936A0003E009BF789400E608BB0D
:1000AC00FDCF523011F040E001C04395453019F4BA
:1000BC002CD040E00CC000E008BB14E62FD000E2CE
:1000CC0008BB14E62BD0513011F414E627D00FEFF7
:1000DC0008BF51E01895513011F040E001C0439534
:1000EC00453019F412D040E00CC000E008BB14E617
:1000FC0015D000E408BB14E611D0523011F414E60C
:10010C000DD00FEF08BF52E0189500E908BB14E6BC
:10011C0005D000E408BB18EC01D008951F932F9371
:10012C003F9330EE2DEE2A95F1F73A95D9F71A95C3
:0A013C00C1F73F912F911F91089524
:00000001FF
