S0140000656E636F6465725F746573742E7372656311
S11300000C9446000C945D000C945D000C945D000F
S11300100C945D000C945D000C945D000C945D00E8
S11300200C945D000C945D000C945D000C945D00D8
S11300300C9450010C945D000C945D000C945D00D4
S11300400C945D000C945D000C945D000C945D00B8
S11300500C945D000C945D000C945D000C945D00A8
S11300600C945D000C945D000C945D000C945D0098
S11300700C945D000C945D000C945D000C945D0088
S11300800C945D000C945D000C945D0011241FBE63
S1130090CFEFD0E1DEBFCDBF11E0A0E0B1E0EEEAEA
S11300A0F3E000E00BBF02C007900D92AC30B10743
S11300B0D9F70E945F000C94D5010C940000CF92F4
S11300C0DF92EF92FF920F931F93DF93CF93CDB7FD
S11300D0DEB729970FB6F894DEBF0FBECDBF80EF11
S11300E087BB8E010B5F1F4FC8010E94B8000E949E
S11300F0B0000E94B7017E010894E11CF11CC70105
S11301000E946001CC24DD240E945A01682FC7019B
S11301100E9488018981823031F08F5F880FD82E48
S1130120DD0CDD0CD80E8A81823009F0C82E6D2DCD
S113013070E06C0D711DC8010E941E0185E08A9556
S1130140F1F70000E1CF87B3876087BB80E58DB905
S113015081E08EB908958FB9779BFECF8FB1089552
S1130160C49888B3806688BB8FEF8ABB8BBB089525
S1130170FC01108211821282138214820895089560
S11301800F931F93CF93DF93FC019B01CAE0D0E050
S1130190CB01BE010E94C101808304E610E0C901C5
S11301A0B8010E94C101BE010E94C101462F6183B2
S11301B0C90168EE73E00E94C101262FB8010E94B4
S11301C0C10162832383222341F48AE0838366236B
S11301D021F48283442309F48183DF91CF911F9119
S11301E00F9108958230C9F0833028F08330D1F024
S11301F0843071F00895882339F08130D9F788B3B9
S11302008F7988BBC49A089588B38F7888BB089582
S113021088B38F7C88BBC69A089588B38F7A88BBCD
S1130220C59A0895C69888B3806388BB0895E0E0B2
S1130230F1E0E80FF11D80818BBB08951F93CF93EC
S1130240DF93EC010E94C0001FEF1BBB8C810E9456
S1130250F2008C818230F9F0833068F08330F1F061
S11302608430B9F08F5F8C83853008F01C82DF9175
S1130270CF911F910895882351F0813099F7E98136
S1130280F0E0E050FF4F80818BBB8C81EBCFE881A5
S1130290F7CFEB81F5CF1BBB8C81E4CFEA81F0CFA4
S11302A01F920F920FB60F9211240F900FBE0F9052
S11302B01F9018951E981E9A80E00E94AB00089526
S11302C0CF93DF93EC0182E0888389830E945A01F3
S11302D0982F93709A83992787FD90958C709070CE
S11302E095958795959587958B83DF91CF91089503
S11302F0861721F0882321F4613041F082E00895CB
S11303008130E1F76623D1F781E0089580E0089514
S1130310FC01862F83709281891721F08823E9F4E8
S1130320913009F192E0908370E06C707070759573
S11303306795759567959381691731F0662349F040
S1130340613011F4992389F092E09183828363836D
S113035008959130C9F790E0F8CF813019F79923C7
S113036009F791E0E0CF90E0DECF91E0EECF169A6E
S11303701E9A0E94A300089508951E981E9A80E074
S11303800895AA1BBB1B51E107C0AA1FBB1FA617D8
S1130390B70710F0A61BB70B881F991F5A95A9F72A
S11103A080959095BC01CD010895F894FFCF8F
S10F03AEC0F9A4B0999283F88098FF0075
S9030000FC
