:100000000C9446000C9477000C9486000C946500C8
:100010000C9465000C9465000C9465000C946500CC
:100020000C9465000C9465000C9465000C946500BC
:100030000C9465000C9465000C9465000C946500AC
:100040000C9465000C9465000C9465000C9465009C
:100050000C9465000C9465000C9465000C9465008C
:100060000C9465000C9465000C9465000C9465007C
:100070000C9465000C9465000C9465000C9465006C
:100080000C9465000C9465000C94650011241FBE4F
:10009000CFEFD0E1DEBFCDBF11E0A0E0B1E0E8E8F6
:1000A000F2E000E00BBF02C007900D92A030B10754
:1000B000D9F711E0A0E0B1E001C01D92A230B10774
:1000C000E1F70E94DD000C9442010C9400001092B4
:1000D0000101109200018AE080936A0083E089BFE9
:1000E0008CEF8ABB80EF87BB18BA789408951F9273
:1000F0000F920FB60F9211248F9381E0809300012D
:100100008F910F900FBE0F901F9018951F920F9216
:100110000FB60F9211248F9381E0809301018F918C
:100120000F900FBE0F901F9018958130910519F414
:10013000C59AC498089588B38F7C88BB0895813090
:10014000910519F4C69AC798089588B38F7388BB30
:1001500008958130910569F0823091051CF4009773
:1001600089F0089582309105F9F08330910521F5E9
:1001700012C081E090E00E94950081E090E00E9432
:100180009F00089580E090E00E94950080E090E05C
:100190000E949F00089581E090E00E94950080E019
:1001A00090E00E949F00089580E090E00E949500FA
:1001B00081E090E00E949F0008950E946700809176
:1001C0000001813041F58FEF93EDA0E38150904025
:1001D000A040E1F700C0000080E090E00E94A9008C
:1001E0008FEF93EDA0E381509040A040E1F700C075
:1001F000000083E090E00E94A9008FEF94E3ACE060
:1002000081509040A040E1F700C000001092010131
:100210001092000130C080910101813041F58FEFD3
:1002200093EDA0E381509040A040E1F700C00000B2
:1002300080E090E00E94A9008FEF93EDA0E3815051
:100240009040A040E1F700C0000082E090E00E94F2
:10025000A9008FEF94E3ACE081509040A040E1F71B
:1002600000C00000109201011092000104C081E062
:1002700090E00E94A900AFE9BFE01197F1F700C03C
:0802800000009DCFF894FFCFB0
:00000001FF
