S01000006164635F746573742E73726563CD
S11300000C9446000C9465000C9465000C946500F7
S11300100C9465000C9465000C9465000C946500C8
S11300200C9465000C9465000C9465000C946500B8
S11300300C9465000C9465000C9465000C946500A8
S11300400C9465000C9465000C9465000C94650098
S11300500C9465000C9465000C9465000C94650088
S11300600C9465000C9465000C9465000C94650078
S11300700C9465000C9465000C9465000C94650068
S11300800C9465000C9465000C94650011241FBE4B
S1130090CFEFD0E1DEBFCDBF12E0A0E0B1E0ECE8ED
S11300A0F0E100E00BBF02C007900D92A431B1074C
S11300B0D9F716E0A4E1B2E001C01D92AE32B10757
S11300C0E1F70E9467000C9444080C940000EF923E
S11300D0FF920F931F93DF93CF93CDB7DEB727978C
S11300E00FB6F894DEBF0FBECDBF80EF87BB8CE7A1
S11300F085BD8AE083BD7E010894E11CF11CC70123
S11301000E941301C70161E040E00E941D010E94AA
S113011006010E94A7000E94E6008C010E94E400F0
S113012004C0C701B8010E94A4010E94EE00882304
S1130130C1F7C701B8010E94A401349A0E94F200D9
S11301408C010E94F60083BD0E94E400EACF0F9365
S11301501F93CF93DF93809161008F778093610029
S1130160809162008F778093620087E487B987E883
S113017086B904E112E060E070E089E893E4C0E04D
S1130180D0E013C0BE0180E090E00E9425052BE082
S113019038EA40E85EEB0E94A9032FE43CEE48E80D
S11301A053E40E944B030E94D2070E94D501F80138
S11301B061938F012196F4E0CA31DF0719F7DF91CB
S11301C0CF911F910F910895369A0895369A349BD2
S11301D0FECF349A24B135B1C901089581E0349930
S11301E080E0089524B135B1C901089524E08A312D
S11301F0920750F48C34910528F08C5E9D4FFC01DD
S1130200808108958FEF08958AE00895C49888B393
S1130210806688BB8FEF8ABB8BBB0895C49888B374
S1130220806688BB0895FC011082118212821382B9
S11302308CEF8483158216820895662331F4442357
S113024051F028EFFC0124830895442341F42FEF57
S1130250FC01248308952CEFFC01248308952BEFE3
S1130260FC0124830895FC01848194E0892784831C
S11302700895FC0184818BBB089521E0FC01258352
S113028008950F931F93CF93DF93FC019B01CAE062
S1130290D0E0CB01BE010E948707808304E610E012
S11302A0C901B8010E948707BE010E9487076183C4
S11302B0C90168EE73E00E948707262FB8010E94E7
S11302C08707628323838581813069F08381882352
S11302D051F48AE083839281992329F48283918162
S11302E0992309F48183DF91CF911F910F91089590
S11302F08230C9F0833028F08330D1F0843071F03B
S11303000895882339F08130D9F788B38F7988BB71
S1130310C49A089588B38F7888BB089588B38F7C76
S113032088BBC69A089588B38F7A88BBC59A089506
S1130330C69888B3806388BB0895E0E0F1E0E80FD5
S1130340F11D80818BBB0895CF93DF93EC010E9454
S113035041018FEF8BBB8E810E9478018E818230A8
S1130360F9F0833070F08330F1F08430B9F08E818D
S11303708F5F8E838E81853008F01E82DF91CF914E
S11303800895882349F0813091F7E981F0E0E05045
S1130390FF4F80818BBBEBCFE881F8CFEB81F6CFA9
S11303A08C818BBBE4CFEA81F1CFEF92FF920F9364
S11303B01F937B018C0120E030E040E05FE40E9469
S11303C0A30487FD11C0C801B70120E030E040E07C
S11303D05FE40E9478030E94D3049B01AC01205087
S11303E030404040504806C0C801B7010E94D304C1
S11303F09B01AC01B901CA011F910F91FF90EF90CD
S11304000895A0E0B0E0E7E0F2E00C949F07FC015F
S1130410EA018081823008F438C1DB019C9192307A
S113042008F430C1843059F4943009F02EC191811C
S113043011968C911197981709F021C126C1943017
S113044009F420C19230B1F4823009F01EC1CA010E
S1130450AF0128E0DA010D90AD01DC010D92CD0170
S11304602150C1F7DB0111968C9111979181892359
S113047089830AC1823009F405C1C280D380DB01BB
S113048012966D907C901397248135814681578113
S11304901496ED90FD900D911C911797C601861945
S11304A097095C0197FF04C0AA24BB24A81AB90ABF
S11304B0B0E2AB16B1040CF061C0181619066CF565
S11304C0370148010A2C04C0969487947794679462
S11304D00A94D2F781E090E0A0E0B0E00A2C04C0D6
S11304E0880F991FAA1FBB1F0A94D2F70197A1096D
S11304F0B1098E219F21A023B123EE24FF2487017B
S1130500E3940097A105B10519F4EE24FF248701B3
S1130510E628F728082919293CC00097D1F1CA0C0C
S1130520DB1C39014A010A2C04C096948794779401
S113053067940A94D2F781E090E0A0E0B0E00A2C3E
S113054004C0880F991FAA1FBB1F0A94D2F70197F2
S1130550A109B10982239323A423B52321E030E028
S113056040E050E00097A105B10519F420E030E027
S1130570A90126293729482959290BC06C147D045F
S113058024F4EE24FF24870104C0630120E030E05A
S1130590A9018181FB019181891709F445C0882350
S11305A049F0D801C701821B930BA40BB50B9C0126
S11305B0AD0104C02E193F09400B510B57FD04C077
S11305C01982DB82CA820BC081E08983DB82CA8202
S11305D050954095309521953F4F4F4F5F4F2C8359
S11305E03D834E835F830DC0880F991FAA1FBB1FD5
S11305F08C839D83AE83BF838A819B8101979B8378
S11306008A838C819D81AE81BF819C01AD01215083
S11306103040404050402F3FEFEF3E07EFEF4E0792
S1130620EFE35E0708F30BC08983DB82CA822E0DD9
S11306303F1D401F511F2C833D834E835F8383E006
S113064088832C813D814E815F8157FF1DC0DA0173
S1130650C90181709070A070B07056954795379518
S11306602795822B932BA42BB52B8C839D83AE8350
S1130670BF838A819B8101969B838A8305C0EBE0BB
S1130680F1E003C0FB0101C0FE01CF01CDB7DEB72D
S1130690EEE00C94BB07A0E2B0E0E1E5F3E00C94DB
S11306A0A70769837A838B839C832D833E834F833F
S11306B0588789E0E82EF12CEC0EFD1ECE01019640
S11306C0B7010E94C5068E010F5E1F4FCE0105962D
S11306D0B8010E94C506C701B801AE01475E5F4F6D
S11306E00E9401020E94F705A096E6E00C94C3075D
S11306F0A0E2B0E0EEE7F3E00C94A70769837A8305
S11307008B839C832D833E834F8358878E01075FA1
S11307101F4FCE010196B8010E94C50691E1E92E52
S1130720F12CEC0EFD1ECE010596B7010E94C50604
S11307308A8991E089278A8BC801B701AE01475E97
S11307405F4F0E9401020E94F705A096E6E00C9418
S1130750C307A0E2B0E0EFEAF3E00C949B076983DF
S11307607A838B839C832D833E834F835887CE016A
S11307700196BE01675F7F4F0E94C506CE010596B4
S1130780BE016F5E7F4F0E94C5069985923078F056
S113079089898230C0F0943019F4823041F4CBC09E
S11307A0843019F4923079F4C6C0923051F481E067
S11307B02A859A89291709F480E08A87CE01099647
S11307C0BCC0823051F481E02A859A89291709F442
S11307D080E08A8BCE014196B0C06D847E848F8484
S11307E09888ED88FE880F89188DE0E2F0E080E0BB
S11307F090E0DC01AA24BB24650120E030E0A901DB
S1130800B3016170707061157105D1F02E0D3F1D3B
S1130810401F511F15012601280E391E4A1E5B1E5A
S113082081E090E0A0E0B0E02E153F0540075107BD
S113083018F080E090E0DC01820D931DA41DB51D2D
S1130840AA0CBB1CCC1CDD1C17FF09C061E0262EC2
S1130850312C412C512CA228B328C428D5283197F7
S113086049F0EE0CFF1C001F111F96948794779497
S11308706794C6CF6B897C89EB85FC856E0F7F1FDF
S11308806E5F7F4F7C8F6B8F61E0EA857A89E71713
S113089009F460E06A8F6B8D7C8D10C0FC01E170FF
S11308A0F070309729F056954795379527955068FD
S11308B0B695A795979587956F5F7F4FB7FDEECF58
S11308C00CC0880F991FAA1FBB1F57FD8160220F00
S11308D0331F441F551F615070408030E0E09E0775
S11308E0E0E0AE07E0E4BE0760F36B8F7C8F6FE758
S11308F0E62EF12C012D112DE822F9220A231B23C7
S113090060E4E616F1040105110561F487FD0AC0EF
S1130910211531054105510529F0805C9F4FAF4FEA
S1130920BF4F80788D8F9E8FAF8FB8A383E0898F60
S1130930CE01499602C08BE091E00E94F705A09693
S1130940E2E10C94B707A8E1B0E0E9EAF4E00C9422
S1130950A70769837A838B839C832D833E834F838C
S113096058878E01075F1F4FCE010196B8010E9480
S1130970C50681E1E82EF12CEC0EFD1ECE01059694
S1130980B7010E94C5068985823040F0898982308A
S113099028F0C801B7010E942E0701C08FEF6896A6
S11309A0E6E00C94C307ACE0B0E0E9EDF4E00C94AD
S11309B0AB0769837A838B839C83CE010196BE0146
S11309C06B5F7F4F0E94C5068D81823081F182303A
S11309D070F1843021F48E81882369F10AC02F815B
S11309E0388537FD24C06E812F3131053CF06623F4
S11309F011F120E030E040E050E821C08EE190E0C9
S1130A00821B930B29853A854B855C8504C05695DA
S1130A104795379527958A95D2F7662381F05095A7
S1130A204095309521953F4F4F4F5F4F08C020E0D0
S1130A3030E0A90104C02FEF3FEF4FEF5FE7B901AA
S1130A40CA012C96E2E00C94C707A8E0B0E0EBE200
S1130A50F5E00C94A5077B018C011A8261157105E0
S1130A608105910519F482E089835FC083E089835D
S1130A708EE1C82ED12CDC82CB82ED82FE820F83E4
S1130A801887C801B7010E949D05FC013197F7FF43
S1130A903AC0AA27BB27AE1BBF0B21E030E040E0E1
S1130AA050E00A2E04C0220F331F441F551F0A941E
S1130AB0D2F721503040404050402E213F21402366
S1130AC0512361E070E080E090E02115310541059B
S1130AD0510519F460E070E0CB0104C01695079548
S1130AE0F794E794AA95D2F7E62AF72A082B192B4C
S1130AF0ED82FE820F8318878EE190E08E1B9F0BA0
S1130B009C838B8312C0309781F00E2E04C0EE0CB0
S1130B10FF1C001F111F0A94D2F7ED82FE820F837F
S1130B201887CE1ADF0ADC82CB82CE0101960E949E
S1130B30F7052896E8E00C94C107AF92BF92CF92D4
S1130B40DF92EF92FF920F931F937B018C0180E061
S1130B50E81680E0F80681E0080780E0180758F4FA
S1130B60EFEFEE16F1040105110509F090F480E0B1
S1130B7090E0DC0117C0F0E0EF16F0E0FF06F0E0D3
S1130B800F07F1E01F0750F480E190E0A0E0B0E02F
S1130B9009C088E090E0A0E0B0E004C088E190E003
S1130BA0A0E0B0E020E230E040E050E0281B390B48
S1130BB04A0B5B0B5701680104C0D694C794B794E1
S1130BC0A7948A95D2F7D601C5018D5E9E4FFC018C
S1130BD08081281B310941095109C9011F910F91D5
S1130BE0FF90EF90DF90CF90BF90AF900895EF9279
S1130BF0FF920F931F93CF93DF93FC0124813581E0
S1130C004681578161818081823020F44061EFEF19
S1130C10F0E0A3C0843009F49BC0823009F492C090
S1130C20211531054105510509F48FC00280F38176
S1130C30E02D8FEFE238F8070CF05AC0C2E8DFEF7E
S1130C40CE1BDF0BCA31D1056CF579018A010C2E5C
S1130C5004C016950795F794E7940A94D2F781E0B7
S1130C6090E0A0E0B0E00C2E04C0880F991FAA1FEA
S1130C70BB1F0A94D2F70197A109B10982239323D8
S1130C80A423B52321E030E040E050E00097A10523
S1130C90B10519F420E030E0A9012E293F29402BA9
S1130CA0512B03C020E030E0A901DA01C9018F779C
S1130CB09070A070B07080349105A105B10539F42D
S1130CC027FF09C0205C3F4F4F4F5F4F04C0215C9A
S1130CD03F4F4F4F5F4FE1E0F0E0203080E03807B6
S1130CE080E0480780E4580728F5E0E0F0E022C0FF
S1130CF0E038F1056CF5E158FF4FDA01C9018F774F
S1130D009070A070B07080349105A105B10539F4DC
S1130D1027FF09C0205C3F4F4F4F5F4F04C0215C49
S1130D203F4F4F4F5F4F57FF05C056954795379537
S1130D302795319687E056954795379527958A9557
S1130D40D1F70BC0E0E0F0E005C0E0E0F0E005C062
S1130D50EFEFF0E020E030E0A9018E2F879588279F
S1130D608795942F9F77679566276795E695E22E7A
S1130D70A92FA82BFE2FF62B622F732F8A2F9F2FBC
S1130D80CDB7DEB7E6E00C94C307DC01FB012C9180
S1130D9011963C91119712968C911297482F4F7788
S1130DA050E0982F991F9927991F13966C911397C8
S1130DB0862F880F892B90E0661F6627661F618344
S1130DC0009739F5211531054105510511F482E0EB
S1130DD029C082E89FEF9383828367E0220F331F49
S1130DE0441F551F6A95D1F783E0808309C0220F01
S1130DF0331F441F551F82819381019793838283FC
S1130E00203080E0380780E0480780E4580778F312
S1130E1020C08F3F910579F4211531054105510515
S1130E2019F484E08083089544FF03C081E0808343
S1130E3010C010820EC08F5790409383828383E04A
S1130E40808387E0220F331F441F551F8A95D1F7F3
S1130E50506424833583468357830895FC01DB0162
S1130E609081923008F449C08C91823008F445C0D6
S1130E70943051F461818430B1F511962C9111971D
S1130E8030E0261B310941C0843021F0923041F416
S1130E908230B1F111968C9111978823A1F12DC064
S1130EA06181823001F111968C9111976817D9F400
S1130EB02281338112968D919C9113978217930707
S1130EC094F028173907BCF0248135814681578175
S1130ED014968D919D910D90BC91A02D821793072E
S1130EE0A407B50718F4662341F00DC02817390785
S1130EF04A075B0728F4662331F021E030E005C09F
S1130F0020E030E002C02FEF3FEFC9010895AA1B93
S1130F10BB1B51E107C0AA1FBB1FA617B70710F0E0
S1130F20A61BB70B881F991F5A95A9F78095909512
S1130F30BC01CD0108952F923F924F925F926F9220
S1130F407F928F929F92AF92BF92CF92DF92EF9255
S1130F50FF920F931F93CF93DF93CDB7DEB7CA1BD6
S1130F60DB0B0FB6F894DEBF0FBECDBF09942A8801
S1130F70398848885F846E847D848C849B84AA84A9
S1130F80B984C884DF80EE80FD800C811B81AA8136
S1130F90B981CE0FD11D0FB6F894DEBF0FBECDBF01
S1130FA0ED01089550D0E0F09E37D8F09639B8F4AA
S1130FB09E3848F4672F782F8827985FF9CF869555
S1130FC07795679593959539D0F3B62FB1706B0FDC
S1130FD0711D811D20F4879577956795939502C0BF
S1130FE01CC04CC0882371F4772321F09850872BC0
S1130FF0762F07C0662311F499270DC09051862BD4
S113100070E060E02AF09A95660F771F881FDAF780
S1131010880F9695879597F908959F3F31F09150E1
S113102020F4879577956795B795880F911D9695C8
S1131030879597F9089557FD9058440F551F59F017
S11310405F3F71F04795880F97FB991F61F09F3FB1
S113105079F087950895121613061406551FF2CFDA
S11310604695F1DF08C0161617061806991FF1CF2A
S113107086957105610508940895E894BB27662751
S10F10807727CB0197F90895F894FFCF6F
S113108CC0F9A4B0999283F88098FF000000000086
S113109C000000000102020303030304040404041B
S11310AC04040405050505050505050505050505E3
S11310BC05050506060606060606060606060606C3
S11310CC06060606060606060606060606060606B0
S11310DC0606060707070707070707070707070793
S11310EC0707070707070707070707070707070780
S11310FC0707070707070707070707070707070770
S113110C070707070707070707070707070707075F
S113111C0707070808080808080808080808080842
S113112C080808080808080808080808080808082F
S113113C080808080808080808080808080808081F
S113114C080808080808080808080808080808080F
S113115C08080808080808080808080808080808FF
S113116C08080808080808080808080808080808EF
S113117C08080808080808080808080808080808DF
S113118C08080808080808080808080808080808CF
S107119C0808080033
S9030000FC
